:020000040002F8
:10300000A83F00204D330200553302005733020021
:10301000593302005B3302005D3302000000000000
:103020000000000000000000000000005F3302000C
:1030300061330200000000006333020065330200C8
:103040006D36020067330200ED390200673302007B
:1030500067330200673302009534020067330200D1
:1030600067330200673302006733020067330200F0
:1030700067330200673302006733020067330200E0
:1030800067330200C536020067330200673302006F
:10309000E936020067330200ED36020067330200B2
:1030A00067330200673302006733020067330200B0
:1030B00067330200673302000000000000000000D8
:1030C0006733020067330200673302006733020090
:1030D000673302006733020067330200000000001C
:1030E00000000000000000000000000000000000E0
:1030F00000000000000000000000000000000000D0
:1031000000000000000000000000000000000000BF
:1031100000000000000000000000000000000000AF
:10312000000000000000000000000000000000009F
:10313000000000000000000000000000000000008F
:10314000000000000000000000000000000000007F
:10315000000000000000000000000000000000006F
:10316000000000000000000000000000000000005F
:10317000000000000000000000000000000000004F
:10318000000000000000000000000000000000003F
:10319000000000000000000000000000000000002F
:1031A000000000000000000000000000000000001F
:1031B000000000000000000000000000000000000F
:1031C00000000000000000000000000000000000FF
:1031D00000000000000000000000000000000000EF
:1031E00000000000000000000000000000000000DF
:1031F00000000000000000000000000000000000CF
:10320000DFF80CD000F034F9004800471D4B0200F5
:10321000A83F002030B4044654E8000F0D4644E8AF
:103220000053002BF8D1156030BC704730B4044611
:1032300054E8000F40EA010544E80053002BF7D1A1
:10324000156030BC704730B4044654E8000F00EA03
:10325000010544E80053002BF7D1156030BC7047DE
:1032600030B4044654E8000F80EA010544E80053F6
:10327000002BF7D1156030BC704730B4044654E8D9
:10328000000F00EB010544E80053002BF7D1156057
:1032900030BC704730B4044654E8000FA0EB010581
:1032A00044E80053002BF7D1156030BC7047000094
:1032B00030B4044654E8000F0D4644E80053002B98
:1032C000F8D1156030BC704730B4044654E8000FA4
:1032D00040EA010544E80053002BF7D1156030BCEB
:1032E000704730B4044654E8000F00EA010544E892
:1032F0000053002BF7D1156030BC704730B4044642
:1033000054E8000F80EA010544E80053002BF7D190
:10331000156030BC704730B4044654E8000F00EB31
:10332000010544E80053002BF7D1156030BC70470D
:1033300030B4044654E8000FA0EB010544E8005304
:10334000002BF7D1156030BC70470000064880475D
:1033500006480047FEE7FEE7FEE7FEE7FEE7FEE77A
:10336000FEE7FEE7FEE7FEE7F1360200013202006B
:103370002DE9F05F0546002092469B4688460646AA
:10338000814640241BE0284641464746224600F03D
:103390005FF853465A46C01A914110D31146184659
:1033A000224600F046F82D1A67EB01084F462246E8
:1033B0000120002100F03DF817EB00094E41201ECE
:1033C000A4F10104DFDC484631462A464346BDE805
:1033D000F09F0000004870479C6E020040EA010325
:1033E0009B0703D009E008C9121F08C0042AFAD2BB
:1033F00003E011F8013B00F8013B521EF9D270477F
:10340000D2B201E000F8012B491EFBD27047002226
:10341000F6E710B513460A4604461946FFF7F0FFD3
:10342000204610BD421C10F8011B0029FBD1801A58
:103430007047202A04DB203A00FA02F1002070478E
:103440009140C2F1200320FA03F3194390407047E2
:10345000202A04DB203A21FA02F00021704721FAE9
:1034600002F3D040C2F12002914008431946704750
:10347000064C074D06E0E06840F0010394E80700C1
:1034800098471034AC42F6D3FFF7BEFEE873020053
:10349000087402002DE9F04700268CB0DFF8609137
:1034A000B0464FF48075012437460696284602F050
:1034B000F9F838B1D9F80403204203D0284602F0C5
:1034C000E7F826432D1D64007F1CADB2082FEDD315
:1034D0004FF4BE74204602F0E5F848B1204602F0F1
:1034E000D7F846F0004606AA0121002002F0BCF8F9
:1034F000444D16F0FF0F15D00127002437420DD0A0
:1035000009EB8401D1F81005D1F81015C0F304209F
:1035100055F82420C1F3014102B190477F00641C9B
:10352000082CEBD3002E67DA4FF0FF30CDE908808E
:1035300000263446281910F8507F90F9000027F033
:10354000C008401C44D009A9404601F070FC58B3A3
:103550004FEA9719404601F023F855F820701FB143
:10356000B9F1030F03D00FE0B9F1030F30D108A870
:103570004FEAD80208F00703815C4FF0010C0CFA07
:1035800003FC41EA0C0181544FF0A04101EB88009B
:10359000D0F8000706A9C0F3014A404601F047FCF5
:1035A00018B1BAF1020F03D012E0BAF1030F0FD134
:1035B000B9F1030F08D1BAF1020F1BD00221404626
:1035C00002F036F8761CF6B217B149464046B847C5
:1035D000641C042CAED3002E0ED06A4601210020BC
:1035E00002F042F806990098884205D006900898A3
:1035F00009909DE70321E2E70CB0BDE8F0870000E9
:1036000000600040D418002000F01F02012191400A
:103610004009800000F1E020C0F88012704700F0FF
:103620001F02012191404009800000F1E020C0F814
:103630000011704700F01F020121914040098000F5
:1036400000F1E020C0F8001270474907090E002879
:1036500006DA00F00F0000F1E02080F8141D70473A
:1036600000F1E02080F80014704700002DE9F041DF
:103670004FF48077384601F0E2FB0124104EA50795
:1036800048B1384601F0E2FB0120C5F80803747028
:10369000002000F08DFF4FF48277384601F0CFFB19
:1036A00000280BD0384601F0D1FB0220C5F80803F2
:1036B000B470BDE8F041012000F07ABFBDE8F081B0
:1036C000C018002007480021C0F84011C0F844117C
:1036D000C0F84811C0F84C11C0F80011C0F804112E
:1036E00003F012B80010014002F05CBF02F090BC81
:1036F000F0B5AE480023021D01780125101D4FF0E2
:10370000805406290BD11678360708D10678C6F3FF
:103710000316032E06D0042E04D0052E02D006294F
:1037200007D00EE0B4F82463A14FC6F304263E6030
:1037300002E01678360704D10678C6F30316032E86
:1037400002D0062904D00FE09B4F9A4E7E670EE010
:103750001678360708D10678C6F30316032E06D06E
:10376000042E04D0052E02D0062907D00EE0D4F88E
:103770004462924FC6F342363E6002E01678360746
:1037800004D10678C6F30316032E02D0062906D00C
:1037900011E08B4E376827F0807737600EE016789F
:1037A000360708D10678C6F30316032E06D0042E7A
:1037B00004D0052E02D006290AD011E04FF0804631
:1037C000C6F80C31C6F810317C4E361F336002E06B
:1037D0001678360704D10678C6F30316032E02D0F6
:1037E000062905D00CE0754F032664373E600AE0D9
:1037F0001678360704D10678C6F30316032E02D0D6
:1038000006290DD014E06F4F05263E606D4E7836C8
:1038100035606C4E083633603F263F1D3E6002E047
:103820001678360704D10678C6F30316052E02D0A3
:10383000062957D062E0644E3668644F3E60624E9F
:10384000361D36683F1D3E605F4E083636683F1DA8
:103850003E605D4E0C3636683F1D3E605A4E103657
:1038600036683F1D3E60584E143636683F1D3E6038
:10387000554E18363668554F20373E60524E1C362E
:1038800036683F1D3E60504E203636683F1D3E6014
:103890004D4E243636683F1D3E604B4E2836366806
:1038A0003F1D3E60484E2C3636683F1D3E60464EFA
:1038B00030363668454F40373E60434E34363668C2
:1038C0003F1D3E60404E383636683F1D3E603E4EDE
:1038D0003C3636683F1D3E603B4E403636683F1DE5
:1038E0003E6002E01678360708D10678C6F3031664
:1038F000032E06D0042E04D0052E02D0062907D0B0
:1039000019E0D4F85812324A01F04F01116002E078
:10391000117809070FD10078C0F30310032803D0F2
:10392000042801D0052806D12A480168C90702D019
:103930006FF00101016022487438016841F47001A0
:103940000160BFF34F8FBFF36F8F4FF01021D1F89D
:103950000002002803DBD1F80402002822DA1E4A04
:1039600015601E480468002CFCD01524C1F80042E4
:103970000568002DFCD0C1F8044201680029FCD084
:10398000136001680029FCD0BFF34F8F0C48F0385A
:103990000168134A01F4E06111430160BFF34F8FE6
:1039A00000BFFDE710490F480860F0BDE00F00F0D0
:1039B000403501400DF0ADBA00C007403C05004065
:1039C000FCED00E0105600400404001020C500404B
:1039D000E40E00400004004004E5014000E4014022
:1039E0000400FA050090D003D41700200448017F9A
:1039F00004480029024901D002F09BBF02F00ABF2F
:103A00002C1900200020004002E008C8121F08C145
:103A1000002AFAD170477047002001E001C1121F4F
:103A2000002AFBD1704700000121202803DA8140E1
:103A30000548014003E0402802DA2038814009B1FE
:103A40000120704700207047FC06FFBD082806D201
:103A500028B1012803D0042801D00120704700209C
:103A60007047000030B593B05920ADF83C001248C3
:103A700011901720ADF8400004253C216846FFF75F
:103A8000C6FC00240FA88DF8004009908DF8035063
:103A90002146684600F095FA08B100F09BF8074807
:103AA0000321046044608460C46001700472A0213A
:103AB0004181848113B030BD2017002044180020BC
:103AC000022000F0E3BA000070B50024064D06E0C5
:103AD0006868012110F8340001F06AFA641C287843
:103AE0008442F5D3002070BD48170020F8B5154674
:103AF0000C460646052A01D20720F8BD01F03EFB20
:103B000018B901F00DFB0028F7D1104900204E60D4
:103B10000C70C1E902500E4D08610DE006EBC400C7
:103B20006968009181788DF801100078094A69462A
:103B300001F090FA0028E0D1641EE4B2EED2BDE8B4
:103B4000F840054A0021024800F050B8481700200C
:103B5000186C0200AD4702000D47020002F026F883
:103B600001F07CFE0028FBD1104C0121208801EBE4
:103B700000400FA101F06AFF10480068C00700D0A4
:103B800000BE2088022101EB00400DA101F05EFF84
:103B9000BFF34F8F0948E43801680D4A01F4E06132
:103BA00011430160BFF34F8F00BFFDE714180020E1
:103BB000466174616C206572726F7200F0ED00E016
:103BC00053797374656D207265736574000000002D
:103BD0000400FA050EB500210091CDE901106A46F6
:103BE00044F20100FFF7BAFF0EBD0000074B9B78BF
:103BF00023B12AB120B10068037C1BB108207047B3
:103C00000720704741744261002070476C19002002
:103C100070B502F03DFB104800240B210470447085
:103C20000E4D817014206C602C706C70FFF7ECFCF2
:103C300007211420FFF709FD1420FFF7F0FC0848C6
:103C4000046007211120FFF700FD0548001F0068F0
:103C5000A860002070BD00006C1900205C170020D7
:103C6000081501402DE9FC47DFF8789099F80230FB
:103C700073B368B3052902D20720BDE8FC87436906
:103C800033B3437C012B25D000270446002588460A
:103C900016468DF80050684600F038F801A802F08A
:103CA0001FFFC8B1012101700F4944600968C0E9D4
:103CB0000218C0E904769DF8040089F801009DF817
:103CC000000000F047F81420FFF7B4FC2846D4E7C2
:103CD0000820D2E70F46D8E704259DF8000000F041
:103CE00039F8F3E76C19002004150140064989787A
:103CF00039B130B1416921B100210174022102F0D2
:103D0000DFBC0820704700006C19002030B5EFF3CD
:103D1000108172B60D4A9468012324B10370002902
:103D200000D162B630BD93604FF0E023D3F88051EC
:103D3000074C25401560C3F88041D3F88441546096
:103D40005A17C3F8842100220270E8E7781A00208D
:103D5000FC06FFBD0B498A68002A11D000280FD14C
:103D6000EFF3108072B60B684FF0E022C2F800311A
:103D70004B68C2F8043100228A60002800D162B684
:103D800070470000781A00202DE9F04106460868C7
:103D90000C46411C4FF0A0474FF0010506D005FA34
:103DA00000F1C7F80815206801F038FC6068411C74
:103DB00002D0002101F029FC3079204901EB4010AC
:103DC000A169007F00283068C0F8241525D0607DE7
:103DD000227D31681043C1F86C05D4E900123068C7
:103DE000C0F80C15C0F8142524E0A068411C02D0CE
:103DF000002101F00AFCE068411C05D08540C7F8AD
:103E00000855E06801F00AFCD4E902123068C0F8F5
:103E10000825C0F81015BDE8F081607D217D32686D
:103E20000843C2F86C05D4E900123068C0F81425C4
:103E3000C0F80C15207D0128D7D0ECE72C19002004
:103E40002DE9FC47002517880646158090F82D00BF
:103E50001446894630B13A462146484600F0E5F816
:103E6000050009D1B0784FF00C0A18B32088C84675
:103E7000001DB84202D95046BDE8FC87684679DF8C
:103E80000028F9D12088032108F800102088192182
:103E9000401C80B2208008F800102088401C80B2AE
:103EA000208000EB0801BDF8000002F0BAFD218877
:103EB00008442080F0780222C8B1218896F90330A6
:103EC00001F1030C4846BC45D5D8425421884FF037
:103ED000010C491C89B2218000F801C02188491CCD
:103EE00089B2218009F801302088401C2080706848
:103EF000B8B1218890F9003001F1030C4846BC4567
:103F0000B9D8425421880A22491C89B221804254DE
:103F10002188491C89B2218009F801302088401C81
:103F20002080308950B1CDE900474B46062202215E
:103F300006F1080002F0ECFD05009DD1308A50B179
:103F4000CDE900474B460722032106F1100002F09D
:103F5000DFFD050090D1308B50B1CDE900474B46D5
:103F60001522142106F1180002F0D2FD050083D1BC
:103F7000306A30B13B462246494600F083FB0500DB
:103F8000DBD1706A30B13B462246494600F020FE44
:103F90000500D2D196F82C0038B13B46224649465E
:103FA000304602F045FA0500C7D1307838B13B46BB
:103FB00022464946304600F093FE0500BDD1284612
:103FC0005AE7F0B50C4693B01F210726ADF8001054
:103FD000ADF80410002750B1C17849070DD56A46E5
:103FE00002A9FFF72DFF002808D102AD02E000254D
:103FF000ADF800706CB1E07810B1304613B0F0BD90
:1040000001AA0AA92046FFF71BFF0028F6D10AAA39
:1040100002E00022ADF80470BDF80400C3B2BDF8A0
:104020000000C1B2284672DFE8E77CB50546088883
:104030000C460930904201D90C207CBD68466DDFEA
:104040000028FAD121880820685420881B21401CB0
:1040500080B2208029542088401C80B220802844CF
:10406000DDF801100160BDF8051081802088801DF9
:1040700080B220809DF80010490800D00121295409
:104080002088401C208000207CBD000007490B5C7C
:104090004FF0A041D1F804250120984020EA020306
:1040A000C1F808351040C1F80C057047DE6B0200FE
:1040B0000249085C012101F0CCBA0000DE6B02006D
:1040C0000249085C002101F0C4BA0000DE6B020066
:1040D0000649095C4FF0A040D0F80405C84010F034
:1040E000010000D0012080F001007047DE6B02006B
:1040F0007CB50024084E25460122305D0095002342
:104100001146019501F042FA641C042CF4D3BDE879
:104110007C4000F003B80000DE6B020010B5002404
:104120002046FFF7C5FF641C042CF9D310BD10B561
:1041300000242046FFF7C4FF641C042CF9D310BDF3
:1041400010B50246064B4FF0FF3000215C5C9442F4
:1041500001D1084610BD491C0429F7D310BD000049
:10416000E26B02002DE9F0470D468146FFF7E8FFBC
:104170000446042836D2DFF874801B481C4EA8F190
:104180000C0725B3012D0ED0022D2BD104EB4400DA
:1041900030444578002D25D0B968002922D0284622
:1041A000BDE8F047084704EB4401755C0E447178A4
:1041B00049B10E4A4FF40041093A8068FFF752FDB9
:1041C00008B987F80390B17808F80410E2E780682E
:1041D000FFF78CFD04EB4401314418F804008D789E
:1041E000A842D7D0BDE8F087E86B02004417002052
:1041F0009418002070B50023042810D20D4D00EB58
:104200004004012A02D101290CD00022094E00EB02
:104210004000304461B1012906D0022906D00723AD
:10422000184670BD0E30C2B22A55F9E74270F7E762
:104230008270F5E794180020044A014600201279A4
:10424000D20702D0084600F04DB87047381700205A
:1042500070B506461E480024C0E90161B00720D5AC
:104260000025012211462846FFF7C4FF6D1C0446B5
:10427000042D02D2002CF4D013E094B940F266620F
:1042800004211448FFF732FC04000AD1FFF71CFC9C
:10429000040006D10F48104A0021001FFFF7A6FCBA
:1042A0000446F00701D0FFF723FF74B909480B4A11
:1042B00000210C38FFF79AFC040006D10548084A93
:1042C00001210838FFF792FC0446204670BD00002B
:1042D00038170020F46B02003545020055490200F2
:1042E000C13A02002DE9F05F6A4C0546002660786D
:1042F000B34618B184F801B000F014FB664F4FF4D8
:104300007A694FF4C87A4FF00108182D62D2DFE8BD
:1043100005F0AC0C0C31404D62676B746B74BE7D64
:104320007D7D7D7DACAFB2B5BEBE0020FFF7D0FE77
:1043300000284FF0000008D0FFF7BAFE022D02D18E
:104340004FF4E16008E0484606E0FFF7B9FE022DB1
:1043500001D1C82000E05046410CC0034FF4FA726E
:10436000801841F10001257052000023FFF700F88A
:1043700001462AE00020FFF7ABFE00284FF00000C6
:1043800004D0FFF795FE4FF44870E5E7FFF798FE7D
:10439000DFE70020FFF79CFE00284FF0000002D06E
:1043A000FFF786FECFE7FFF78BFED4E70020FFF78D
:1043B0008FFE00284FF0000002D0FFF779FE01E0E9
:1043C000FFF77EFE257041F69A1100223868FFF74C
:1043D00049FC064646E00020FFF758FE257008E03D
:1043E000002051E025703DE084F801800120FFF7B6
:1043F0004DFE002240F6CD41E8E784F8018001201F
:10440000FFF744FE00224FF48041DFE77868FFF7B2
:104410006DFC0646D5F1110000D02EB10220FFF749
:1044200047FE84F802B01DE0012816D980B2C821E9
:104430004843C117C90341EA5041C0034FF4FA721F
:10444000801841F1000152000023FEF791FF014660
:1044500000227868FFF706FC06460220FFF730FED0
:1044600084F802803046BDE8F09F00F05BFAB9E7BF
:1044700000F058FAB4E700F055FA04E000F052FA00
:104480000020FFF71DFE0120FFF71AFEAAE7FFF745
:104490004EFEA7E738170020E86B0200F8B5871C2E
:1044A00000208DF800000E4601256846FFF72EFC1F
:1044B000124C20683060D4E90001401AA168091A42
:1044C000BE1C06E000F0E0FAD4E90001401AA16841
:1044D000091A491C8E42F5D8A1682068084004EBEF
:1044E0008000C16841F00301C16020683844206049
:1044F0009DF80000FFF72EFC2846F8BD841B002025
:1045000030B482680468531C8360A154D0E901125E
:104510008A4202D330BC00F040BF30BC704700007C
:10452000034803C8814201D1012070470020704731
:10453000841B002000780221FFF714BE05494FF0CC
:10454000FF32082841F8202002D3084480F8482090
:1045500070470000D4180020F0B54FF0FF3512B1BD
:104560000023082601E008230C260C4C05E000BFC0
:1045700054F823707F1C04D05B1CB342F8D3284648
:10458000F0BD26185DB286F8305044F82310002A9A
:10459000F5D1E11881F84800F1E70000D4180020B7
:1045A0000249084490F9300070470000D4180020F8
:1045B00070B5084C050009D010342168002907D0D7
:1045C00008682060496828468847F6E70834F4E719
:1045D00070BD0000C01800202DE9F05F264841683A
:1045E000F1B3DFF898B00E688146DBF800408768C9
:1045F0008078E11B21F07F45ED1CB0B9DFF88080A9
:104600004FF48030C8F84403C8F804031120FEF7C3
:10461000FBFF1120FFF703F84FF0010AC8F800A0D4
:104620002F2000F01BFC89F802A0B54200D23546CD
:10463000124BE8193C3320F07F401860DBF8001083
:104640005A46091B21F07F41001B20F07F40C91C06
:1046500081420FD9106818602F2000F0FFFB00E0A6
:1046600004E0BDE8F05F1120FEF7E4BFBDE8F05FB5
:1046700001F00EBEBDE8F09F5C170020041501405C
:10468000001001402DE9F04117880646B81D144678
:104690000D46984202D90C20BDE8F08131880722EE
:1046A00006290AD34FF4486C4FF6FF73614501D9D0
:1046B000994202D17088062801D21046ECE7604585
:1046C00001D99842F9D1994203D0984201D0814250
:1046D000F3D80520E85520881221401C80B22080A4
:1046E00029542088401C80B220804119308802F073
:1046F00098F92188084480B220804119708802F01E
:1047000090F92188084420800020C5E72DE9F04178
:1047100000260125144C22E06068226900EBC607E0
:10472000387805FA00F1114217D08A43226100F06F
:10473000EDFC02463878E36805FA00F1194002FA08
:1047400000F3994209D17978012901D0012100E0D3
:10475000002151407A6802B19047761CF6B2207869
:104760008642D9D3BDE8F081481700200E4910B524
:104770000A784C780023A24212D0521CD2B20A709E
:10478000022A00D10B70084A0B780C3252F8232011
:1047900002608868104420F07F408860012010BDCE
:1047A0000360002010BD00005C1700202DE9F041DF
:1047B000124E07460125BD403068FFF797FA0028E2
:1047C0000DD10F4C2069284207D1384600F09EFCDD
:1047D0000028E06805D0284304E0A8432061BDE834
:1047E000F081A843E060206928432061A168306817
:1047F000BDE8F0410022FFF735BA0000186C020056
:10480000481700202DE9FC5F0E008346DDE90C47C8
:10481000C6F1000098469246814600D4084601251C
:1048200003E000BF90FBFAF06D1C5045FADAA84592
:1048300000D9454624B1002E01DB780700D5641E5F
:10484000B80702D5B8F1000F0AD0F80708D13CB17B
:10485000A54205D220215846641EFFF751FEF6E717
:10486000002E02DA4E462D2102E0780703D52B21D7
:104870005846FFF745FE07F0030002280BD1B8F1B8
:10488000000F08D13CB1A54205D230215846641E24
:10489000FFF736FEF6E7CDE900474346524631467C
:1048A000584602F0C3F8BDE8FC9F000070B50E4604
:1048B0000446007918494FF4A27501EB4010017FBE
:1048C0002068A1B14FF4887101F03CFC4FF4907165
:1048D000206801F037FC4FF49271206801F032FC3F
:1048E0002946206801F02EFC0C49206809E04FF4AD
:1048F0008E7101F016FC2946206801F012FC08496F
:104900002068C0F80413206800F04FFB3146BDE872
:10491000704000F02EBB00002C1900201003020094
:10492000800002000A4810B5807860B1002401E0E0
:10493000022C06D02046FFF7BBFB641C042CF7D3E7
:1049400010BD0324F6E7BDE81040FFF7E7BB000009
:104950003817002003480179C90702D00078FFF713
:10496000C1BC70473817002006490120086006487E
:104970000168C1F300410029FAD104490020887080
:10498000704700000C00004018040040C0180020D0
:104990002DE9F047394E002780463D46DFF8E0908C
:1049A000D6F804A057E003D00446D0F81C8035E0C8
:1049B00099F8002002EB4201521CD2B289F8002083
:1049C00009EBC10199F80230091D9A4201D189F819
:1049D000005048680A780446012A12D0022A02D000
:1049E000032A3BD108E001F03BFE00B1012725740A
:1049F00034E00574C06900E070680028F9D1706087
:104A00002CE0207C50BB88686060C868A0600869A2
:104A1000E0604869A061F07800B165606268B168E3
:104A2000184B501A20F07F40984202D2A1680844E7
:104A300006E0881AA16820F07F40814202D9081A56
:104A4000206000E0256065600120A560207420469C
:104A5000E56101F0E7FDB8F10000A4D199F800107C
:104A600099F801008142A3D117B97168514502D06C
:104A70000120BDE8F0870020FBE700005C17002064
:104A80006C190020FFFF7F0070B588B0214800F04E
:104A900075F92048001F064600F070F91E4DD5E953
:104AA000014105E0C0F3891202EB9050641C0444FC
:104AB00004EA010005EB8000C0688207F2D0002004
:104AC0000DF1080204EA010305EB8303641CDB68B3
:104AD00042F82030401C0228F4D3029800F0030072
:104AE000012808D002280AD10298032101EB905036
:104AF00004EB900403E00298C0F3831004443046B2
:104B0000002101AAFEF7EDFB002800D06C6008B080
:104B100070BD00009C1F0020841B002008B50020F1
:104B200000F0FEFF08B1FFF755F800F089FEFFF72F
:104B30006FF808B1FFF74EF800210120FFF788FB5E
:104B400008B1FFF747F801F02DFA08B1FFF742F876
:104B5000002000906946012001F010F908B1FFF72C
:104B600039F8684601F08AF908B1FFF733F8FEF723
:104B700079FF01210E4873DF08B1FFF72BF80220FF
:104B8000FFF75AFB08B1FFF725F80A480321008810
:104B900001EB004008A100F059FF00BF00F05EFEED
:104BA0000028FBD13EDF0028F8D0FFF713F8F5E727
:104BB0004418002014180020426561636F6E206560
:104BC00078616D706C6520737461727465642E0019
:104BD00070B5144682880E4605462088111D014492
:104BE000921C994201D8FE2A01D90C2070BD521C9A
:104BF00032542088FF21401C80B22080315420880C
:104C0000401C80B220808119288801F00AFF218889
:104C1000084480B22080AA8842B1A96841B13044DA
:104C2000FEF7DCFB2088A98808442080002070BDA6
:104C3000072070BD2DE9F047C7880446181D1646A9
:104C40008946B0FBF7F1B0FBF7F207FB12009A19A7
:104C50003A44D21CB2FBF7F2DDF820A001E0246850
:104C6000491E0029FBD13D1A8846B54216D818E0E6
:104C7000BAF1000F05D0211809EB08002A46091DDA
:104C800004E0204409EB08012A46001DFEF7A6FBBC
:104C900000202468761BA844B74201D9354600E0BD
:104CA0003D46002EE4D1BDE8F087000030B5024655
:104CB00069B100F063FF0021084C0BE001EB4103F8
:104CC00004EB830315685B88AB4202D111600020BE
:104CD00030BD491C8142F1D3052030BDD8170020DA
:104CE000F8B50E46017814460546012901D16878C9
:104CF00030B12088821C9A422DD8012902D006E0CA
:104D00000720F8BD69780144891C994223D8181AF4
:104D1000801E87B2ADF800702188B01C0844694637
:104D20007DDF0028EDD12878022805D1BDF80010DC
:104D3000B94201D809210AE00821012805D1687883
:104D4000B84202D8ADF8000001E0ADF80070BDF83F
:104D50000000FE2801D90C20F8BD2288401CB05468
:104D60002088401C80B2208031542088401C208044
:104D7000BDF80010084420800020F8BD08B50121CE
:104D80006A46FEF7A1FA009808BD38B5044600252A
:104D90008DF800506846FEF7B9FF21686268086820
:104DA00090420ED9401E08600178238AE26801FB18
:104DB0000325227A2168101AC0B20A79824200D2F1
:104DC00008719DF80000FEF7C5FF284638BD38B5CC
:104DD000054600208DF800000C466846FEF796FF59
:104DE000E868298A201AB0FBF1F12A681068431C90
:104DF000136001709DF80000FEF7ACFF38BD10B5E0
:104E000030B1017A42680368891AC9B21A6006E0B3
:104E10000E2010BD03681A68541C1C601170491ED6
:104E2000C9B2F7D2006800210171084610BDC2085E
:104E300000F007030120895C98400840704700F1AA
:104E400080400068002800D00120704708B500F1BC
:104E50008040002101600068009008BD00283ED01D
:104E60001F49204A096800BF00BF00BF00BF00BF44
:104E700000BF00BF00BF91422FD000BF00BF00BFE6
:104E800000BF00BF00BF00BF00BF00BF00BF00BF2A
:104E900000BF00BF00BF00BF00BF00BF00BF00BF1A
:104EA00000BF00BF00BF00BF00BF00BF00BF00BF0A
:104EB00000BF00BF00BF00BF00BF00BF00BF00BFFA
:104EC00000BF00BF00BF00BF00BF00BF00BF00BFEA
:104ED00000BF00BF00BF00BF00BF0138C3D1704793
:104EE000D41700200024F40070B50F4C0025207862
:104EF00008B1852516E00021A16061602161E160B3
:104F00004FF0E020D0F80001012610F0010F03D18E
:104F10000721002000F02DF801F08CF808B90348B3
:104F200006602670284670BDC01800201805004095
:104F300008B500208DF800006846FEF7E7FE064839
:104F4000C168491EC160C06808B9FFF70DFD9DF832
:104F50000000FEF7FFFE08BDC018002000F01F0291
:104F6000012191404009800000F1E020C0F880114B
:104F700070474907090E002806DA00F00F0202F117
:104F8000E02282F8141D03E000F1E02282F8001410
:104F900000F01F02012191404009800000F1E02053
:104FA000C0F88012C0F800117047000B40B2704783
:104FB0002DE9F0418846054601F0CAF8234E002845
:104FC00028461AD0FFF7ECFA304490F848008009E0
:104FD000032802D001280ED007E04FF0A040D0F8FF
:104FE0001005E84010F0010F05D003212846BDE868
:104FF000F04100F01DBB0221F8E701F0B5F80028F0
:1050000022D02846FFF7CCFA04464FF4807000EB1C
:1050100084000F4F81B207EB8400D0F8102542F0D6
:105020000102C0F81025084600F032FBB8F1000F6D
:105030000AD02846FFF7B4FA56F82000002803D01B
:105040000120A040C7F80403BDE8F081D418002077
:10505000006000402DE9FC41DFF8A480044608EB25
:105060000400002790F930001346C0170E46401C7C
:1050700001D0082741E0F27819462046FFF76CFA84
:105080000546401C38D0B07850B14FF0A04000EB3E
:105090008400D0F8001721F00201C0F8001707E0E3
:1050A00000217378204600910A46019100F080FAB1
:1050B000F078C0B11348317800EB8500D0F81025A6
:1050C000114B1A40C0F810254FF4F8524FF44033FA
:1050D00002EA042203EA01410A43D0F810150A4308
:1050E000C0F8102509E008EB0500327810F8481FD9
:1050F00041EA8211017000E004273846BDE8FC81D6
:10510000D418002000600040FFE0FCFF4FF0A041F9
:10511000D1F81015C14011F0010000D001207047F6
:1051200070B5144D95F8540008B1082070BD0020EA
:10513000411E2A18401CC0B282F830102028F8D333
:1051400000242046FFF7FAF9641CE4B20C2CF8D3D3
:1051500007210620FFF70DFF4FF4BE7000F098FA0C
:1051600005494FF00040C1F80403012085F85400C0
:10517000002070BDD418002000600040034890F863
:105180005400002800D0012070470000D4180020EF
:105190000121B1EB507F01D1012070470020704701
:1051A0002DE9F04105460079164F904607EB401473
:1051B0000E46E07E10B10820BDE8F081707F2077B8
:1051C0002846FEF7E1FD5FEA080060603169216072
:1051D00003D0317F2846FFF769FB287907EB4010A1
:1051E000007F0028286801D0082100E00421C0F8D1
:1051F00000150020E0752076A0750121E176A076EB
:10520000DAE700002C1900202DE9F0470546007967
:105210003F4E904606EB40140F46207F18B10846DB
:10522000FFF7B6FF30B1284600F074F820B1112026
:10523000BDE8F0871020FBE784F81680A760002700
:10524000A78228794FF0010806EB40143E46207FE4
:105250000028286825D04FF49079494600F072FF65
:105260004FF4AC7A5146286800F06CFF2868A17DA5
:10527000A268C0F84425C0F848152868C0F808801E
:105280006068F0B94946286800F057FF80465146EB
:10529000286800F052FF58EA0001F3D058BBA77508
:1052A0000FE04FF48E7A514600F03BFF2868C0F8BB
:1052B00008802146286801F061FA61684FF4807027
:1052C00089B13046B4E75146286800F025FF10B98F
:1052D000A08A4845F7D1A08A484505D021462868CC
:1052E00001F04CFA00E08146A08AA17D8842EAD311
:1052F000A08A484501D10F26D1E75146286800F021
:105300000BFF0028F9D02868C0F80C80C7E7000020
:105310002C1900200079044901EB4010807D002801
:1053200000D00120704700002C19002070B5044601
:1053300000791149002601EB401520682A7FC0F84A
:105340000065686888B1207901EB4010007F002873
:10535000206801D0094901E008498C39C0F80813D8
:105360002068FFF722FEFFF7F9FD204600F008FF56
:10537000EE766E6070BD00002C1900201003020054
:105380000FB408B50399002904D004AA00926A4614
:1053900000F00FF801B05DF814FB10B58268044608
:1053A000002A05D0D4E90403216898470020A060B2
:1053B00010BD2DE9FC4791460C00804676D014F8CC
:1053C000011B39B125290ED04046FFF799F8207806
:1053D0000028F4D198F80C00002867D04046BDE8BA
:1053E000FC47FFF7DABF0020012221782B291BD0D0
:1053F0002D2902D0302908D102E040F0010001E05F
:1054000040F00200641C002AEFD100252A290ED0AA
:105410002178A1F130020A2A11D205EB850201EBB5
:105420004205641C303DF1E740F00400EAE7D9F89A
:1054300000100B1DC9F800300968641C0D44217868
:1054400000232E290BD114F8011FA1F130020A2AE2
:1054500005D203EB830201EB4203303BF3E76C29F7
:105460000DD068290BD0692921D00BDC252918D053
:10547000582931D063290ED0642915D117E014F8CA
:10548000011FECE7702969D0732932D075291BD030
:10549000782909D120E0D9F80000011DC9F80010D1
:1054A00001784046FFF72CF8641C90E76CE0D9F8CF
:1054B00000100A1DC9F800200968CDE900500A2231
:1054C0004046FFF79FF9EFE7D9F800100A1DC9F829
:1054D000002009680A2206E0D9F800100A1DC9F860
:1054E000002009681022CDE90050404601F09EFAE4
:1054F000DAE7D9F8001000270A1DC9F800200E6865
:10550000C00705D112E04046761C7F1CFEF7F8FF6D
:1055100031780029F7D104E0202140466D1EFEF7C6
:10552000EFFFBD42C0D9002DF6D1BDE74EB13046E8
:10553000FDF778FF074604E0202140466D1EFEF788
:10554000DFFFBD4206D9002DF6D103E04046761CB0
:10555000FEF7D6FF31780029F8D1A5E7D9F8000089
:10556000011DC9F80010056830214046FEF7C8FF4C
:1055700078214046FEF7C4FF08200021CDE9000154
:10558000034610222946B0E7BDE8FC8770B541EA22
:105590004201DDE904564FF0A04441EA830141EAAB
:1055A000052104EB800041EA0641C0F8001770BDF8
:1055B00070B541EA4201DDE904564FF0A04441EAEA
:1055C000830141EA052104EB800041EA0641C0F86D
:1055D000001770BD70B541EA4201DDE904564FF095
:1055E000A04441EA830141EA052104EB800041EA3D
:1055F0000641C0F8001770BD1CB5002100910B4694
:1056000001220191FFF7E6FF1CBD1CB500220B46ED
:10561000009211460192FFF7DDFF1CBD1CB5002171
:1056200000910B46012201911146FFF7D3FF1CBDEB
:105630004FF0A04202EB8000D0F8002722F4403265
:10564000C0F80027D0F8002742EA0141C0F800174F
:10565000704701224FF0A043824011B1C3F80825E2
:105660007047C3F80C25704718B5084B6C460144C9
:105670001B68009306E000BF54F82030D3F81035C3
:10568000401C08C28142F7D818BD0000146C02000B
:10569000034908B50844002101600068009008BD76
:1056A0000060004002494058012800D000207047A7
:1056B0000060004030B5124B01460020D3F8104482
:1056C000224609E0157A854205D1401C0A28F7DBFD
:1056D0004FF0FF3030BD5268002AF3D1421CF9D0A0
:1056E0000872D3F810242AB152684A60D3F8102403
:1056F000516030BD0022C3F810144A6030BD000074
:10570000841B0020F0B595B01C4615460F46084690
:105710001A9E00F003FB182109A8FDF778FE0E96EB
:10572000CDE909540023082203A9384600F010FBF4
:10573000059806900498ADF81C0000208DF8200014
:105740000398082600F00300012802D002281DD08B
:105750003CE003983346850AC0F3C2008DF81E0072
:1057600003980FA9C0F380008DF81F000398C0F3C1
:105770008314A200384600F0EBFA09A8009006ABAB
:1057800022460FA9284600F025FA1FE00398840D51
:10579000C0F3C2008DF81E000398C0F380008DF89E
:1057A0001F00082C01D2254600E0082533462A4672
:1057B0000FA9384600F0CCFA2E44641B09AB06AAA8
:1057C00029460FA800F056F9002CEAD1384600F01F
:1057D000AEFA15B0F0BD7047012000F0F3BF000035
:1057E00010B50448FFF7A2FDBDE81040002000F00E
:1057F000E9BF00007417002008B5034A0092402357
:10580000024AFFF77FFF08BD09640200841A0020E6
:105810000A4A012902EBC00007D0022907D0032958
:1058200007D0042907D000207047022070470420C9
:105830007047007970474079704700000874020093
:1058400010B5FFF7C9FF04210348FFF733FF0249F2
:105850000120487210BD00007C1700202DE9F04F98
:105860008DB0FEF75DFE18B100200DB0BDE8F08FE1
:1058700074480021C0F81814BFF34F8FD0E90146D7
:1058800004EA060100EB81014FF000090AE000BFC5
:10589000C1F3891202EB9151641C0C4404EA060125
:1058A00000EB8101C9688A07F2D0002103AA804673
:1058B00004EA060008EB8000641CC06842F821007E
:1058C000491C43460229F3D3039800F00300022841
:1058D00006D0012803984FD0C04380077ED0ACE0AB
:1058E00003985022810D8A46B2EB905F00D8502178
:1058F0000D4665F39F5003900831534800F0C5F9F9
:1059000007006CD000F00AFA4B46082203A938467B
:1059100000F024FA04EA0601701A8000001D09F163
:10592000080B854221D9474E0C3630B1C2B208EB84
:105930008101281A91460C3104E03146EAB2002672
:1059400091463046C5B25B46384600F007FA0BEB8D
:1059500009032EB12A4631464FEA070000F0FEF94E
:105960000AF1030004EB90043BE008EB81015B4685
:105970002A4638460C31F1E7C0F38310062800D3DD
:105980000620039960F38911C1F38310801C0391F1
:1059900081002D4800F079F907004ED000F0BEF9E3
:1059A0004B46082203A9384600F0D8F909F1080946
:1059B00000250DE004EA060008EB80014B460422B6
:1059C00038460C31641C00F0C9F909F104096D1C5A
:1059D0000398C0F38310A842ECD801E00BE02CE060
:1059E0005FB3D8F81054D8F81804464690B138463A
:1059F00000F09DF921E0D3F8180400283FF435AFFA
:105A00001BE0687A012804D1296828460A683946CB
:105A100090476D68002DF4D1384600F088F90020D9
:105A20008DF800006846FEF771F9D6F8180400B941
:105A300074609DF80000FEF78DF9FEF771FD80F0AF
:105A4000010012E7841B0020606D020000231A464B
:105A500000F060BD08B5012300926A4600F05AFDCF
:105A600008BD1CB5CDE9002302236A4600F052FDB3
:105A70001CBD00002DE9F0470E4680461C469246AC
:105A800008293ED894F80C9000202073194610463F
:105A900000F0D0FB0025B54206D218F805201AA167
:105AA0002046FFF76DFC03E019A12046FFF768FCD4
:105AB0006D1C082DEFD317A12046FFF761FC0025D0
:105AC000B54210D218F80570FDF784FC0068C05D7F
:105AD00010F03E0F01D03A4600E02E220EA12046E3
:105AE000FFF74EFC03E00DA12046FFF749FC6D1CBB
:105AF000082DE5D301222146504600F07DFB84F8B5
:105B00000C90BDE8F08700002025303278000000BE
:105B1000202020007C000000256300002000000001
:105B2000114810B5FF218160002101604160C0F87B
:105B30001814C0F8141480F81C140C4800F0F5F880
:105B400000280FD10A480B490B4B401AC10800200E
:105B500005E000BF00EB400223F82200401C884211
:105B6000F8D3002010BD0000841B0020606D0200EF
:105B70005074020008740200D8170020024803493C
:105B8000401AC008704700005074020008740200F8
:105B900013B56846FFF78AF808B100201CBD02481B
:105BA000009950F831001CBD0874020070B5084817
:105BB0000125D0F8104480F81C5405E06572216876
:105BC0002046496888476468002CF7D170BD000002
:105BD000841B00202DE9FF4781460C9D00200C46C8
:105BE0002F7B2873984616462946184600F022FB5C
:105BF000072E42D2DFE806F004090F161F2A3600EE
:105C000049462846FFF7BCFB37E04946284622684C
:105C1000FFF7B6FB31E0D4E9002349462846FFF7F9
:105C2000AFFB2AE0A0680090D4E90023494628464B
:105C3000FFF7A6FB21E0D4E90201CDE90001D4E998
:105C4000002349462846FFF79BFB16E004F10800B5
:105C500007C88DE80700D4E9002349462846FFF726
:105C60008FFB0AE004F108000FC88DE80F00D4E9AB
:105C7000002349462846FFF783FB00222946404679
:105C800000F0BAFA2F73BDE8FF872DE9F041058ACD
:105C900080462D1F4819C01CB0FBF5F0C6B2404627
:105CA000FFF773F8041E19D00020207101206071E5
:105CB000E58000272546761EC4F800800BE04046AC
:105CC000FFF763F860B16179491C6171286005468E
:105CD0007F1CC0F80080B742F1D32046BDE8F081B8
:105CE000204600F002F80020F8E72DE9F041457960
:105CF00001466B1E002201E00968521C9A42FBD348
:105D00000F680146002605E038460C68FFF75FF88B
:105D10002146761CAE42F7D3BDE8F08108B50121DB
:105D20006A46001DFDF7A9FA08BDFFF768B838B547
:105D30000446001D01216A46FDF7ACFA009810F0F8
:105D4000FF0F04D12046BDE83840FFF7CEBF38BD75
:105D500038B501240094FEF76DFF38BD38B5002436
:105D60000094FEF767FF38BD20B103490968016060
:105D7000002070470E207047EC6D0200FEB5024611
:105D80000D460846FFF7F0FF00286AD10024009472
:105D90000194012603208DF80020ADF80400029440
:105DA0008DF80260694620202A6869DF2D4F40B1D6
:105DB00000F0A8F9024638882B4906EB0040FFF7AF
:105DC00049FE00948DF800408DF801400194029442
:105DD0008DF80240694640202A6869DF40B100F032
:105DE00091F902463888214906EB0040FFF732FE60
:105DF0000094019402948DF80040694601202A68BD
:105E000069DF40B100F07EF902463888184906EB98
:105E10000040FFF71FFEF8200090019402946946AD
:105E2000A1202A6869DF40B100F06CF90246388889
:105E3000104906EB0040FFF70DFE00940194029418
:105E40008DF800406946A0202A6869DF40B100F063
:105E500059F902463888084906EB0040FFF7FAFD79
:105E60000020FEBD2C180020047302004C730200B9
:105E700064720200B0720200107202002DE9F0415B
:105E80000446D0F800E060DF2368144D06467345F1
:105E900015D02888022707EB0040724610A1FFF7B3
:105EA000E0FDF806D0F80C012168800200F10050F6
:105EB000421A288816A107EB0040FFF7CBFD56B128
:105EC000304600F01FF902462888012101EB00400E
:105ED00018A1FFF7BFFD3046BDE8F0812C18002067
:105EE00052414D2073746172747320617420307854
:105EF00025782C2063616E2062652061646A757369
:105F000074656420746F20307825782E00000000BE
:105F100052414D2073697A652063616E206265206D
:105F200061646A757374656420746F2030782578B5
:105F30002E00000073645F626C655F656E61626C69
:105F40006528292072657475726E65642025732E2C
:105F50000000000030B593B05FF03805ADF8445054
:105F600011A903A861DF30B1052816D013B0BDE830
:105F70003040FDF72FBE03AC0949684600F07EF8BB
:105F800007E000BFD0E9002120469047684600F0B6
:105F90008CF802980028E1D0F4E713B030BD00007F
:105FA000F06D020038B5174C207808B1082038BDD4
:105FB0000125A570002000F0F9F9112820D000205B
:105FC00000F00CFA1048114900680090684610DF94
:105FD0000028ECD12570A07060700721162000F019
:105FE0009AF908B1FDF7F6FD0721152000F093F9A5
:105FF00008B1FDF7EFFD00F065FA012000F0EEF9C1
:10600000002038BDD0170020846D02005D3B0200E7
:106010000EB50749684600F031F805E0D0E90010F8
:106020008847684600F041F802980028F6D10EBD76
:10603000A06D02000148007870470000D0170020D2
:106040001FB5684648DF30B1052814D004B0BDE85C
:106050001040FDF7BFBD084901A800F00FF806E0A9
:10606000D0E900210098904701A800F01EF803989D
:106070000028E6D0F4E71FBD0C6E0200016009683D
:106080004160AFF3008010B5D0E900215368994218
:1060900001D1002104E0D1E90034A34202D0194625
:1060A000816010BD08314160F0E7816800290BD0A4
:1060B000026892680A44826041684B689A4203D140
:1060C00008314160FFF7DFBF704700000C4A10B590
:1060D00002F1F0030EE0991AC91001EBD1714910D9
:1060E00002EBC1010C68844201D90B4602E005D2E3
:1060F00001F108029A42EED3002010BD486810BD9D
:10610000446C020000B5FFF7E1FF002800D1014810
:1061100000BD0000306C02004058002800D0012073
:10612000704708B5002242504058009008BDD0F892
:106130000403084000D0012070474058002800D0D8
:106140000120704708B5002242504058009008BD19
:106150000449084490F93000082801DB0120704709
:1061600000207047D41800200449084490F93000FA
:10617000082801D20120704700207047D418002061
:1061800070B5034600791B4901EB40101968027F86
:106190004FF0FF30002AD1F80C25D1F81465D1F862
:1061A0000855D1F8104504D0C1F80C05C1F8140504
:1061B00003E0C1F81405C1F80C051968C1F8080519
:1061C000C1F81005501C02D01046FFF715FA701CDC
:1061D00002D03046FFF710FA601C02D02046FFF7CD
:1061E0000BFA681C04D02846BDE87040FFF704BADB
:1061F00070BD00002C19002010B50C46C17949B1C2
:106200001AB109A12046FFF7BBF82046BDE81040AF
:10621000FFF7C3B8007A0028F3D0044804A102684D
:106220002046FFF7ADF8ECE70D0A0000AC170020A0
:106230002573000070B50446C0790D4600281CD1B6
:10624000207A50B1A179A088FFF7E2FA0B4951F802
:1062500020200BA12846FFF793F8A0880021FFF724
:1062600097FC03460549A079143951F820202846A7
:10627000BDE8704003A1FFF783B870BDAC170020E4
:10628000257300003C25733E2025733A2000000052
:1062900070B5012670044FF0E0210025C1F880019F
:1062A000084C4010C4F84803C4F8080366602F2067
:1062B000FEF7D4FDA660044C2F20A560FEF7CEFDAE
:1062C000A57070BD001001405C17002070B5054638
:1062D000C87D0C4600284FF4847128460AD0FFF789
:1062E00020FFD5F81805627EE1688854607E401C66
:1062F000607670BDFFF715FFD5F8180570BD1FB5A6
:1063000001238DF800308DF808100192D0E90012B9
:10631000684690471FBD70B50D460446FDF784FBE7
:1063200070B12846FDF792FB68B16807000E002C9B
:106330000CDA04F00F0101F1E02181F8140D09E0FD
:1063400042F2010070BD42F2020070BD04F1E0248F
:1063500084F80004002070BD38B50021012558B133
:1063600001280ED003280BD107210020FEF701FEE3
:10637000BDE83840FEF7DCBD4FF0E020C0F88051AA
:1063800038BD8DF800106846FDF7C0FC064C20783B
:1063900008B9FEF7A9FDE068401CE060A5709DF813
:1063A0000000FDF7D7FC38BDC01800203EB50446FC
:1063B00009496846FFF762FE08E000BFD0E9002106
:1063C0002046904730B16846FFF76FFE02980028DC
:1063D000F4D13EBD11203EBD886D02003EB504469D
:1063E00008496846FFF74AFE07E000BFD0E90021F0
:1063F000204690476846FFF758FE02980028F5D1DE
:106400003EBD0000946D020010B5084C0020D2B2D1
:106410002070201DFEF7F8FE08B1FDF7DBFB607869
:10642000002802D021780029FAD010BD7017002072
:106430002DE9F0410746806A14468846C8B3002516
:1064400031E000BFB96A05EB450001EB8006B0887A
:10645000801CFE2802D90C20BDE8F0812288401C57
:1064600008F8020020881622401C80B2208008F81C
:1064700000202088401C80B2208000EB080130887A
:1064800000F0CFFA2188084480B22080B28842B15F
:10649000B16871B14044FCF7A1FF2088B18808447D
:1064A00020806D1CEDB297F82C00A842CAD80020BD
:1064B000D2E7FFE70720CFE7002801D1FEF778B841
:1064C0007047000010B51620FDF7AEFA80B10F48F6
:1064D00090F800044009FDF7B9FA60B10C488268F1
:1064E0004FF480016AB1016841F48001016010BD80
:1064F00042F2010001E042F20200BDE81040FDF767
:1065000069BB4FF0E020C0F8001110BD16E000E0BC
:10651000781A00202DE9F843214C8846054691461B
:106520001F4669461846A668FDF7B8FF70B3009885
:10653000811C00220AE000BF01EA060C59F8223053
:1065400004EB8C0C491C521CCCF80C30BA42F3D32F
:106550000246401C304004EB80002B0CC36002EA72
:10656000060004EB8002E80652F80C0F02D540F05A
:10657000040001E020F0040065F3C50067F3891012
:1065800068F39F2020F00300401C106094F81C0466
:1065900002E000BFFFF762F90028FBD1BDE8F883F5
:1065A000841B00202DE9F84F1D4C00256846D4E9D6
:1065B00001A6FEF7DBF8002738B30023009A6168D4
:1065C0001CE0D1F800C00846944503D9ACEB0202A8
:1065D0000A6015E0A2EB0C0263440760D0F80CC01F
:1065E000C1698146BCF1000F08D006EB030828F012
:1065F0007F48C0E9018CC9F81C5005460029E0D14C
:1066000028466160FEF7C4F903E02846FEF7C0F9AA
:1066100010B15046FDF7E0FFE770BDE8F88F0000CD
:106620005C1700200D4B10B5596831B102680C6839
:10663000A24204D8A21A0A60C161586010BD0B467C
:1066400003E00B46C969121B21B10C689442F8D3D0
:10665000A41A0C600260C161D86110BD5C170020F3
:106660002DE9F041144E77683D462C4603E0844204
:1066700004D02546E469002CF9D11BE0D4B1A54231
:106680000BD1F869706040B90C4901208860002185
:10669000B160F0702F20FEF7E1FB2168E069E8614E
:1066A00010B10268114401607068874202D0012075
:1066B000BDE8F0810020FBE75C17002000100140DE
:1066C0007CB5064600240D468DF800406846FDF76F
:1066D0001DFB01A800F004FA70B10570094946607D
:1066E0009DF8040048709DF80000FDF733FB14206E
:1066F000FCF7A0FF20467CBD04249DF80000FDF7B8
:1067000029FBF7E76C1900202DE9F041194D6C6861
:10671000002C2CD0184800270068A968B846401AF9
:1067200020F07F462068B0420CD82146361A074434
:10673000E469087C20B181F810808869496988473C
:10674000002CEFD129786878814206D1401CC0B274
:106750006870022801D185F80180064869780C30FC
:1067600040F82170BDE8F0411420FCF763BFBDE89C
:10677000F08100005C1700200415014070B50C4644
:1067800005464FF48E71FFF7CCFCA18AA068415CEE
:10679000A08A401CA082C5F81C1570BD1FB5002240
:1067A0008DF800208DF80810816801918275D0E97C
:1067B0000012684690471FBD0149012008707047CC
:1067C0007017002010B588B0044620220E49684694
:1067D000FCF704FE06200090C01F01900290039079
:1067E0004FF0EB7006900CB1084A00E000226946B9
:1067F0000748FEF7D5FC08B1FDF7ECF90448001F87
:10680000447008B010BD0000406D0200B96702007E
:10681000741700202DE9FF470C4605464FF4007120
:10682000FFF785FC01274FF40178002618B34FF4D9
:10683000927949462846FFF76FFCE0B14946284661
:10684000FFF76FFCC5F80883A07E00B96F600220D7
:106850008DF80000D5F88004C5F880040390E07D31
:106860008DF80800E0680190E6752676D4E90012FC
:106870006846904727E004212846FFF758FC10B3EC
:106880004FF484712846FFF747FCE0B121462846C3
:10689000FFF71CFDE07D617E884214D1207E38B177
:1068A000617EE268E0752069E0602676667607E042
:1068B000A07E00B96F60C5F80883E675617EE26866
:1068C0002046FFF71CFD4FF48E7841462846FFF71F
:1068D00023FC88B1A08AA17D884204D221462846A3
:1068E000FFF74CFF08E041462846FFF71AFCA17D60
:1068F00011B12046FFF752FF4FF4A27841462846D7
:10690000FFF70AFC002812D041462846FFF709FC91
:10691000A07E00B12F60E07D002808D0E675617E82
:10692000E26804B02046BDE8F047FFF7E8BCBDE8E8
:10693000FF872DE9FF410C464FF492770546394613
:10694000FFF7FBFB0026C0B139462846FFF7FAFBEC
:1069500002208DF80000D5F88004C5F8800403906B
:10696000D5F83C058DF80800E0680190E6752676BC
:10697000D4E900126846904724E04FF488773946FE
:106980002846FFF7DAFBE8B139462846FFF7DAFB7D
:10699000D5F83C05C1B2E07D884213D1207E60B1BC
:1069A000E268D5F8000220F02000C5F80002207E41
:1069B000E0752069E060267601E0E675E268204631
:1069C000FFF79DFC4FF4A27739462846FFF7B5FB49
:1069D00068B139462846FFF7B5FBE07D38B1E6756A
:1069E000D5F83C05E268C1B22046FFF788FC4FF4B9
:1069F000907631462846FFF7A0FB00280FD031469D
:106A00002846FFF79FFBA07D002808D0D5F84C054D
:106A100004B0C1B22046BDE8F041FFF7BFBEBDE8FB
:106A2000FF810870000A4870022070472DE9F05F6E
:106A30008346DDE90A4A994690460D4608460127F5
:106A400003E000BFB0FBF8F07F1C4045FAD2B94527
:106A500000D94F465FEACA7012D18CB15FEA8A70E2
:106A600002D5B9F1000F01D0202607E0302605E05D
:106A700031465846641EFDF743FD0CB1A742F7D3DB
:106A80005FF00106B9F1010F02D9A9F1010903E094
:106A9000B5FBF6F0404502D306FB08F6F2E7DFF857
:106AA0003C9000BFB5FBF6F000FB165519F800103E
:106AB0005846FDF725FDB6FBF8F6002EF2D15FEA49
:106AC000CA7009D0002C07D0A74205D22021584611
:106AD000641EFDF715FDF5E7BDE8F09F206C020090
:106AE0000A494A788B78521CD2B2934200D10022D4
:106AF0000B78934201D1002070470270487800EB78
:106B0000400001EBC000001D704700006C19002020
:106B10002DE9FC411646DDE90854CDE900541F4635
:106B20008046022200F00CF8002807D1CDE900547D
:106B30003B4610223146404600F002F8BDE8FC8199
:106B40002DE9FC5F0026DDE90C4B994692468E4606
:106B500080462788354630E0D8F80400002200EB54
:106B6000850069460068019001A864DF002830D1E3
:106B70009DF8000050451FD10EB1002100E0022118
:106B8000228808441118594522D846B9521C90B29F
:106B9000208009F800E02088401C20800126218800
:106BA00001A801EB0902694664DF002811D12088A1
:106BB0009DF80010084420806D1CB8F80000A84221
:106BC000CADC56B12088C01B401E80B2FF2802D903
:106BD0000C20BDE8FC9F09F807000020F9E711121E
:106BE00013140D0E0F10000054180020741800200C
:106BF000A01800200D000300654102000E000300F4
:106C0000654102000F00030065410200100003000F
:106C100065410200000000504C19002003000000F4
:106C200030313233343536373839414243444546C2
:106C3000556E6B6E6F776E206572726F7220636F28
:106C4000646500000000000078710200010000008F
:106C50003870020002000000B86E0200030000005D
:106C6000AC7002000400000000710200050000008A
:106C7000F86F020006000000986F02000700000095
:106C8000E8700200080000000C700200090000001B
:106C9000587002000A000000607102000B00000042
:106CA000A06E02000C000000247002000D00000025
:106CB000847102000E000000D87002000F00000076
:106CC0001471020010000000487102001100000061
:106CD0009871020080000000D86F0200810000005F
:106CE0005C6F0200820000001C6F02008300000045
:106CF000FC6E020084000000386F02008500000076
:106D0000B06F020086000000C0700200900000001A
:106D1000786F020091000000DC6E0200008200002B
:106D200028710200018200007470020002820000DB
:106D300090700200F9570200E1570200D757020095
:106D4000FFFFFFFFFFFFFFFFFFFFFFFFFFFFFFFF53
:106D500000000000000000000000D6010701000054
:106D6000901700208817002090170020C41A0020D8
:106D700018000000000000000000000000000000FB
:106D80000000000001000007746D0200846D020025
:106D900008000000AC6D0200BC6D0200080000009D
:106DA000BC6D0200CC6D0200080000006874020097
:106DB000707402000000000000000000587402001F
:106DC00068740200000000000000000000000000E5
:106DD00000000000000000000000000000000000B3
:106DE000000000000000000000000000201700204C
:106DF000CC6D0200EC6D020008000000507402002F
:106E0000587402000000000000000000FC6D020049
:106E10000C6E02000800000000404040404040402E
:106E2000404041414141414040404040404040405D
:106E30004040404040404040400502020202020201
:106E40000202020202020202022020202020202050
:106E50002020200202020202020290909090909064
:106E60001010101010101010101010101010101022
:106E70001010101002020202020288888888888896
:106E80000808080808080808080808080808080882
:106E9000080808080202020240000000196E020001
:106EA0004E52465F4552524F525F494E56414C49F1
:106EB000445F4441544100004E52465F4552524F98
:106EC000525F534F46544445564943455F4E4F54D5
:106ED0005F454E41424C4544000000004E52465F23
:106EE0004552524F525F464541545552455F4E4FB1
:106EF000545F454E41424C45440000004E52465FAF
:106F00004552524F525F4D555445585F554E4C4F68
:106F1000434B5F4641494C45440000004E52465F9A
:106F20004552524F525F4D555445585F4C4F434B5D
:106F30005F4641494C4544004E52465F4552524FD0
:106F4000525F4D555445585F434F4E445F494E493B
:106F5000545F4641494C4544000000004E52465F94
:106F60004552524F525F4D555445585F494E495412
:106F70005F4641494C4544004E52465F4552524F90
:106F8000525F4150495F4E4F545F494D504C454D03
:106F9000454E5445440000004E52465F4552524F04
:106FA000525F4E4F545F535550504F52544544001A
:106FB0004E52465F4552524F525F4D4F44554C45DD
:106FC0005F414C52454144595F494E495449414CF7
:106FD000495A4544000000004E52465F4552524F08
:106FE000525F4D4F44554C455F4E4F545F494E499B
:106FF0005449414C5A4544004E52465F4552524F07
:10700000525F4E4F545F464F554E44004E52465FBE
:107010004552524F525F494E56414C49445F53547A
:10702000415445004E52465F4552524F525F4441D3
:1070300054415F53495A45004E52465F4552524FA4
:10704000525F5356435F48414E444C45525F4D4951
:107050005353494E470000004E52465F4552524F2F
:10706000525F494E56414C49445F4C454E47544847
:10707000000000004E52465F4552524F525F44524C
:10708000565F5457495F4552525F414E41434B0052
:107090004E52465F4552524F525F4452565F5457CC
:1070A000495F4552525F444E41434B004E52465F4A
:1070B0004552524F525F494E5445524E414C00008A
:1070C0004E52465F4552524F525F53544F524147C2
:1070D000455F46554C4C00004E52465F4552524F5C
:1070E000525F4E554C4C00004E52465F4552524F37
:1070F000525F494E56414C49445F504152414D0008
:107100004E52465F4552524F525F4E4F5F4D454D76
:10711000000000004E52465F4552524F525F464FAC
:107120005242494444454E004E52465F4552524FEA
:10713000525F4452565F5457495F4552525F4F5613
:10714000455252554E0000004E52465F4552524F36
:10715000525F494E56414C49445F414444520000FD
:107160004E52465F4552524F525F494E56414C492E
:10717000445F464C414753004E52465F535543438C
:10718000455353004E52465F4552524F525F544949
:107190004D454F55540000004E52465F4552524FE8
:1071A000525F4255535900007761726E696E6700F5
:1071B00064656275670000001B5B313B33306D0016
:1071C0001B5B306D000000001B5B313B33316D00F9
:1071D0001B5B313B33326D001B5B313B33336D0046
:1071E0001B5B313B33346D001B5B313B33356D0032
:1071F0001B5B313B33366D001B5B313B33376D001E
:10720000696E666F000000006572726F72000000A8
:1072100073645F626C655F6366675F73657428297A
:107220002072657475726E656420257320776865B9
:107230006E20617474656D7074696E6720746F2060
:1072400073657420424C455F47415454535F434635
:10725000475F534552564943455F4348414E474572
:10726000442E000073645F626C655F6366675F73E2
:10727000657428292072657475726E6564202573A3
:10728000207768656E20617474656D7074696E67CF
:1072900020746F2073657420424C455F434F4D4D01
:1072A0004F4E5F4346475F56535F555549442E0046
:1072B00073645F626C655F6366675F7365742829DA
:1072C0002072657475726E65642025732077686519
:1072D0006E20617474656D7074696E6720746F20C0
:1072E00073657420424C455F47415454535F434695
:1072F000475F415454525F5441425F53495A452EAF
:107300000000000073645F626C655F6366675F73B3
:10731000657428292072657475726E656420257302
:10732000207768656E20617474656D7074696E672E
:1073300020746F2073657420424C455F434F4E4E5E
:107340005F4346475F4741502E00000073645F6211
:107350006C655F6366675F73657428292072657466
:1073600075726E6564202573207768656E20617480
:1073700074656D7074696E6720746F207365742016
:10738000424C455F4741505F4346475F524F4C4533
:107390005F434F554E542E00636C6F636B000000CB
:1073A0006770696F74650000756172740000000099
:1073B00062616C6C6F6300007077725F6D676D74F3
:1073C00000000000617070006E72665F7364680098
:1073D0006E72665F7364685F626C65006E72665F92
:1073E0007364685F736F630070740200201700207D
:1073F00024010000083A020094750200441800209D
:1074000064270000183A0200987302000000000090
:10741000A073020000000000A8730200000000003A
:10742000B073020000000000B8730200000000000A
:10743000C473020000000300C873020000000300D0
:10744000D073020000000300DC73020000000300A0
:10745000B964020000000000555F02000000000057
:1074600041600200000000005963020000000000BB
:1074700002150112233445566778899AABBCCDDEDC
:10748000EFF001020304C300000000000000000050
:1074900000000000000000000000000000000000EC
:1074A00000000000000000000000000000000000DC
:1074B00000000000000000000000000000000000CC
:1074C000000000000020004000000000346D0200B9
:1074D00000000000000000000000000000000000AC
:1074E0000000000000000000000000000872020020
:1074F000A871020000720200B0710200C0710200A7
:10750000B8710200C8710200D0710200D871020087
:10751000E0710200E8710200F0710200F8710200EF
:10752000000000000090D0030000000000000000F8
:10753000000000000000000000000000000000004B
:10754000000000000000000000000000000000003B
:10755000000000000000000000000000000000002B
:10756000000000000000000000000000000000001B
:10757000000000000000000000000000000000000B
:1075800000000000000000000000000000000000FB
:0475900000000000F7
:0400000500023201C2
:00000001FF
