:020000040002F8
:10200000E85D0020E9230200F1230200F32302002F
:10201000F5230200F7230200F9230200000000006C
:10202000000000000000000000000000FB23020090
:10203000FD23020000000000FF2302000124020033
:10204000C527020003240200B12A02000324020073
:1020500003240200032402009D2502000324020041
:1020600003240200032402000324020003240200CC
:1020700003240200032402000324020003240200BC
:10208000032402001D28020003240200032402008E
:10209000A128020003240200A52802000324020054
:1020A000032402000324020003240200032402008C
:1020B00003240200032402000000000000000000CE
:1020C000032402000324020003240200032402006C
:1020D000032402000324020003240200032402005C
:1020E0000324020003240200032402000000000075
:1020F000000000000324020000000000032402008E
:1021000000000000000000000000000000000000CF
:1021100000000000000000000000000000000000BF
:1021200000000000000000000000000000000000AF
:10213000000000000000000000000000000000009F
:10214000000000000000000000000000000000008F
:10215000000000000000000000000000000000007F
:10216000000000000000000000000000000000006F
:10217000000000000000000000000000000000005F
:10218000000000000000000000000000000000004F
:10219000000000000000000000000000000000003F
:1021A000000000000000000000000000000000002F
:1021B000000000000000000000000000000000001F
:1021C000000000000000000000000000000000000F
:1021D00000000000000000000000000000000000FF
:1021E00000000000000000000000000000000000EF
:1021F00000000000000000000000000000000000DF
:10220000DFF80CD000F08CF9004800475D47020071
:10221000E85D002030B4044654E8000F0D4644E861
:102220000053002BF8D1156030BC704730B4044621
:1022300054E8000F40EA010544E80053002BF7D1B1
:10224000156030BC704730B4044654E8000F00EA13
:10225000010544E80053002BF7D1156030BC7047EE
:1022600030B4044654E8000F80EA010544E8005306
:10227000002BF7D1156030BC704730B4044654E8E9
:10228000000F00EB010544E80053002BF7D1156067
:1022900030BC704730B4044654E8000FA0EB010591
:1022A00044E80053002BF7D1156030BC70470000A4
:1022B00030B4044654E8000F0D4644E80053002BA8
:1022C000F8D1156030BC704730B4044654E8000FB4
:1022D00040EA010544E80053002BF7D1156030BCFB
:1022E000704730B4044654E8000F00EA010544E8A2
:1022F0000053002BF7D1156030BC704730B4044652
:1023000054E8000F80EA010544E80053002BF7D1A0
:10231000156030BC704730B4044654E8000F00EB41
:10232000010544E80053002BF7D1156030BC70471D
:1023300030B4044654E8000FA0EB010544E8005314
:10234000002BF7D1156030BC7047000030B4044654
:1023500054E8000F0D4644E80053002BF8D11560F7
:1023600030BC704730B4044654E8000F40EA010521
:1023700044E80053002BF7D1156030BC704730B4EF
:10238000044654E8000F00EA010544E80053002B1E
:10239000F7D1156030BC704730B4044654E8000FE4
:1023A00080EA010544E80053002BF7D1156030BCEA
:1023B000704730B4044654E8000F00EB010544E8D0
:1023C0000053002BF7D1156030BC704730B4044681
:1023D00054E8000FA0EB010544E80053002BF7D1AF
:1023E000156030BC7047000006488047064800472B
:1023F000FEE7FEE7FEE7FEE7FEE7FEE7FEE7FEE7B5
:10240000FEE7FEE7A9280200012202002DE9F05FA5
:102410000546002092469B46884606468146402453
:102420001BE0284641464746224600F068F85346DE
:102430005A46C01A914110D311461846224600F060
:102440004FF82D1A67EB01084F4622460120002164
:1024500000F046F817EB00094E41201EA4F10104DC
:10246000DFDC484631462A464346BDE8F09F00007F
:1024700000487047D874020040EA01039B0703D06C
:1024800009E008C9121F08C0042AFAD203E011F8B3
:10249000013B00F8013B521EF9D27047D2B201E075
:1024A00000F8012B491EFBD270470022F6E710B559
:1024B00013460A4604461946FFF7F0FF204610BDB2
:1024C000421C10F8011B0029FBD1801A70470346FB
:1024D00011F8012B00F8012B002AF9D1184670479A
:1024E000202A04DB203A00FA02F1002070479140D4
:1024F000C2F1200320FA03F3194390407047202AC9
:1025000004DB203A21FA02F00021704721FA02F39D
:10251000D040C2F1200291400843194670470000A4
:10252000064C074D06E0E06840F0010394E8070020
:1025300098471034AC42F6D3FFF766FEBC7B02002E
:10254000DC7B020070B58C1810F8015B15F00703F6
:1025500001D110F8013B2A1106D110F8012B03E03C
:1025600010F8016B01F8016B5B1EF9D12B0705D444
:102570000023521E0DD401F8013BFAE710F8013B8D
:10258000CB1A921C03E013F8015B01F8015B521EA9
:10259000F9D5A142D8D3002070BD00002DE9F04F3D
:1025A00000268FB0DFF8B081B14602964FF48075F7
:1025B000012437460396284603F07EF838B1D8F850
:1025C0000403204203D0284603F06CF826432D1D57
:1025D00064007F1CADB2082FEDD34FF4BE742046CB
:1025E00003F06AF848B1204603F05CF846F0004674
:1025F00002AA0221002003F03FF8584C16F0FF0F0A
:1026000015D00127002537420DD008EB8501D1F800
:102610001005D1F81015C0F3052054F82520C1F39A
:10262000014102B190477F006D1C082DEBD3002EB5
:102630007DDA0020CDF82890411E0DF1080B08AA84
:10264000CDF82C9042F82010401C91460228F9D376
:1026500000252E46A01910F8607F90F9000027F0A1
:10266000C008401C49D008A9404602F0CEF988B302
:102670004FEA971A404601F0E1FB54F820701FB171
:10268000BAF1030F03D00FE0BAF1030F35D10AA856
:102690004FEAD80208F00703815C4FF0010C0CFAF6
:1026A00003FC41EA0C01815406A8CDF8188002F021
:1026B0009FFF069900EB8100D0F8000702A9C0F344
:1026C00001400690404602F0A0F90028069802D08A
:1026D000022802D011E003280FD1BAF1030F08D16C
:1026E0000698022832D00221404602F05BFF6D1CA2
:1026F000EDB217B151464046B847761C042EA9D317
:10270000002D20D004AA0221002002F0B5FF0020F5
:102710005A4604A952F8206051F82030B34217D02D
:1027200000200AAE4FEA090351F8207000E00AE0E9
:1027300042F8207056F8207043F82070401C0228A0
:10274000F2D3002D84D10FB0BDE8F08F0321CBE789
:10275000401C0228DED3F6E7006000405034002021
:1027600000F01F02012191404009800000F1E020AB
:10277000C0F88012704700F01F020121914040090B
:10278000800000F1E020C0F80011704700F01F0247
:10279000012191404009800000F1E020C0F80012C2
:1027A00070474907090E002806DA00F00F0000F113
:1027B000E02080F8141D704700F1E02080F800143C
:1027C000704700002DE9F0414FF48077384602F061
:1027D000E5F90124104EA50748B1384602F0E5F9A5
:1027E0000120C5F808037470002001F051FB4FF47C
:1027F0008277384602F0D2F900280BD0384602F032
:10280000D4F90220C5F80803B470BDE8F0410120F6
:1028100001F03EBBBDE8F0813C34002007480021B8
:10282000C0F84011C0F84411C0F84811C0F84C116C
:10283000C0F80011C0F8041104F0D6B9001001402E
:1028400000F044B970B50E46144900EB400001EBAE
:10285000C0051446E86A183520B101280FD00228B7
:1028600005D113E0284600F065F9A04201D200240A
:1028700011E022463146284600F094F90BE0284644
:1028800000F058F9A042F4D20446F2E73146284657
:1028900000F05BF90446204670BD00005C3B002060
:1028A00004F0F0B803F032BC30B54FF08050002295
:1028B000D0F830110123082902D1D0F8344114B1E5
:1028C000082909D00BE04FF08041C1F80C21C1F874
:1028D000102168490A6005E0D0F8344114B1082994
:1028E00057D059E064490968644C21606249091D68
:1028F0000968241D2160604908310968241D216090
:102900005D490C310968241D21605B49103109685B
:10291000241D2160584914310968241D216056493D
:1029200018310968554C2034216053491C3109681D
:10293000241D2160504920310968241D21604E4921
:1029400024310968241D21604B4928310968241D60
:10295000216049492C310968241D216046493031E4
:102960000968464C40342160434934310968241DCC
:102970002160414938310968241D21603E493C31BC
:102980000968241D21603C4940310968241D2160EB
:1029900005E0D0F8344114B1082904D006E0394CE0
:1029A0003749216005E0D0F8344114B1082904D03A
:1029B00006E0354CFB21216005E0D0F8344114B12C
:1029C000082908D00AE090F858423048016864F3BA
:1029D0000301016005E0D0F8344114B1082905D0A5
:1029E0000EE02B494FF40070086002E0D0F834018B
:1029F00030B928480168C90702D06FF001010160B1
:102A00002548016841F470010160BFF34F8FBFF3A7
:102A10006F8F4FF01021D1F80002002803DBD1F8AE
:102A20000402002822DA1D4C23601D480368002B95
:102A3000FCD01223C1F800320568002DFCD0C1F88B
:102A4000043201680029FCD0226001680029FCD012
:102A5000BFF34F8F10487C380168124A01F4E061DF
:102A600011430160BFF34F8F00BFFDE70F490E48D0
:102A7000086030BD380500400404001020C5004047
:102A8000488103008C56004018F50040E40E0040D9
:102A9000409602400004004088ED00E004E501405B
:102AA00000E401400400FA050090D0030C2D002042
:102AB0000448017F04480029024901D004F03BBAD0
:102AC00004F0AAB9B83400200020004010B5124C20
:102AD00002202061606111A0A06104F17800E06132
:102AE0004FF4007020620020A06260620BA1A1641C
:102AF000E06204F51E71E1641021A065C4E91410C0
:102B0000E06509A1E01DFFF7E2FC08A12046FFF700
:102B1000DEFC2020A07110BD5C3B00205465726D6E
:102B2000696E616C000000005254540053454747E1
:102B3000455200000269C1688A4203D88068401A81
:102B4000104400E0501A401E70472DE9F047C46859
:102B50001746894606464FF000083069A04201D961
:102B6000051B02E0B168201A0D1AB0686D1E001B2B
:102B7000A84200D80546BD4200D33D4670682A46AB
:102B800020444946FFF778FCB0687F1B2C44A844DA
:102B9000A944A04200D10024F460002FDDD14046BA
:102BA000BDE8F0872DE9F04104468846D4E90207E4
:102BB000C51BE168606816460844B54206D941461F
:102BC000FFF75AFCB819E060BDE8F0812A4641469B
:102BD000FFF752FC761B08EB050132466068FFF7F1
:102BE0004BFCE660F0E70000014A024900F026B81D
:102BF000EB410200B02C002002E008C8121F08C1FF
:102C0000002AFAD170477047002001E001C1121F6D
:102C1000002AFBD1704700000121202803DA8140FF
:102C20000548014003E0402802DA2038814009B11C
:102C30000120704700207047FC06FFBD2DE9F041E0
:102C400016460F460446002503E03946B047641C8B
:102C50006D1C20780028F8D12846BDE8F08110B519
:102C600001220221002000F00BFF08B1072810D13B
:102C700007220221012000F003FF08B1072808D134
:102C800000210A22084600F0FBFE08B1072800D107
:102C9000002010BD022000F0F5BD000070B500243A
:102CA000064D06E06868012110F8340002F026F8AD
:102CB000641C28788442F5D3002070BD702C00205D
:102CC000F8B515460C460646052A01D20720F8BD80
:102CD00002F0F6F818B902F0C5F80028F7D110494B
:102CE00000204E600C70C1E902500E4D08610DE0ED
:102CF00006EBC4006968009181788DF801100078B6
:102D0000094A694602F046F80028E0D1641EE4B2A0
:102D1000EED2BDE8F840054A0021024800F078B83C
:102D2000702C002030720200B1420200FD3F020010
:102D300002F048FF02F090FD0028FBD1104C012169
:102D4000208801EB00400FA102F07EFE10480068D1
:102D5000C00700D000BE2088022101EB00400DA179
:102D600002F072FEBFF34F8F0948E43801680D4A44
:102D700001F4E06111430160BFF34F8F00BFFDE735
:102D8000702D0020466174616C206572726F720054
:102D9000F0ED00E053797374656D207265736574AE
:102DA000000000000400FA050EB500210091CDE9F5
:102DB00001106A4644F20100FFF7BAFF0EBD10B5DC
:102DC0008268C368934203D001F0FCF9002010BD73
:102DD000052010BD29B112B1531E134203D00920A2
:102DE00070470E2070470160838000218160C160C0
:102DF0000846704710B58268C3689A1A83889A4259
:102E000003D801F0E9F9002010BD042010BD000036
:102E1000074B9B7823B12AB120B10068037C1BB11A
:102E200008207047072070474174426100207047B6
:102E3000F834002070B503F087FC104800240B2103
:102E4000047044700E4D817014206C602C706C7096
:102E5000FFF786FC07211420FFF7A3FC1420FFF7DF
:102E60008AFC0848046007211120FFF79AFC0548F6
:102E7000001F0068A860002070BD0000F83400202A
:102E8000842C0020081501402DE9FC47DFF87890DC
:102E900099F8023073B368B3052902D20720BDE860
:102EA000FC87436933B3437C012B25D000270446BC
:102EB0000025884616468DF80050684600F0CAF88E
:102EC00001A804F00BF9C8B1012101700F49446059
:102ED0000968C0E90218C0E904769DF8040089F881
:102EE00001009DF8000000F0D9F81420FFF74EFC17
:102EF0002846D4E70820D2E70F46D8E704259DF8F6
:102F0000000000F0CBF8F3E7F8340020041501408E
:102F10000649897839B130B1416921B10021017484
:102F2000022103F03DBE082070470000F834002065
:102F300070B50A4E01460A48B578FFF740FF0446CF
:102F40004DB10020B070711C0122C81D01F0FEFFC0
:102F500008B1FFF729FF204670BD0000982C002023
:102F600004360020F0B5284E89B01F460D000446F7
:102F700072603BD0A888296882B22448FFF72AFFF4
:102F8000002834D1A889A96882B220481030FFF700
:102F900021FF00282BD120221D496846FFF76CFA3B
:102FA00060690690207C00B101208DF814008DF836
:102FB0001C70607C00B10E208DF81500E068029056
:102FC000A068039020680190606800900E48114A44
:102FD0006946083001F086FF002808D1B0702068EB
:102FE000401C04D09DF81D0018B106E0072009B070
:102FF000F0BD0548083002F001F803490122491CE0
:10300000C81D01F0A3FFF2E7982C00200436002031
:1030100038720200796D020010B501460B48FFF7C7
:10302000E9FE040010D10A4802F032F960B90849FB
:1030300006480839FFF7C3FE30B9054901220839AF
:10304000034802F09FF80446204610BD14360020C5
:10305000A02C002030B5EFF3108172B60D4A9468B1
:10306000012324B10370002900D162B630BD936002
:103070004FF0E023D3F88051074C25401560C3F88A
:103080008041D3F8844154605A17C3F88421002248
:103090000270E8E724360020FC06FFBD0B498A6871
:1030A000002A11D000280FD1EFF3108072B60B6800
:1030B0004FF0E022C2F800314B68C2F80431002220
:1030C0008A60002800D162B67047000024360020D4
:1030D00070B5054608680C46411C04D002F0AFFAF2
:1030E000206802F03BFA6068411C02D0002102F027
:1030F0002CFA28791F4901EB40102968007F00282D
:10310000A069C1F8240523D0607D227D2968104381
:10311000C1F86C05D4E900122868C0F80C15C0F895
:10312000142522E0A068411C02D0002102F00DFA13
:10313000E068411C04D002F082FAE06802F00EFA66
:10314000D4E902122868C0F80825C0F8101570BD2F
:10315000607D217D2A680843C2F86C05D4E900121D
:103160002868C0F81425C0F80C15207D0128D9D096
:1031700070BD0000B834002070B540B10C4D297806
:1031800039B1044603F0C4FA28B1002070BD0E2006
:1031900070BD082070BDE868062807D2054922687E
:1031A00001EB8001401C0A60E860EEE7042070BD7E
:1031B000602C00202431002040B105490022012369
:1031C000CA600B70C1E90102104670470E207047BB
:1031D000602C002070B504002DD000292BD0204891
:1031E0000078002827D020880D46112815D03028D7
:1031F00004D0322807D033281ED109E0211D2846EB
:1032000003F0AEF918E0211D284603F01FF813E083
:10321000211D284603F0F2F80EE0A088B5F8CA1286
:10322000884209D1002085F8C70285F8C8024FF608
:10323000FF70A5F8CA0270BD95F8C8020028FAD040
:1032400020883028F7D34F28F5D8A088B5F8CA12BF
:103250008842F0D12846BDE8704000F065BF00000C
:10326000602C002048B1084A137843B1D26832B1CB
:1032700090F8C7222AB1112070470E20704708200D
:10328000704700F051BF0000602C00207FB502881D
:10329000011D3E4D032604461D2A21D016DC3B4865
:1032A0004FF00303102A008803EB00403CD0132AA0
:1032B0005DD01B2A37D10979022951D0032932D197
:1032C00004B033A1BDE8704002F0BEBB1F2A54D049
:1032D0003B2A56D0562A26D1A088132176DF38E023
:1032E000091D0C46324801F0C5F800281BD0304AB1
:1032F0000123121D02F1080120468CDF002812D1A3
:1033000000F0E0FB08B1FFF74FFDE078A3796279A8
:1033100021798DE80F002888A378627806EB0040B9
:1033200024A102F0A4FB7FBD2EA102F08DFBA18899
:103330000022314800F008F908B1FFF735FD0720F9
:1033400000F0C0FB08B1FFF72FFDA1882B48FFF765
:1033500089FF0028E7D004B0BDE87040FFF724BD26
:1033600027A102F071FBBDE87F4003F041BA0023C2
:10337000A0881A4685217FDFEBE731F8040B75DF63
:10338000E7E7A088132176DFE3E70000702D002037
:10339000436F6E6E656374696F6E205265717565FB
:1033A00073742074696D6564206F75742E0000005D
:1033B0000C710200436F6E6E656374696E672074F2
:1033C0006F20746172676574202530327825303241
:1033D00078253032782530327825303278253032F1
:1033E00078000000436F6E6E656374656420746FCF
:1033F0002074617267657400943000207C2900207D
:103400005363616E2074696D6564206F75742E005E
:1034100010B51A4C0188606810290ED011292BD1E3
:10342000401E606028D1FFF71AFC002824D02168D4
:10343000002921D0BDE810400847D0B90021012261
:10344000084600F01DFB08B107280FD10722022112
:10345000012000F015FB08B1072807D10422022142
:10346000002000F00DFB20B1072802D0216801B137
:1034700088476068401C606010BD0000582C002028
:103480002DE9F0411A4D07460C4628880978032695
:1034900006EB004051B1012922D0022926D115A105
:1034A00002F0D2FABDE8F04103F0A2B915A102F092
:1034B000CBFA618804F10E02384600F045F808B1F5
:1034C000FFF772FC384600F02FF908B1FFF76CFCEB
:1034D000288811A106EB0040BDE8F04102F0B4BA23
:1034E000217BA068BDE8F04100F042B9BDE8F08161
:1034F000702D0020446973636F6E6E65637465643C
:103500002E000000446973636F7665727920636FE3
:103510006D706C6574652E00436F6E6E65637465C7
:103520006420746F206465766963652077697468C8
:10353000204E6F7264696320554152542053657266
:10354000766963652E00000048B141802AB1518838
:10355000C1801188818091880181002070470E20F0
:103560007047000030B5114B0D4604000FCB85B0FD
:103570008DE80F0018D0BDB12146684662DF0028F3
:1035800010D120788DF812000120ADF810004FF610
:10359000FF7060802868E0600020A080208104A87F
:1035A000FFF7EAFD05B030BD0E20FBE70072020018
:1035B00010B5024686B008002ED0002A2CD04188D3
:1035C0004FF6FF73994202D09488A14224D1148807
:1035D000112C14D0392C1FD1818800291CD053897B
:1035E0008B4219D1C168002916D001218DF8001035
:1035F00002F110010291917B8DF80C1009E0928884
:103600008A4209D1C168002906D002218DF8001034
:103610004380C2686946904706B010BD30B585B09A
:103620000C46054614216846FEF73FFF207804F15A
:103630000E01002830D1A08801282DD1A0792A7848
:10364000904229D1002217E002EBC20031F810307D
:10365000022B02D0032B0ED105E001EB40000089C4
:10366000ADF8120007E001EB40000389ADF80E3021
:103670004089ADF81000521C207A9042E4D8E868E6
:10368000002809D06088ADF8020000208DF8000005
:10369000EA6869462846904705B030BD3EB503004C
:1036A0000BD013480224F42A008804EB004006D90A
:1036B00010A102F0C9F907203EBD0E203EBD5C8876
:1036C000A4F57F45FF3D0DD00F4831C88DE831008E
:1036D00018890291ADF80200ADF8062058886946B5
:1036E0009CDF3EBD09A102F0AFF908203EBD0000FD
:1036F000282D0020436F6E74656E7420746F6F20E8
:103700006C6F6E672E0000001C720200436F6E6EBD
:10371000656374696F6E2068616E646C6520696EA4
:1037200076616C69642E00001FB5010019D04888CD
:10373000A0F57F42FF3A16D0C988A1B101228DF8C9
:103740000C200A4B00228DF80D20D3E90423CDE98B
:103750000023ADF8021003A9029169469CDF04B072
:1037600010BD0E20FBE70820F9E700000072020000
:103770002DE9F0470E4605460024DFF878804FF02B
:10378000010912E0285DFFF747FC07000CD0112F5C
:10379000F8D0B8F80010224609EB014016A102F05B
:1037A00057F93846FFF700FB641CB442EAD3A81966
:1037B00010F8010C0D2804D10A20FFF72DFC112868
:1037C000FAD0324629461648FFF768FF04000ED0AB
:1037D000112CF6D0B8F80010224609EB014011A1D7
:1037E00002F036F92046BDE8F047FFF7DDBABDE844
:1037F000F0870000702D00206170705F7561727439
:103800005F707574206661696C656420666F7220F4
:10381000696E646578203078253034782E00000099
:10382000943000204661696C65642073656E64693C
:103830006E67204E5553206D6573736167652E204A
:103840004572726F7220307825782E2000000000BB
:103850000149085C704700003C710200084908B546
:10386000085C0090684601F0B5FED0F8100500999C
:10387000C84010F0010000D0012080F0010008BD18
:103880003C710200094908B5085C0090684601F0E7
:10389000A1FED0F80425009B0121994021EA0203F2
:1038A000C0F808351140C0F80C1508BD3871020089
:1038B0000249085C012101F0CCBE00003871020011
:1038C0000249085C002101F0C4BE0000387102000A
:1038D000084908B5085C0090684601F07BFED0F806
:1038E00004050099C84010F0010000D0012080F0CC
:1038F000010008BD387102007CB50024084E254641
:103900000122305D009500231146019501F0D2FDA2
:10391000641C042CF4D3BDE87C4000F003B8000024
:103920003871020010B500242046FFF7C1FF641C67
:10393000042CF9D310BD10B500242046FFF7C0FFBA
:10394000641C042CF9D310BD10B50246064B4FF091
:10395000FF3000215C5C944201D1084610BD491C37
:103960000429F7D310BD00003C71020070B50C4E65
:103970000C004FF0000530600BD0012000F06AF819
:1039800008B1022004E0002000F064F800B10B2030
:103990002070706810B9FFF762F90546284670BDBF
:1039A000582C002010B5002000F0BEF908B1062800
:1039B00006D1012000F0B8F908B1062800D1002096
:1039C00010BD00002DE9F0470D468146FFF7BCFF12
:1039D0000446042836D2DFF874801B481C4EA8F138
:1039E0000C0725B3012D0ED0022D2BD104EB440082
:1039F00030444578002D25D0B968002922D02846CA
:103A0000BDE8F047084704EB4401755C0E4471784B
:103A100049B10E4A4FF40041093A8068FFF734FA81
:103A200008B987F80390B17808F80410E2E78068D5
:103A3000FFF76EFA04EB4401314418F804008D7866
:103A4000A842D7D0BDE8F08740710200542C002076
:103A5000F8300020FFF702BF042804D00A280CD158
:103A6000002002F0C3B905481321408876DF0828FA
:103A700003D0002801D0FFF797B970479430002099
:103A800070B50023042810D20D4D00EB4004012A2C
:103A900002D101290CD00022094E00EB4000304435
:103AA00061B1012906D0022906D00723184670BD4E
:103AB0000E30C2B22A55F9E74270F7E78270F5E797
:103AC000F8300020044A014600201279D20702D0C3
:103AD000084600F04DB87047482C002070B50646E7
:103AE0001E480024C0E90161B00720D5002501224D
:103AF00011462846FFF7C4FF6D1C0446042D02D270
:103B0000002CF4D013E094B940F26662042114480A
:103B1000FFF7D6F804000AD1FFF7C0F8040006D179
:103B20000F48104A0021001FFFF772F90446F00702
:103B300001D0FFF7E1FE74B909480B4A00210C38A7
:103B4000FFF766F9040006D10548084A0121083844
:103B5000FFF75EF90446204670BD0000482C0020A7
:103B60004C710200D13D02007D450200952C0200FF
:103B70002DE9F05F6A4C054600266078B34618B11F
:103B800084F801B000F0E2FC664F4FF47A694FF41C
:103B9000C87A4FF00108182D62D2DFE805F0AC0CAE
:103BA0000C31404D62676B746B74BE7D7D7D7D7D95
:103BB000ACAFB2B5BEBE0020FFF78AFE00284FF0C2
:103BC000000008D0FFF774FE022D02D14FF4E1602F
:103BD00008E0484606E0FFF773FE022D01D1C82039
:103BE00000E05046410CC0034FF4FA72801841F1D6
:103BF0000001257052000023FEF708FC01462AE070
:103C00000020FFF765FE00284FF0000004D0FFF70A
:103C10004FFE4FF44870E5E7FFF752FEDFE7002064
:103C2000FFF756FE00284FF0000002D0FFF740FEDD
:103C3000CFE7FFF745FED4E70020FFF749FE002855
:103C40004FF0000002D0FFF733FE01E0FFF738FE2F
:103C5000257041F69A1100223868FFF715F90646DB
:103C600046E00020FFF70EFE257008E0002051E03E
:103C700025703DE084F801800120FFF703FE00225B
:103C800040F6CD41E8E784F801800120FFF7FAFD16
:103C900000224FF48041DFE77868FFF739F90646E4
:103CA000D5F1110000D02EB10220FFF701FE84F8FB
:103CB00002B01DE0012816D980B2C8214843C117BF
:103CC000C90341EA5041C0034FF4FA72801841F130
:103CD000000152000023FEF799FB0146002278689C
:103CE000FFF7D2F806460220FFF7EAFD84F80280CB
:103CF0003046BDE8F09F00F029FCB9E700F026FC53
:103D0000B4E700F023FC04E000F020FC0020FFF703
:103D1000D7FD0120FFF7D4FDAAE7FFF70CFEA7E7C8
:103D2000482C00204071020010B5FFF791FD0321DF
:103D300001F01EFC002010BDF8B5871C00208DF896
:103D400000000E4601256846FFF784F9124C2068F2
:103D50003060D4E90001401AA168091ABE1C06E0CF
:103D600000F0B2FCD4E90001401AA168091A491C0C
:103D70008E42F5D8A1682068084004EB8000C16835
:103D800041F00301C1602068384420609DF80000C4
:103D9000FFF784F92846F8BD3C37002030B482682C
:103DA0000468531C8360A154D0E901128A4202D3F3
:103DB00030BC01F086BA30BC70470000034803C82D
:103DC000814201D101207047002070473C3700201C
:103DD00000780221FFF7F6BD05494FF0FF320828B1
:103DE00041F8202002D3084480F858207047000092
:103DF00050340020F0B54FF0FF3512B100230826F3
:103E000001E008230C260C4C05E000BF54F8237099
:103E10007F1C04D05B1CB342F8D32846F0BD2618A3
:103E20005DB286F8305044F82310002AF5D1E1182D
:103E300081F85800F1E7000050340020024908449E
:103E400090F93000704700005034002008B5024659
:103E500090F8C6020B4600EB8001C1EB801002EB2C
:103E6000400092F8C52242B1521ED2B202EBC2010A
:103E700000EB4102518A491C00E0C188ADF80010F6
:103E80000089ADF802006946184696DF08BD0000BB
:103E900070B5084C050009D010342168002907D0FE
:103EA00008682060496828468847F6E70834F4E740
:103EB00070BD00003C3400202DE9F05F26484168C9
:103EC000F1B3DFF898B00E688146DBF800408768F0
:103ED0008078E11B21F07F45ED1CB0B9DFF88080D0
:103EE0004FF48030C8F84403C8F804031120FEF7EB
:103EF00037FC1120FEF73FFC4FF0010AC8F800A084
:103F00002F2000F05BFE89F802A0B54200D23546B2
:103F1000124BE8193C3320F07F401860DBF80010AA
:103F20005A46091B21F07F41001B20F07F40C91C2D
:103F300081420FD9106818602F2000F03FFE00E08A
:103F400004E0BDE8F05F1120FEF720BCBDE8F05FA3
:103F500002F0FABBBDE8F09F842C0020041501405C
:103F60000010014001460148FFF758BB9430002083
:103F70002DE9F843054690F8C6020F4600EB800194
:103F8000C1EB801005EB400695F8C542914604EB65
:103F9000C40006EB40013279601C0A31904226D100
:103FA0006B460022284600F03FFA18B310E0401E8E
:103FB000A04201D1002004E004EBC40006EB400065
:103FC0001C30804602466B46284600F02DFA30B180
:103FD000002038706946484697DFBDE8F88395F8B9
:103FE000C5024146401C641C85F8C502E4B2307924
:103FF000A042DCD8012038700020EEE72DE9F04126
:1040000000260125144C22E06068226900EBC607F7
:10401000387805FA00F1114217D08A43226100F086
:1040200019FF02463878E36805FA00F1194002FAF0
:1040300000F3994209D17978012901D0012100E0EA
:10404000002151407A6802B19047761CF6B2207880
:104050008642D9D3BDE8F081702C00202DE9F047CD
:10406000894690F8C612904601EB8102C2EB81119D
:1040700000EB4107384602F04BFB06002FD0194CED
:10408000A06806282BD2184D762205EBC0103946C1
:10409000A0F80280001DFEF7EFF90027B9F1000F2C
:1040A00004D0A06805EBC010077004E0A1680220EE
:1040B00005EBC1110870A06805EBC011401CCE676C
:1040C000A060E16888420AD1002604E005EBC61032
:1040D000C16F8847761CE0688642F7D3A760BDE8C9
:1040E000F0870000602C00203C31002070B50E46A7
:1040F00090F8C612154601EB8102C2EB8111A0B007
:1041000000EB410002F004FB040009D07C220549C9
:104110006846FEF7B1F9ADF8025068460196A0472F
:1041200020B070BD6C71020070B50E4604464FF4AD
:104130003371FEF7BAF911480025A4F8CA62856008
:1041400084F8C9520E4884F8C65284F8C5520068F3
:10415000206022460121304694DF0121112806D03B
:10416000002809D184F8C71284F8C85203E084F803
:10417000C71284F8C812002070BD0000602C002017
:10418000243100200E4910B50A784C780023A24251
:1041900012D0521CD2B20A70022A00D10B70084A07
:1041A0000B780C3252F8232002608868104420F00B
:1041B0007F408860012010BD0360002010BD00001A
:1041C000842C0020826883881A4003689A5C0A70F5
:1041D0008168491C81607047C26883881A400368FF
:1041E0009954C168491CC160704710B50446C0B2FB
:1041F000FEF712FF204610BD70B508880C46A0F5EA
:104200002061773915D10B4D03260BA1288806EBC9
:10421000004001F019FCA0880FA1C01E82B20D4819
:1042200013460280288806EB0040BDE8704001F08C
:1042300016BC70BD702D0020415454204D545520A3
:1042400065786368616E676520636F6D706C657417
:1042500065642E0078290020426C65204E5553205D
:104260006D61782064617461206C656E677468208C
:1042700073657420746F20307825582825642900D0
:1042800010B50949094800F0D4FB08B1FEF78CFDD0
:10429000F721064800F0C1FB002803D0BDE810401C
:1042A000FEF782BD10BD0000F9410200A4300020DD
:1042B0002DE9F041124E07460125BD403068FEF75A
:1042C00027FE00280DD10F4C2069284207D138461F
:1042D00000F0C0FD0028E06805D0284304E0A843B2
:1042E0002061BDE8F081A843E06020692843206197
:1042F000A1683068BDE8F0410022FEF7C5BD0000AE
:1043000030720200702C00202DE9FC5F0E00834605
:10431000DDE90C47C6F1000098469246814600D47C
:104320000846012503E000BF90FBFAF06D1C5045E4
:10433000FADAA84500D9454624B1002E01DB7807FA
:1043400000D5641EB80702D5B8F1000F0AD0F807EF
:1043500008D13CB1A54205D220215846641EFFF782
:104360001DFDF6E7002E02DA4E462D2102E0780709
:1043700003D52B215846FFF711FD07F00300022853
:104380000BD1B8F1000F08D13CB1A54205D23021C4
:104390005846641EFFF702FDF6E7CDE900474346A5
:1043A00052463146584602F03FFEBDE8FC9F0000F1
:1043B00070B50E460446007918494FF4A27501EB1A
:1043C0004010017F2068A1B14FF4887101F038FFDF
:1043D0004FF49071206801F033FF4FF49271206820
:1043E00001F02EFF2946206801F02AFF0C492068C1
:1043F00009E04FF48E7101F012FF2946206801F0A8
:104400000EFF08492068C0F80413206800F072FC11
:104410003146BDE8704000F051BC0000B8340020C7
:10442000100302008000020010B509892AB1D0886B
:10443000491C814218D1002010BD90F8C62202EB21
:104440008204C4EB821200EB420212899142F2D044
:10445000491C198090F8C61201EB8102C2EB811150
:1044600000EB4100008902E01980D088401E58808E
:10447000012010BD2DE9F8430E468146002501F1CB
:1044800010045CE06119675D487802280AD00328AF
:1044900008D004281ED005281CD0062838D00728AC
:1044A00036D049E04FF0000810E000BF05EB4800AF
:1044B000011902206A46891C63DF28B9BDF8001083
:1044C000B9F80000814234D008F10108B8EB570F69
:1044D000ECD331E04FF0000816E000BF05EB880098
:1044E000011904206A46891C63DF58B9BDF8001021
:1044F000B9F80000814205D19DF8021099F8020038
:10450000814216D008F10108B8EB970FE6D313E00B
:1045100010206A46891C63DF70B9BDF80010B9F835
:104520000000814208D19DF8021099F802008142F2
:1045300002D10120BDE8F883E819401C85B2F07B68
:10454000B5EBD00F9ED30020F4E700000A4810B569
:10455000807860B1002401E0022C06D02046FFF7ED
:10456000A7F9641C042CF7D310BD0324F6E7BDE8BB
:104570001040FFF7D7B90000482C0020034801790C
:10458000C90702D00078FFF7F3BA7047482C002023
:1045900006490120086006480168C1F3004100296E
:1045A000FAD1044900208870704700000C000040D8
:1045B000180400403C340020F7210180172141807D
:1045C000002101714171FB2181711B21C171704773
:1045D0002DE9F047394E002780463D46DFF8E09050
:1045E000D6F804A057E003D00446D0F81C8035E08C
:1045F00099F8002002EB4201521CD2B289F8002047
:1046000009EBC10199F80230091D9A4201D189F8DC
:10461000005048680A780446012A12D0022A02D0C3
:10462000032A3BD108E002F08BFA00B10127257480
:1046300034E00574C06900E070680028F9D170604A
:104640002CE0207C50BB88686060C868A060086966
:10465000E0604869A061F07800B165606268B168A7
:10466000184B501A20F07F40984202D2A1680844AB
:1046700006E0881AA16820F07F40814202D9081A1A
:10468000206000E0256065600120A5602074204660
:10469000E56102F037FAB8F10000A4D199F80010F2
:1046A00099F801008142A3D117B97168514502D030
:1046B0000120BDE8F0870020FBE70000842C0020EB
:1046C000F8340020FFFF7F0070B588B0214800F06B
:1046D00043F92048001F064600F03EF91E4DD5E97B
:1046E000014105E0C0F3891202EB9050641C0444C0
:1046F00004EA010005EB8000C0688207F2D00020C8
:104700000DF1080204EA010305EB8303641CDB6876
:1047100042F82030401C0228F4D3029800F0030035
:10472000012808D002280AD10298032101EB9050F9
:1047300004EB900403E00298C0F383100444304675
:10474000002101AAFDF71BFE002800D06C6008B014
:1047500070BD0000543B00203C3700208AB0002090
:1047600001F0EAF908B1FEF71FFB01F067F8FEF768
:1047700061FB08B1FEF718FB01F002FB08B1FEF780
:1047800013FB18222E496846FDF776FE2D48069049
:104790002D494FF48070CDE90701099007232B4A7A
:1047A00006A96846FEF7DEFB08B1FEF7FDFA2849C8
:1047B0000120FFF793F908B1FEF7F6FA69460020E9
:1047C000FFF7D4F808B1FEF7EFFA2248FEF7F4FC41
:1047D00008B1FEF7E9FA01F071FC08B1FEF7E4FA5E
:1047E000002000906946012001F02AFB08B1FEF785
:1047F000DBFA684601F0CEFB08B1FEF7D5FAFFF709
:104800003FFD1548009069461448FEF7ABFE08B11D
:10481000FEF7CAFA12A0FEF7E7F91A48032100884A
:1048200001EB004018A101F00FF901F0E1FF00BF1A
:1048300001F012F80028FBD101F0B6FAF8E7000009
:1048400020710200942E0020942F0020996C020009
:10485000593A0200653F0200813402009430002082
:10486000424C4520554152542063656E7472616C10
:10487000206578616D706C65207374617274656415
:104880002E0D0A00702D0020424C452055415254F7
:104890002063656E7472616C206578616D706C6503
:1048A00020737461727465642E0000002DE9F04776
:1048B000C7880446181D16468946B0FBF7F1B0FBC1
:1048C000F7F207FB12009A193A44D21CB2FBF7F236
:1048D000DDF820A001E02468491E0029FBD13D1A23
:1048E0008846B54216D818E0BAF1000F05D0211855
:1048F00009EB08002A46091D04E0204409EB0801E1
:104900002A46001DFDF7B8FD00202468761BA84448
:10491000B74201D9354600E03D46002EE4D1BDE85E
:10492000F087000030B5024669B101F033F900218B
:10493000084C0BE001EB410304EB830315685B8833
:10494000AB4202D11160002030BD491C8142F1D33D
:10495000052030BD102D002008B501216A46FDF765
:1049600001FD009808BD38B5044600258DF80050BB
:104970006846FEF76FFB21686268086890420ED9AE
:10498000401E08600178238AE26801FB0325227A31
:104990002168101AC0B20A79824200D208719DF8CB
:1049A0000000FEF77BFB284638BD38B505460020E1
:1049B0008DF800000C466846FEF74CFBE868298A33
:1049C000201AB0FBF1F12A681068431C13600170D3
:1049D0009DF80000FEF762FB38BD10B530B1017ADA
:1049E00042680368891AC9B21A6006E00E2010BD39
:1049F00003681A68541C1C601170491EC9B2F7D2B2
:104A0000006800210171084610BDC20800F00703CC
:104A10000120895C98400840704728B1A1F1170235
:104A2000E12A03D3072070470E2070474180002001
:104A3000704710B560B10161F72120F8021B20F822
:104A4000021BFB2100F8021BFFF7B6FD002010BD82
:104A50000E2010BD2DE9F043858895B00C46002D41
:104A60003DD10188DFF824810026DFF82491012759
:104A700023293CD006DC102909D011290CD0222989
:104A80006DD150E03A290BD0552968D12AE0014672
:104A9000204601F065FC62E0A01DFFF78DFD5EE0A1
:104AA0002246408934F8061F814200D808466080BB
:104AB000172800D217206080106970B1607960B14A
:104AC000D8E90010CDE90310ADF80E506088ADF8BC
:104AD0001000136903A9104698476671267115B036
:104AE000BDE8F0830146204601F000FD37E0011DDE
:104AF000342206A8FDF7C0FCBDF81800BDF81C2044
:104B000004EBC0014A7322694AB3D8E90432CDE903
:104B10000432ADF81200487B8DF81400226920465B
:104B200004A990471BE00496059630F8041F04EB97
:104B3000C1020179127B8A4200D21146ADF81010F1
:104B4000ADF812100088002204A990DF020006D000
:104B5000B9F800000F4907EB004000F079FFA07A98
:104B60000028BCD0E18828469EDF02000BD0112A25
:104B7000B5D0B9F8000015B007EB0040BDE8F04330
:104B8000054900F065BFA672E772A8E7E871020068
:104B90001C2D002064750200DC74020000F18040CE
:104BA0000068002800D00120704708B500F180405F
:104BB000002101600068009008BD000000283ED080
:104BC0001F49204A096800BF00BF00BF00BF00BFE7
:104BD00000BF00BF00BF91422FD000BF00BF00BF89
:104BE00000BF00BF00BF00BF00BF00BF00BF00BFCD
:104BF00000BF00BF00BF00BF00BF00BF00BF00BFBD
:104C000000BF00BF00BF00BF00BF00BF00BF00BFAC
:104C100000BF00BF00BF00BF00BF00BF00BF00BF9C
:104C200000BF00BF00BF00BF00BF00BF00BF00BF8C
:104C300000BF00BF00BF00BF00BF0138C3D1704735
:104C40000C2D00200024F40070B50F4C00252078B6
:104C500008B1852516E00021A16061602161E16055
:104C60004FF0E020D0F80001012610F0010F03D131
:104C70000721002000F022F801F05AFA08B9034891
:104C800006602670284670BD3C34002018050040A0
:104C900008B500208DF800006846FEF7DBF90648ED
:104CA000C168491EC160C06808B9FFF771FC9DF872
:104CB0000000FEF7F3F908BD3C3400204907090E57
:104CC000002806DA00F00F0202F1E02282F8141D3B
:104CD00003E000F1E02282F8001400F01F0201213D
:104CE00091404009800000F1E020C0F88012C0F837
:104CF00000117047000B40B2704700002DE9F041F1
:104D00000E46804601F0A0FC204D0028404616D0FB
:104D1000FFF794F8284490F858008009032802D03F
:104D200001280AD003E0404600F07EFC28B10321B0
:104D30004046BDE8F04100F035BC0221F8E701F043
:104D40008FFC002820D04046FFF778F80446104F2B
:104D50004FF4807007EB840100EB8400D1F810253C
:104D600080B242F00102C1F8102500F09BFC002E39
:104D70000AD04046FFF762F855F82000002803D01B
:104D80000120A040C7F80403BDE8F08150340020A2
:104D9000006000402DE9FC41DFF8AC80044608EBE0
:104DA0000400002790F930001346C0170E46401C3F
:104DB00001D0082744E0F27819462046FFF71AF898
:104DC0000546401C3BD0B07868B16846009400F0BE
:104DD0000FFC009900EB8100D0F8001721F00201D0
:104DE000C0F8001707E000217378204600910A46BA
:104DF000019100F078FBF078C0B11448317800EBF5
:104E00008500D0F81025124B1A40C0F810254FF439
:104E10007C524FF4403302EA042203EA01410A4380
:104E2000D0F810150A43C0F8102509E008EB05007A
:104E3000327810F8581F41EA8211017000E004270F
:104E40003846BDE8FC81000050340020006000407E
:104E5000FFC0FCFF10B500F0E7FB002800D00120E8
:104E600010BD000070B5144D95F8640008B108201D
:104E700070BD0020411E2A18401CC0B282F83010BC
:104E80003028F8D300242046FEF7A6FF641CE4B2C5
:104E90000C2CF8D307210620FFF710FF4FF4BE704B
:104EA00000F000FC05494FF00040C1F80403012068
:104EB00085F86400002070BD503400200060004080
:104EC000034890F86400002800D0012070470000DB
:104ED000503400200121B1EB507F01D101207047F7
:104EE000002070472DE9F04105460079164F9046A5
:104EF00007EB40140E46E07E10B10820BDE8F081BB
:104F0000707F20772846FEF7E3F85FEA08006060CC
:104F10003169216003D0317F2846FFF749FA2879AB
:104F200007EB4010007F0028286801D0082100E02E
:104F30000421C0F800150020E0752076A07501213D
:104F4000E176A076DAE70000B83400202DE9F041E0
:104F500005460079284E904606EB40140F46207F08
:104F600018B10846FFF7B6FF80B1626800234FF41E
:104F700004704FF4017172B12A7906EB4212127F6C
:104F8000002A2A6805D0C2F8080304E01020BDE812
:104F9000F081C2F80813E27DB2B1227E7AB1626874
:104FA0005AB12A7906EB4212127F1AB12968C1F868
:104FB000040302E02868C0F804131120E7E7276122
:104FC000012384F8188005E084F817800020E7604A
:104FD000607620762879424606EB40103946007FFD
:104FE0000028284603D0BDE8F04100F073B8BDE8C2
:104FF000F04100F01BB80000B834002070B5044642
:105000000079094D05EB4010017F00290AD1807E0F
:10501000002807D1204601F0DAFB2179012005EBB9
:105020004111887670BD0000B83400202DE9F05F92
:1050300004460079264901EB4015A87E184302D1A9
:10504000204601F0C4FB68680028206806D04FF4B1
:105050000171C0F804130020BDE8F09F4FF4A27660
:10506000314601F0DCF8B1464FF4927A4FF4847B7C
:105070005146206801F0CEF806465946206801F0F6
:10508000C9F880464946206801F0C4F8074648EA56
:1050900007003043ECD056EA070007D129462068C4
:1050A00001F070FBE87D697E8842E1D80020E87558
:1050B0000EB10320D0E70FB10F20CDE7A97E01206C
:1050C0000029216801D00860C5E74860C3E70000F7
:1050D000B83400202DE9F05F894604464FF4887506
:1050E0009A46904600260068294601F0A9F84FF438
:1050F000A2773946206801F0A3F82068C0F83495FB
:10510000C0F838852068BAF1000F14D0D0F800122A
:1051100041F02001C0F800122179DFF8648008EB2B
:105120004110406850B120684FF40471C0F8041376
:105130003046BDE8F09F01210160EDE7AA46B9467F
:105140004FF4927B5146206801F075F807464946B6
:10515000206801F070F805465946206801F06BF8A8
:10516000014647EA05000843ECD02379002208EB0A
:105170004310C27501B10326002DD9D00F26D7E701
:10518000B83400202DE9F047054600793F4E90469F
:1051900006EB40140F46207F18B10846FFF79AFE31
:1051A00030B1284600F074F820B11120BDE8F08736
:1051B0001020FBE784F81680A7600027A7822879D3
:1051C0004FF0010806EB40143E46207F0028286877
:1051D00025D04FF49079494601F032F84FF4AC7A7B
:1051E0005146286801F02CF82868A17DA268C0F813
:1051F0004425C0F848152868C0F808806068F0B9F0
:105200004946286801F017F880465146286801F0A1
:1052100012F858EA0001F3D058BBA7750FE04FF41D
:105220008E7A514600F0FBFF2868C0F808802146BE
:10523000286801F013FD61684FF4807089B1304631
:10524000B4E75146286800F0E5FF10B9A08A484548
:10525000F7D1A08A484505D02146286801F0FEFC18
:1052600000E08146A08AA17D8842EAD3A08A484511
:1052700001D10F26D1E75146286800F0CBFF002866
:10528000F9D02868C0F80C80C7E70000B8340020C7
:105290000079044901EB4010807D002800D00120F6
:1052A00070470000B83400200FB408B503990029F6
:1052B00004D004AA00926A4600F00FF801B05DF82D
:1052C00014FB10B582680446002A05D0D4E9040313
:1052D000216898470020A06010BD2DE9FC47914649
:1052E0000C00804676D014F8011B39B125290ED068
:1052F0004046FEF753FD20780028F4D198F80C00C2
:10530000002867D04046BDE8FC47FFF7DABF002021
:10531000012221782B291BD02D2902D0302908D138
:1053200002E040F0010001E040F00200641C002AAD
:10533000EFD100252A290ED02178A1F130020A2AC6
:1053400011D205EB850201EB4205641C303DF1E70B
:1053500040F00400EAE7D9F800100B1DC9F800304E
:105360000968641C0D44217800232E290BD114F800
:10537000011FA1F130020A2A05D203EB830201EBDF
:105380004203303BF3E76C290DD068290BD0692923
:1053900021D00BDC252918D0582931D063290ED013
:1053A000642915D117E014F8011FECE7702969D0C2
:1053B000732932D075291BD0782909D120E0D9F87A
:1053C0000000011DC9F8001001784046FEF7E6FC18
:1053D000641C90E76CE0D9F800100A1DC9F80020A1
:1053E0000968CDE900500A224046FEF78DFFEFE73D
:1053F000D9F800100A1DC9F8002009680A2206E041
:10540000D9F800100A1DC9F8002009681022CDE95A
:105410000050404601F008FEDAE7D9F800100027F6
:105420000A1DC9F800200E68C00705D112E04046E9
:10543000761C7F1CFEF7B2FC31780029F7D104E01E
:10544000202140466D1EFEF7A9FCBD42C0D9002DAB
:10545000F6D1BDE74EB13046FDF732F8074604E01D
:10546000202140466D1EFEF799FCBD4206D9002D55
:10547000F6D103E04046761CFEF790FC3178002917
:10548000F8D1A5E7D9F80000011DC9F8001005689A
:1054900030214046FEF782FC78214046FEF77EFC34
:1054A00008200021CDE90001034610222946B0E77B
:1054B000BDE8FC872DE9FF411C46DDE90A78154669
:1054C0000E46684600F086F846EA450141EA840146
:1054D00041EA072242EA0841009A00EB8200C0F844
:1054E0000017BDE8FF812DE9FF411C46DDE90A7880
:1054F00015460E46684600F07BF846EA450141EA4B
:10550000840141EA072242EA0841009A00EB820046
:10551000C0F80017BDE8FF812DE9FF411C46DDE919
:105520000A7815460E46684600F070F846EA4501CE
:1055300041EA840141EA072242EA0841009A00EB6D
:105540008200C0F80017BDE8FF811CB500220B46A1
:10555000009211460192FFF7DFFF1CBD1CB5002130
:1055600000910B46012201911146FFF7D5FF1CBDAA
:10557000202802D24FF0A04202E0094A00F01F00AA
:1055800002EB8000D0F8002722F44032C0F8002758
:10559000D0F8002742EA0141C0F800177047000028
:1055A0000003005013B50C46684600F021F800993E
:1055B00000EB8101D1F8002722F44032C1F8002726
:1055C000009900EB8100D0F8001741EA0441C0F8CF
:1055D00000171CBD0168202902D24FF0A04070477F
:1055E00001F01F01016001487047000000030050F6
:1055F0000168202902D24FF0A040704701F01F013E
:105600000160014870470000000300500168202934
:1056100002D24FF0A040704701F01F010160014825
:10562000704700000003005001B56846FFF7E0FF37
:10563000D0F810050099C84000F0010008BD01B580
:105640006846FFF7E3FF009A01219140C0F8081572
:1056500008BD38B501240090684631B1FFF7BAFFA4
:1056600000998C40C0F8084538BDFFF7B3FF00999A
:105670008C40C0F80C4538BD1CB5094C0144D4E938
:105680000034CDE900346C4606E000BF54F8203009
:10569000D3F81035401C08C28142F7D81CBD000069
:1056A00028720200034908B508440021016000681F
:1056B000009008BD0060004002494058012800D019
:1056C000002070470060004030B5124B01460020BA
:1056D000D3F81044224609E0157A854205D1401CD2
:1056E0000A28F7DB4FF0FF3030BD5268002AF3D1B3
:1056F000421CF9D00872D3F810242AB152684A60CB
:10570000D3F81024516030BD0022C3F810144A6051
:1057100030BD00003C3700207047FDF791B870475E
:1057200008B5034A00924023024A00F005F808BD7C
:10573000C56802003C360020F0B595B01C46154601
:105740000F4608461A9E00F0F5FA182109A8FCF742
:10575000ACFE0E96CDE909540023082203A9384671
:1057600000F002FB059806900498ADF81C0000209C
:105770008DF820000398082600F00300012802D0CD
:1057800002281DD03CE003983346850AC0F3C200CE
:105790008DF81E0003980FA9C0F380008DF81F003C
:1057A0000398C0F38314A200384600F0DDFA09A87C
:1057B000009006AB22460FA9284600F017FA1FE01A
:1057C0000398840DC0F3C2008DF81E000398C0F347
:1057D00080008DF81F00082C01D2254600E0082526
:1057E00033462A460FA9384600F0BEFA2E44641B01
:1057F00009AB06AA29460FA800F048F9002CEAD107
:10580000384600F0A0FA15B0F0BD00000A4A0129A0
:1058100002EBC00007D0022907D0032907D00429D2
:1058200007D000207047022070470420704700799D
:105830007047407970470000DC7B020010B5FFF72D
:105840006CFF04210348FFF73FFF02490120487223
:1058500010BD0000B42C00202DE9F04F8DB0FEF7F4
:10586000ADFA18B100200DB0BDE8F08F74480021EA
:10587000C0F81814BFF34F8FD0E9014604EA0601BF
:1058800000EB81014FF000090AE000BFC1F389126B
:1058900002EB9151641C0C4404EA060100EB810107
:1058A000C9688A07F2D0002103AA804604EA0600EC
:1058B00008EB8000641CC06842F82100491C434684
:1058C0000229F3D3039800F00300022806D0012830
:1058D00003984FD0C04380077ED0ACE0039850229D
:1058E000810D8A46B2EB905F00D850210D4665F3DA
:1058F0009F5003900831534800F0D3F907006CD053
:1059000000F018FA4B46082203A9384600F032FA94
:1059100004EA0601701A8000001D09F1080B854297
:1059200021D9474E0C3630B1C2B208EB8101281A9A
:1059300091460C3104E03146EAB2002691463046E9
:10594000C5B25B46384600F015FA0BEB09032EB1E1
:105950002A4631464FEA070000F00CFA0AF103002C
:1059600004EB90043BE008EB81015B462A46384695
:105970000C31F1E7C0F38310062800D30620039909
:1059800060F38911C1F38310801C039181002D48BD
:1059900000F087F907004ED000F0CCF94B46082202
:1059A00003A9384600F0E6F909F1080900250DE0E1
:1059B00004EA060008EB80014B46042238460C310D
:1059C000641C00F0D7F909F104096D1C0398C0F3B9
:1059D0008310A842ECD801E00BE02CE05FB3D8F8CC
:1059E0001054D8F81804464690B1384600F0ABF988
:1059F00021E0D3F8180400283FF435AF1BE0687AA3
:105A0000012804D1296828460A68394690476D68FC
:105A1000002DF4D1384600F096F900208DF80000F2
:105A20006846FDF717FBD6F8180400B974609DF8B6
:105A30000000FDF733FBFEF7C1F980F0010012E72B
:105A40003C3700209C73020000231A4600F0D2BFAE
:105A500008B5012300926A4600F0CCFF08BD1CB5D2
:105A6000CDE9002302236A4600F0C4FF1CBDF0B557
:105A700087B00DF1300C9CE8F0008DE8FC000623A7
:105A80006A4600F0B7FF07B0F0BD00002DE9F0470F
:105A90000E4680461C46924608293ED894F80C9043
:105AA000002020731946104600F004FE0025B54280
:105AB00006D218F805201AA12046FFF7F5FB03E0EF
:105AC00019A12046FFF7F0FB6D1C082DEFD317A19D
:105AD0002046FFF7E9FB0025B54210D218F8057003
:105AE000FCF7C6FC0068C05D10F03E0F01D03A46DE
:105AF00000E02E220EA12046FFF7D6FB03E00DA109
:105B00002046FFF7D1FB6D1C082DE5D3012221466D
:105B1000504600F0B1FD84F80C90BDE8F08700001D
:105B20002025303278000000202020007C0000007A
:105B30002563000020000000114810B5FF2181609E
:105B4000002101604160C0F81814C0F8141480F8F6
:105B50001C140C4800F0F5F800280FD10A480B4936
:105B60000B4B401AC108002005E000BF00EB4002CB
:105B700023F82200401C8842F8D3002010BD00000A
:105B80003C3700209C7302003C7C0200DC7B02005E
:105B9000102D002002480349401AC0087047000039
:105BA0003C7C0200DC7B020013B56846FEF7BAFEBF
:105BB00008B100201CBD0248009950F831001CBDFE
:105BC000DC7B020070B508480125D0F8104480F84D
:105BD0001C5405E06572216820464968884764685E
:105BE000002CF7D170BD00003C3700202DE9FF47A5
:105BF00081460C9D00200C462F7B28739846164644
:105C00002946184600F056FD072E42D2DFE806F07E
:105C100004090F161F2A360049462846FFF744FBA1
:105C200037E0494628462268FFF73EFB31E0D4E9D9
:105C3000002349462846FFF737FB2AE0A06800907A
:105C4000D4E9002349462846FFF72EFB21E0D4E99A
:105C50000201CDE90001D4E9002349462846FFF7B7
:105C600023FB16E004F1080007C88DE80700D4E91B
:105C7000002349462846FFF717FB0AE004F1080015
:105C80000FC88DE80F00D4E9002349462846FFF7E6
:105C90000BFB00222946404600F0EEFC2F73BDE8C6
:105CA000FF872DE9F041058A80462D1F4819C01C49
:105CB000B0FBF5F0C6B24046FEF755FE041E19D003
:105CC0000020207101206071E58000272546761EA6
:105CD000C4F800800BE04046FEF745FE60B16179F4
:105CE000491C6171286005467F1CC0F80080B742DE
:105CF000F1D32046BDE8F081204600F002F80020F4
:105D0000F8E72DE9F041457901466B1E002201E0DC
:105D10000968521C9A42FBD30F680146002605E031
:105D200038460C68FEF741FE2146761CAE42F7D39A
:105D3000BDE8F08108B501216A46001DFCF79DFA17
:105D400008BDFEF74ABE38B50446001D01216A466B
:105D5000FCF7A0FA009810F0FF0F04D12046BDE830
:105D60003840FFF7CEBF38BD38B501240094FEF7A8
:105D70009DFD38BD38B500240094FEF797FD38BD71
:105D8000064910B500204870091D0860BFF35F8FF9
:105D90000349044800F0F0F9002010BDA82C0020B1
:105DA000807202003036002008B500208DF8000017
:105DB0006846FDF74FF9F1EE100A20F09F00E1EE82
:105DC000100ABFF35F8F08494020C1F880029DF898
:105DD0000000FDF763F900F0ABF908B13EDF08BD44
:105DE00020BF40BF20BF08BD04E000E0F8B5044676
:105DF0000D4801216A46FCF75BFABFF35F8F00256F
:105E000000280AD10121084E042C09D0301F427805
:105E100022B100BFBFF35F8F3560F8BD04704170E1
:105E200000F076FDF6E70000AC2C002020B103491D
:105E300009680160002070470E2070472874020036
:105E40002DE9FE4306460D460846FFF7EFFF002802
:105E50007ED18046CDF80080CDF804800124032057
:105E60008DF80060ADF80400CDF808808DF8024090
:105E7000694620202A6869DF3F4F40B100F0C0F931
:105E8000024638883D4904EB0040FFF7E1FDCDF8BC
:105E900000808DF800808DF80140CDF80480CDF8A9
:105EA00008808DF80240694640202A6869DF40B1C9
:105EB00000F0A6F902463888314904EB0040FFF7AC
:105EC000C7FDCDF800808DF80060F720ADF8020026
:105ED000CDF80480CDF80880694623202A6869DF60
:105EE00040B100F08DF902463888264904EB0040A5
:105EF000FFF7AEFDCDF80080CDF80480CDF8088026
:105F00008DF800404646694601202A6869DF40B1A5
:105F100000F076F9024638881B4904EB0040FFF791
:105F200097FD4FF4B0600090019602966946A1205B
:105F30002A6869DF40B100F063F9024638881349E6
:105F400004EB0040FFF784FD00960196029600E006
:105F500010E08DF800606946A0202A6869DF40B132
:105F600000F04EF902463888094904EB0040FFF77B
:105F70006FFD0020BDE8FE83882D0020707A0200AE
:105F8000B87A0200047B0200D07902001C7A020079
:105F90007C7902002DE9F0410446D0F800E060DF92
:105FA0002368144D0646734515D02888022707EB51
:105FB0000040724610A1FFF752FDF806D0F80C0120
:105FC0002168800200F10050421A288816A107EBD0
:105FD0000040FFF73DFD56B1304600F011F9024692
:105FE0002888012101EB004018A1FFF731FD304660
:105FF000BDE8F081882D002052414D2073746172FC
:10600000747320617420307825782C2063616E20B1
:1060100062652061646A757374656420746F2030F2
:106020007825782E0000000052414D2073697A6572
:106030002063616E2062652061646A7573746564B3
:1060400020746F20307825782E00000073645F6222
:106050006C655F656E61626C652829207265747578
:10606000726E65642025732E0000000030B5EBB021
:106070004FF4CE75ADF8A8516AA9684661DF30B11A
:10608000052816D06BB0BDE83040FCF78DBE6C46DD
:10609000094967A800F070F807E000BFD0E90021C7
:1060A0002046904767A800F07EF869980028E1D064
:1060B000F4E76BB030BD00002C74020038B5104C12
:1060C000207808B1082038BD0125A570002000F017
:1060D000CBFB112812D0002000F0DEFB09480A4952
:1060E00000680090684610DF0028ECD12570A07091
:1060F000607000F051FC012000F0CEFB002038BDA4
:10610000082D0020C0730200312D02000EB5074992
:10611000684600F031F805E0D0E90010884768468D
:1061200000F041F802980028F6D10EBDDC730200A1
:106130000148007870470000082D00201FB5684610
:1061400048DF30B1052814D004B0BDE81040FCF79A
:106150002BBE084901A800F00FF806E0D0E90021A5
:106160000098904701A800F01EF803980028E6D098
:10617000F4E71FBD48740200016009684160AFF395
:10618000008010B5D0E900215368994201D1002167
:1061900004E0D1E90034A34202D01946816010BD69
:1061A00008314160F0E7816800290BD002689268ED
:1061B0000A44826041684B689A4203D108314160C9
:1061C000FFF7DFBF704700000C4A10B502F1F00383
:1061D0000EE0991AC91001EBD171491002EBC1010F
:1061E0000C68844201D90B4602E005D201F1080295
:1061F0009A42EED3002010BD486810BDA072020084
:1062000000B5FFF7E1FF002800D1014800BD000004
:106210008C7202004058002800D00120704708B559
:10622000002242504058009008BDD0F804030840B6
:1062300000D0012070474058002800D0012070474E
:1062400008B5002242504058009008BD2DE9F84F93
:1062500005460C460888B5F8CA12884259D195F807
:10626000C602DFF8F8A000EB8001C1EB801005EB5F
:10627000400160884FF003094FF00008F0BBE6884A
:106280000879A21DF3B250FA86F6062E01D803440F
:1062900000E006230B7100261CE000BF00EBC003EA
:1062A00006EB860702EB470701EB4303D7F802C072
:1062B000C3F80AC0D7F806C0C3F80EC07F895F8252
:1062C000A3F81480A3F81680A3F81880401CA3F844
:1062D0001A80761C0B798342E0D895F8C62200EB31
:1062E000C00002EB8203C3EB821205EB420231F8DD
:1062F0001000128990420ED2087900E00BE00628C7
:1063000009D085F8C50221882846FDF79FFD0100C8
:106310000AD1BDE8F88F85F8C582228869462846EB
:10632000FDF726FE01000BD085F8C782228828469B
:10633000FDF7DCFE8AF800902188AAF80210E8E751
:106340009DF800000028E4D0228801212846FDF7AE
:1063500085FE2188284600F039F9DAE73C31002033
:106360002DE9FC418E88027900EBC605AC1D2A732D
:10637000C97B012902D0022904D101E0008800E094
:1063800040882080218860880127DFF8648081426E
:106390000CD930469EDF020025D0112A25D0B8F84E
:1063A0000000144907EB0040FFF752FBA079E179A8
:1063B000884216D9002000900190287BADF800009B
:1063C000287BADF8020000226946304690DF0300CA
:1063D00007D0B8F80000324607EB00400649FFF747
:1063E0003EFBBDE8FC816771E0E72771DEE7000056
:1063F0001C2D0020DC740200AC750200F8B50546C7
:106400000C460888B5F8CA1288425DD195F8C602D4
:10641000A61D00EB8001C1EB801005EB400395F851
:10642000C502618800EBC00003EB40000A3039B3BD
:1064300029E000BF01EB410206EB42029788B7F565
:10644000245F0CD06FF4245C17EB0C070AD0012FEB
:1064500002D0072F0BD108E05288428107E0528812
:10646000828104E05288C28101E05288028242891E
:106470002AB182891AB1C2890AB1028A1AB9491CA1
:1064800032888A42D6D800268DF8006095F8C50279
:106490001979401C884203D101208DF8000018E0D2
:1064A00085F8C502228869462846FDF761FD01008E
:1064B0000BD085F8C76222882846FDF717FE0A48E8
:1064C0000321017021884180F8BD9DF8000000285B
:1064D000FAD0228801212846FDF7C0FD21882846F0
:1064E00000F074F8F8BD00003C3100207CB5064691
:1064F0008D88C88806EBC504A41D172800D2172074
:106500002188814200D808466080002020712188BF
:106510002846ADDF020007D00E480121008801EBBC
:1065200000400D49FFF794FA6079002810D13069D6
:1065300000280DD00948D0E90210CDE90010ADF8CF
:1065400002506088ADF804003269694630469047D1
:106550007CBD00001C2D002020750200E8710200A7
:1065600070B505460C4690F8C602228800EB800103
:10657000C1EB801005EB4001B5F8CA02824222D17E
:10658000608848B100212846FDF768FD218828462B
:10659000BDE8704000F01AB8A2680A60E068C1F86F
:1065A000060021882846FDF751FC01000BD0002091
:1065B00085F8C70222882846FDF798FD0248032186
:1065C00001702188418070BD3C3100202DE9F041EF
:1065D000044690F8C9020E46401C1949C0B284F81E
:1065E000C902C9680327174D4FF0000E884224D214
:1065F00084F8C5E294F8C602401CC0B200EB8001EA
:10660000C1EB801104EB410284F8C602A5F1180128
:1066100001EB800001210068106082F804E0304640
:1066200094DF010007D084F8C7E232462046FDF728
:106630005DFD2F706E80BDE8F08184F8C7E2F8E759
:10664000602C00203C3100200449084490F93000BF
:10665000082801DB012070470020704750340020DB
:106660000449084490F93000082801D201207047FD
:10667000002070475034002010B50C46C17949B154
:106680001AB109A12046FEF70FFE2046BDE81040D2
:10669000FEF717BE007A0028F3D0044804A1026870
:1066A0002046FEF701FEECE70D0A0000E42C002076
:1066B0002573000070B50446C0790D4600281CD132
:1066C000207A50B1A179A088FFF7A0F80B4951F8C2
:1066D00020200BA12846FEF7E7FDA0880021FFF748
:1066E00063FA03460549A079143951F82020284659
:1066F000BDE8704003A1FEF7D7BD70BDE42C0020BB
:10670000257300003C25733E2025733A20000000CD
:1067100070B50C4B00210A4ADC680DE002EB8105E4
:106720008678AD78B54206D132F821500688B54258
:1067300001D1586870BD491CA142EFD3002070BD43
:1067400024310020602C002070B5012670044FF029
:10675000E0210025C1F88001084C4010C4F848032E
:10676000C4F8080366602F20FEF728FAA660044CE0
:106770002F20A560FEF722FAA57070BD0010014021
:10678000842C002070B50546C87D0C4600284FF4C7
:10679000847128460AD0FFF742FDD5F81805627EBD
:1067A000E1688854607E401C607670BDFFF737FD5D
:1067B000D5F8180570BD1FB501238DF800308DF890
:1067C00008100192D0E90012684690471FBD10B52D
:1067D000044600684FF49271FFF721FD4FF4847175
:1067E0002068FFF71CFD20680121016010BD00003A
:1067F00010B507488ADF08B1FCF7D6FA0120FDF78B
:1068000061F9002803D0BDE81040FCF7CDBA10BDF7
:106810001871020038B50021012558B101280ED0A9
:1068200003280BD107210020FEF748FABDE83840C5
:10683000FEF72EBA4FF0E020C0F8805138BD8DF839
:1068400000106846FCF706FC064C207808B9FEF7F5
:10685000FBF9E068401CE060A5709DF80000FCF7C3
:106860001DFC38BD3C3400203EB50446094968464D
:10687000FFF782FC08E000BFD0E9002120469047E6
:1068800030B16846FFF78FFC02980028F4D13EBD76
:1068900011203EBDC47302003EB504460849684657
:1068A000FFF76AFC07E000BFD0E9002120469047CF
:1068B0006846FFF778FC02980028F5D13EBD00003D
:1068C000D07302002DE9F04114000F460DD00025D1
:1068D0000A26791922460020FBF7B4FF0544241A42
:1068E00008B9761E01D0002CF3D1BDE8F08110B5B7
:1068F00004460020FDF7E6F808B1FCF755FA24B984
:10690000FDF750F808B1FCF74FFA012010BD000068
:1069100070B5194D194C07E00168207888470028A8
:1069200029D01548FFF73FFCA8680028F4D1FFF7ED
:1069300049F900BFFEF790FF0028FBD1207803281B
:106940000CD002280AD0FFF7F3FB00B132DF0C496C
:1069500001200860BFF34F8F20BFFDE7BFF34F8FCB
:1069600008480168084A01F4E06111430160BFF37F
:106970004F8F00BFFDE770BD30360020A82C0020EF
:10698000000500400CED00E00400FA05002801D1EC
:10699000FDF77EBA7047000010B51620FCF73CF9F1
:1069A000B0B1124890F800044009082813D290B101
:1069B000012810D004280ED005280CD00C4882687D
:1069C0004FF480016AB1016841F48001016010BD9B
:1069D00042F2010001E042F20200BDE81040FCF783
:1069E000E3B94FF0E020C0F8001110BD16E000E060
:1069F000243600202DE9F843214C8846054691466F
:106A00001F4669461846A668FDF796F970B30098C8
:106A1000811C00220AE000BF01EA060C59F822306E
:106A200004EB8C0C491C521CCCF80C30BA42F3D34A
:106A30000246401C304004EB80002B0CC36002EA8D
:106A4000060004EB8002E80652F80C0F02D540F075
:106A5000040001E020F0040065F3C50067F389102D
:106A600068F39F2020F00300401C106094F81C0481
:106A700002E000BFFEF7F0FE0028FBD1BDE8F8837E
:106A80003C3700202DE9F84F1D4C00256846D4E91D
:106A900001A6FDF777FB002738B30023009A616851
:106AA0001CE0D1F800C00846944503D9ACEB0202C3
:106AB0000A6015E0A2EB0C0263440760D0F80CC03A
:106AC000C1698146BCF1000F08D006EB030828F02D
:106AD0007F48C0E9018CC9F81C5005460029E0D167
:106AE00028466160FDF774FD03E02846FDF770FD60
:106AF00010B15046FDF7E0F9E770BDE8F88F0000EF
:106B0000842C00200D4B10B5596831B102680C6817
:106B1000A24204D8A21A0A60C161586010BD0B4697
:106B200003E00B46C969121B21B10C689442F8D3EB
:106B3000A41A0C600260C161D86110BD842C0020D1
:106B40002DE9F041144E77683D462C4603E084421F
:106B500004D02546E469002CF9D11BE0D4B1A5424C
:106B60000BD1F869706040B90C49012088600021A0
:106B7000B160F0702F20FEF721F82168E069E8612C
:106B800010B10268114401607068874202D0012090
:106B9000BDE8F0810020FBE7842C002000100140BC
:106BA0007CB5064600240D468DF800406846FCF78B
:106BB00051FA01A800F092FA70B1057009494660D7
:106BC0009DF8040048709DF80000FCF767FA142057
:106BD000FBF7DCFD20467CBD04249DF80000FCF79B
:106BE0005DFAF7E7F83400202DE9F041194D6C68A3
:106BF000002C2CD0184800270068A968B846401A15
:106C000020F07F462068B0420CD82146361A07444F
:106C1000E469087C20B181F8108088694969884757
:106C2000002CEFD129786878814206D1401CC0B28F
:106C30006870022801D185F80180064869780C3017
:106C400040F82170BDE8F0411420FBF79FBDBDE87E
:106C5000F0810000842C00200415014070B50C4622
:106C600005464FF48E71FFF7DAFAA18AA068415CFD
:106C7000A08A401CA082C5F81C1570BD1FB500225B
:106C80008DF800208DF80810816801918275D0E997
:106C90000012684690471FBD70B50278044652B195
:106CA0001A480121012A008801EB004025D0022A60
:106CB00022D117A122E0244C224D60882844FCF701
:106CC00037F96088401C80B22918608011F8011CD7
:106CD0000A2902D0218888420ED31A49628801F518
:106CE0003D70FCF7DBFC082804D01128F5D008B172
:106CF000FCF75AF80020608070BD14A1FEF7A4FED6
:106D00006068BDE87040FCF74FB80000702D0020AF
:106D1000436F6D6D756E69636174696F6E20657226
:106D2000726F72206F636375727265642077686931
:106D30006C652068616E646C696E672055415254C1
:106D40002E000000A02D0020782900204572726FCF
:106D500072206F6363757272656420696E204649A4
:106D6000464F206D6F64756C652075736564206295
:106D70007920554152542E007CB50178244D81B3C1
:106D800001290BD002292BD18DF80010C068691C95
:106D900001900122C81DFEF7D9F82EE04068017865
:106DA0001C48FCF727F81B4C012618B18DF8006031
:106DB000019006E0A068E168814205D000208DF8CE
:106DC0000000696868468847A068E168081AA188D9
:106DD000884207D80E490122491CC81DFEF7B6F8A3
:106DE0007CBD01E0AE70FBE70A4809491030FBF7B3
:106DF000E6FF30B103208DF80000696868468847D7
:106E0000EEE70349012201F10800FEF7BBF9E7E7CD
:106E1000982C0020043600202DE9FF470C4605463B
:106E20004FF40071FFF701FA01274FF401780026B3
:106E300018B34FF4927949462846FFF7EBF9E0B1D1
:106E400049462846FFF7EBF9C5F80883A07E00B94C
:106E50006F6002208DF80000D5F88004C5F880042A
:106E60000390E07D8DF80800E0680190E6752676D5
:106E7000D4E900126846904727E004212846FFF72E
:106E8000D4F910B34FF484712846FFF7C3F9E0B189
:106E900021462846FFF776FCE07D617E884214D1CA
:106EA000207E38B1617EE268E0752069E060267678
:106EB000667607E0A07E00B96F60C5F80883E675C6
:106EC000617EE2682046FFF776FC4FF48E784146FB
:106ED0002846FFF79FF988B1A08AA17D884204D295
:106EE00021462846FFF7BAFE08E041462846FFF74C
:106EF00096F9A17D11B12046FFF7C0FE4FF4A278AC
:106F000041462846FFF786F9002812D04146284618
:106F1000FFF785F9A07E00B12F60E07D002808D042
:106F2000E675617EE26804B02046BDE8F047FFF7F1
:106F300042BCBDE8FF872DE9FF410C464FF4927734
:106F400005463946FFF777F90026C0B1394628468D
:106F5000FFF776F902208DF80000D5F88004C5F817
:106F600080040390D5F83C058DF80800E068019096
:106F7000E6752676D4E900126846904724E04FF47F
:106F8000887739462846FFF756F9E8B1394628464A
:106F9000FFF756F9D5F83C05C1B2E07D884213D120
:106FA000207E60B1E268D5F8000220F02000C5F82C
:106FB0000002207EE0752069E060267601E0E6753B
:106FC000E2682046FFF7F7FB4FF4A27739462846E0
:106FD000FFF731F968B139462846FFF731F9E07D0E
:106FE00038B1E675D5F83C05E268C1B22046FFF736
:106FF000E2FB4FF4907631462846FFF71CF9002853
:107000000FD031462846FFF71BF9A07D002808D095
:10701000D5F84C0504B0C1B22046BDE8F041FFF7F9
:107020002DBEBDE8FF8100002DE9F05F8346DDE95C
:107030000A4A994690460D460846012703E000BFDC
:10704000B0FBF8F07F1C4045FAD2B94500D94F4655
:107050005FEACA7012D18CB15FEA8A7002D5B9F1C9
:10706000000F01D0202607E0302605E031465846C3
:10707000641EFCF793FE0CB1A742F7D35FF0010644
:10708000B9F1010F02D9A9F1010903E0B5FBF6F04E
:10709000404502D306FB08F6F2E7DFF83C9000BF5C
:1070A000B5FBF6F000FB165519F800105846FCF732
:1070B00075FEB6FBF8F6002EF2D15FEACA7009D071
:1070C000002C07D0A74205D220215846641EFCF7A9
:1070D00065FEF5E7BDE8F09F587202000A494A785C
:1070E0008B78521CD2B2934200D100220B7893428B
:1070F00001D1002070470270487800EB400001EB9E
:10710000C000001D70470000F8340020010002009C
:1071100010003C00000090010100A00050000000A1
:107120000800000006000000050000000700000045
:107130000000000000E0D7010D0E0F100B0C181915
:10714000B8300020D8300020043100200B000300AC
:10715000C53902000C000300C53902001800030005
:10716000C539020019000300C53902000100000002
:10717000000000000000000000000000000000000F
:1071800000000000000000000000000000000000FF
:1071900000000000000000000000000000000000EF
:1071A00000000000000000000000000000000000DF
:1071B00000000000000000000000000000000000CF
:1071C00000000000000000000000000000000000BF
:1071D00000000000000000000000000000000000AF
:1071E0000000000000000000770A0000000000001E
:1071F000770A0000000000007ADA000000000000BA
:107200009ECADC240EE5A9E093F3A3B50000406E0E
:107210000101000000000200000000000201000067
:1072200000000000000000000000005000030050BB
:10723000D834002003000000FFFFFFFFFFFFFFFF27
:10724000FFFFFFFFFFFFFFFF000000000000000046
:107250000000D601070100003031323334353637B3
:107260003839414243444546000000000000000018
:107270003C7C0200407C0200000000000000000096
:10728000687202008072020004000000556E6B6E8E
:107290006F776E206572726F7220636F6465000095
:1072A00000000000E478020001000000A477020062
:1072B000020000002476020003000000187802009B
:1072C000040000006C7802000500000064770200F2
:1072D0000600000004770200070000005478020056
:1072E000080000007877020009000000C47702005F
:1072F0000A000000CC7802000B0000000C760200AF
:107300000C000000907702000D000000F0780200F1
:107310000E000000447802000F0000008078020098
:1073200010000000B478020011000000047902008F
:10733000800000004477020081000000C87602004F
:107340008200000088760200830000006876020058
:1073500084000000A4760200850000001C77020073
:10736000860000002C78020090000000E476020005
:10737000910000004876020000820000947802002C
:1073800001820000E077020002820000FC77020028
:10739000215702001F57020019570200C82C002075
:1073A000C02C0020C82C00207C36002018000000D3
:1073B00000000000000000000000000000000000CD
:1073C00001000007B0730200C07302000800000053
:1073D000E8730200F873020008000000F87302006E
:1073E0000874020008000000807C0200887C020013
:1073F0000000000000000000707C0200807C0200A1
:10740000000000000000000000000000000000007C
:10741000407C0200587C0200587C0200607C020024
:10742000607C0200687C0200782900200874020059
:107430002874020008000000687C0200707C0200D2
:1074400000000000000000003874020048740200D0
:107450000800000000404040404040404040414162
:107460004141414040404040404040404040404019
:1074700040404040400502020202020202020202B3
:1074800002020202022020202020202020202002B0
:107490000202020202029090909090901010101040
:1074A00010101010101010101010101010101010DC
:1074B0000202020202028888888888880808080870
:1074C000080808080808080808080808080808083C
:1074D00002020202400000005574020073645F6201
:1074E0006C655F67617474635F65786368616E671C
:1074F000655F6D74755F7265717565737428292099
:1075000072657475726E656420756E6578706563FA
:107510007465642076616C756520307825782E005E
:1075200073645F626C655F67617474735F657863D1
:1075300068616E67655F6D74755F7265706C7928E0
:10754000292072657475726E656420756E65787039
:1075500065637465642076616C7565203078257884
:107560002E00000073645F626C655F6761705F642A
:107570006174615F6C656E6774685F757064617477
:1075800065282920287265706C79292072657475C8
:10759000726E656420756E657870656374656420CD
:1075A00076616C756520307825782E0073645F6293
:1075B0006C655F6761705F646174615F6C656E6765
:1075C00074685F757064617465282920287265711C
:1075D0007565737429206F6E20636F6E6E656374BA
:1075E000696F6E20307825782072657475726E65CB
:1075F0006420756E65787065637465642076616C6F
:10760000756520307825782E000000004E52465FC8
:107610004552524F525F494E56414C49445F444196
:10762000544100004E52465F4552524F525F534FF5
:1076300046544445564943455F4E4F545F454E417D
:10764000424C4544000000004E52465F4552524FA6
:10765000525F464541545552455F4E4F545F454E2B
:1076600041424C45440000004E52465F4552524F45
:10767000525F4D555445585F554E4C4F434B5F46F6
:1076800041494C45440000004E52465F4552524F1E
:10769000525F4D555445585F4C4F434B5F464149EF
:1076A0004C4544004E52465F4552524F525F4D5535
:1076B0005445585F434F4E445F494E49545F4641DD
:1076C000494C4544000000004E52465F4552524F1F
:1076D000525F4D555445585F494E49545F464149A4
:1076E0004C4544004E52465F4552524F525F415006
:1076F000495F4E4F545F494D504C454D454E5445A2
:10770000440000004E52465F4552524F525F4E4F6A
:10771000545F535550504F52544544004E52465FAB
:107720004552524F525F4D4F44554C455F414C526C
:10773000454144595F494E495449414C495A454491
:10774000000000004E52465F4552524F525F4D4F6F
:1077500044554C455F4E4F545F494E495449414C46
:107760005A4544004E52465F4552524F525F4E4F6B
:10777000545F464F554E44004E52465F4552524F5D
:10778000525F494E56414C49445F53544154450061
:107790004E52465F4552524F525F444154415F53EF
:1077A000495A45004E52465F4552524F525F53561A
:1077B000435F48414E444C45525F4D495353494EF7
:1077C000470000004E52465F4552524F525F494EAD
:1077D00056414C49445F4C454E4754480000000018
:1077E0004E52465F4552524F525F4452565F545775
:1077F000495F4552525F414E41434B004E52465FF6
:107800004552524F525F4452565F5457495F45525A
:10781000525F444E41434B004E52465F4552524FD9
:10782000525F494E5445524E414C00004E52465F05
:107830004552524F525F53544F524147455F465550
:107840004C4C00004E52465F4552524F525F4E55CF
:107850004C4C00004E52465F4552524F525F494ECB
:1078600056414C49445F504152414D004E52465F93
:107870004552524F525F4E4F5F4D454D0000000044
:107880004E52465F4552524F525F464F5242494414
:1078900044454E004E52465F4552524F525F44524D
:1078A000565F5457495F4552525F4F5645525255A5
:1078B0004E0000004E52465F4552524F525F494EB5
:1078C00056414C49445F4144445200004E52465F89
:1078D0004552524F525F494E56414C49445F464CC7
:1078E000414753004E52465F53554343455353005F
:1078F0004E52465F4552524F525F54494D454F5587
:10790000540000004E52465F4552524F525F42555E
:10791000535900007761726E696E67006465627525
:10792000670000001B5B313B33306D001B5B306D2B
:10793000000000001B5B313B33316D001B5B313BB2
:1079400033326D001B5B313B33336D001B5B313BCE
:1079500033346D001B5B313B33356D001B5B313BBA
:1079600033366D001B5B313B33376D00696E666FDC
:10797000000000006572726F7200000073645F6245
:107980006C655F6366675F73657428292072657430
:1079900075726E6564202573207768656E2061744A
:1079A00074656D7074696E6720746F2073657420E0
:1079B000424C455F47415454535F4346475F5345EC
:1079C00052564943455F4348414E4745442E0000C7
:1079D00073645F626C655F6366675F7365742829B3
:1079E0002072657475726E656420257320776865F2
:1079F0006E20617474656D7074696E6720746F2099
:107A000073657420424C455F434F4D4D4F4E5F436D
:107A100046475F56535F555549442E0073645F6275
:107A20006C655F6366675F7365742829207265748F
:107A300075726E6564202573207768656E206174A9
:107A400074656D7074696E6720746F20736574203F
:107A5000424C455F47415454535F4346475F41544E
:107A600054525F5441425F53495A452E0000000072
:107A700073645F626C655F6366675F736574282912
:107A80002072657475726E65642025732077686551
:107A90006E20617474656D7074696E6720746F20F8
:107AA00073657420424C455F434F4E4E5F434647DB
:107AB0005F4741502E00000073645F626C655F6336
:107AC00066675F73657428292072657475726E65C8
:107AD00064202573207768656E20617474656D700D
