:020000022000DC
:10200000F0FC032081720200A9720200AB72020090
:10201000AD720200AF720200B17202000000000057
:10202000000000000000000000000000B372020089
:10203000B572020000000000B7720200B97202001F
:102040002D470200BB72020041510200BB72020028
:10205000BB720200BB7202004D4B0200BB72020059
:10206000BB720200BB720200BB720200BB720200B4
:10207000BB720200BB720200BB720200BB720200A4
:10208000BB7202003D310200BB720200BB72020053
:10209000DD310200BB72020081750200BB720200DA
:1020A000BB720200BB720200BB720200BB72020074
:1020B000BB720200BB7202000000000000000000C2
:1020C000BB720200BB720200BB720200BB72020054
:1020D000BB720200BB720200BB720200BB72020044
:1020E000BB720200BB720200BB7202000000000063
:1020F00000000000BB72020000000000BB72020082
:1021000000000000000000000000000000000000CF
:1021100000000000000000000000000000000000BF
:1021200000000000000000000000000000000000AF
:10213000000000000000000000000000000000009F
:10214000000000000000000000000000000000008F
:10215000000000000000000000000000000000007F
:10216000000000000000000000000000000000006F
:10217000000000000000000000000000000000005F
:10218000000000000000000000000000000000004F
:10219000000000000000000000000000000000003F
:1021A000000000000000000000000000000000002F
:1021B000000000000000000000000000000000001F
:1021C000000000000000000000000000000000000F
:1021D00000000000000000000000000000000000FF
:1021E00000000000000000000000000000000000EF
:1021F00000000000000000000000000000000000DF
:1022000010B5054C237833B9044B13B10448AFF330
:1022100000800123237010BD8429002000000000ED
:10222000688602000C4B43B10C480D4910B5AFF362
:1022300000800C48036823B910BD0A48036833B90D
:102240007047094B002BF7D0BDE810401847064BEC
:10225000002BF5D0184700BF000000006886020080
:10226000882900200829002000000000154B002BC1
:1022700008BF134B9D46A3F5803A00218B460F46BD
:102280001348144A121A05F058FB0F4B002B00D0CC
:1022900098470E4B002B00D09847002000210400E7
:1022A0000D000D48002802D00C48AFF3008005F067
:1022B000F5FA2000290003F08FFC05F0DBFA00BFDF
:1022C00000000800F0FC03200000000000000000F7
:1022D00084290020283400200000000000000000B5
:1022E000704700BF00B583B0044B0093044A4023FD
:1022F00000F020F803B05DF804FB00BF05230200E6
:10230000A02900208AB1F8B50F4614460A260025F8
:1023100022467919002003F0EDFC0544241A08B97F
:10232000013E01D0002CF3D1F8BD7047704700BFCB
:1023300003F09EBEF0B595B0002415460F46084642
:102340001E4601F0F1FF384623460822089505A9EC
:102350001A9D09960D950A948DF82C400C9402F064
:1023600049F89DF81430079806998DF8104003F04D
:102370000302012A0290ADF80C102CD0022A04D0DE
:10238000384601F0E1FF15B0F0BDBDF81650C3F3BB
:10239000C202C3F38003C5F389158DF80E208DF8B2
:1023A0000F300826082D2C4628BF08243346224625
:1023B0000EA9384602F01EF82D1B214608AB02AAD2
:1023C0000EA8264400F0E2FC002DEBD1384601F0C7
:1023D000BBFF15B0F0BDBDF814500598C5F38315CB
:1023E000C3F3C20EAA000EA9C3F38004C0F395265E
:1023F000082338468DF80EE08DF80F4001F0FAFF03
:1024000008AB00932A4630460EA902AB00F026FC2A
:10241000B6E700BF10B5054CFFF78AFF2046042140
:1024200000F0DCFB0123637210BD00BF0827002011
:102430000F4B104810B50022FF21C3F818249960F3
:102440001A605A60C3F8142483F81C2401F022FF98
:1024500068B90949094BC91AC90808D0084C02468D
:102460000346A3520133994202F10C02F9D110BD87
:10247000E0290020BC7C0200CC8602007C860200A1
:102480000C29002021B9124A02EBC00000687047F5
:1024900030B410490E4D491BC9080ED00E4B5A8856
:1024A000824218BF002205D10FE0DC89844203F18B
:1024B0000C0305D001329142F7D1002030BC7047A7
:1024C00005EBC200006830BC70472846FAE700BF41
:1024D0007C860200CC8602000C290020094B0139C1
:1024E00003EBC00003290BD8DFE801F00208060463
:1024F0000220704740797047007970470420704788
:10250000002070477C8602002DE9F047814C94E85A
:102510000C009A4284B040D00023C4F81834BFF3B2
:102520004F8F6068A56800EA0506F31C04EB830181
:1025300014F823309F07024610D10B884988C3F353
:10254000891303EB911301331A4405EA0206F31CC5
:1025500004EB830114F823309B07EED004EB8606CE
:10256000511CF3680193294004EB810103F003033C
:10257000C9680291022B02F1020812D0012B74D01B
:10258000032B06D02368181A18BF012004B0BDE839
:10259000F087D4F81834002BF4D1002004B0BDE843
:1025A000F087BDF806305C48C3F389194F46502FB9
:1025B000A8BF502767F38F1307F10801ADF8063065
:1025C00001F06AFE064600284DD025EA080A0AF105
:1025D000010A01F0A9FE4FEA8A0A0023082201A994
:1025E000304601F0D9FE574540F28780BAF1000F1E
:1025F0007CD005EA08010331A7EB0A0504EB810151
:10260000082352463046EDB201F0C6FE2A460AF1D2
:1026100008034249304601F0BFFE09F1030708EB09
:102620009707D4F81834002B5BD1D4F810544DB16F
:102630006B7A3146284613B12B681B6898476D6842
:10264000002DF5D1304601F07FFE04A8002300F8EC
:102650000D3D01F053FAD4F8183403B967609DF8C2
:10266000030001F071FA60688CE7BDF804302A4875
:10267000C3F38312062A28BF0622911C62F3891332
:102680008900ADF8043001F007FE06460028EAD0C4
:1026900001F04AFE0023082201A9304601F07CFE29
:1026A000BDF8043013F4707F32D04FF0000A4FF0C1
:1026B000080908EA050103314B4604EB81010422B5
:1026C000304601F069FEBDF804300AF1010AC3F397
:1026D000831308F10107534509F10409B846E8D806
:1026E0009FE7304601F030FE60684BE73A4608232A
:1026F0000A49304601F050FE8FE705EA0801033130
:1027000004EB81013A460823304601F045FE84E798
:10271000474686E7E0290020BC7C0200EC29002027
:102720002DE9F04F87B006AB00255C4C03F80D5D3A
:1027300080461846A3680093019101F0DFF9A06874
:102740006768D4F80090C3190133A3EB0903032B86
:102750005BD800F1010AAE46AAEB090A04F5836CC6
:1027600004F2144601255CE8003F43EA05024CE808
:10277000002191F0000FF6D156E8003F43EA050230
:1027800046E8002191F0000FF6D100EA070B0BF1AB
:10279000030304EB830114F823309B073A4611D15D
:1027A0000B884988C3F3891303EB911301331A444F
:1027B00000EA020B0BF1030304EB830114F823304E
:1027C0009B07EDD004EB8B0B0232DBF80C3003934C
:1027D00003F00303012B5BD0022B06D1BDF80E30B2
:1027E000C3F38913033302EB930256E8003F03EA75
:1027F0000E0146E8001B9BF0000FF6D10BB16260A2
:1028000017460AEB0703032BADD909EA000303338C
:1028100009F1020114F823209DF80B0042F0030295
:1028200004F82320216001F08FF9009B09F10102D7
:102830001A4004EB820203EA090303334FEA18410A
:10284000D16014F82320C8F3001161F3820268F309
:10285000C50204F8232034F8232001996FF389126C
:1028600024F8232054F8232061F39F2211460120ED
:1028700060F3010144F8232004F8231094F81C3479
:102880001BB1FFF741FE0028FBD107B0BDE8F08F78
:10289000BDF80C30C3F383131A44A6E7E0290020E7
:1028A0002DE9F04F89B008AB4FF0000903F80D9DFA
:1028B0005E4C0291074618460392A56801F01EF986
:1028C00094E80011A06800EB0C030133A3EB0803AC
:1028D000042B5DD800F1010AAAEB080A04F2144E99
:1028E00001260195524D55E8003F43EA060245E8AE
:1028F000002191F0000FF6D15EE8003F43EA0602A6
:102900004EE8002191F0000FF6D100EA0C0B0BF11C
:10291000030304EB830114F823309D07624613D1AF
:10292000019D0B884988C3F3891303EB911301338D
:102930001A4400EA020B0BF1030304EB830114F8C1
:1029400023309B07EDD0019504EB8B0B0232DBF8B3
:102950000C30059303F00303012B61D0022B06D149
:10296000BDF81630C3F38913033302EB93025EE81C
:10297000003F03EA09014EE8001B9BF0000FF6D16F
:102980000BB1626094460AEB0C03042BAAD9019D9B
:1029900008EA0000C31C08F1030114F823209DF885
:1029A000130042F0030204F82320216001F0CCF868
:1029B00008F1020208F101032A402B4004EB8202D5
:1029C00004EB830305EA08050335390C0398D0604E
:1029D000D96014F82530C7F3001262F3820367F35D
:1029E000C50304F8253034F82530029A012161F33B
:1029F000891324F8253054F8253062F39F231A46B2
:102A000061F3010244F8253004F8252094F81C34C1
:102A10001BB1FFF779FD0028FBD109B0BDE8F08FAD
:102A2000BDF81430C3F383131A44A0E7E029002053
:102A3000F82D00202DE9F04F89B008AE002506F8EA
:102A40000D5D654C00903046039301910292D4F8DD
:102A5000088001F053F8A0686768D4F80090C319A3
:102A60000133A3EB0903052B5BD800F1010AAE4645
:102A7000AAEB090A04F5836C04F2144601255CE80C
:102A8000003F43EA05024CE8002191F0000FF6D127
:102A900056E8003F43EA050246E8002191F0000FA6
:102AA000F6D107EA000B0BF1030304EB830114F8E2
:102AB00023309B073A4611D10B884988C3F3891309
:102AC00003EB911301331A4400EA020B0BF10303E9
:102AD00004EB830114F823309B07EDD004EB8B0B40
:102AE0000232DBF80C30059303F00303012B6CD0AA
:102AF000022B06D1BDF81630C3F38913033302EB62
:102B0000930256E8003F03EA0E0146E8001B9BF0E3
:102B1000000FF6D10BB1626017460AEB0703052BD5
:102B2000ADD909EA0003033309F1040114F82320A5
:102B30009DF8130042F0030204F82320216001F005
:102B400003F809F1020009F1030109F1010200EAA9
:102B50000800009E029F04EB800001EA080102EADF
:102B6000080204EB810104EB820208EA0903C76052
:102B700003330398C860350CD56014F82320C6F3DE
:102B8000001161F3820266F3C50204F8232034F8D1
:102B90002320022161F3891224F82320019954F89B
:102BA000232061F39F221146012060F3010144F8C4
:102BB000232004F8231094F81C341BB1FFF7A4FC65
:102BC0000028FBD109B0BDE8F08FBDF81430C3F385
:102BD00083131A4495E700BFE029002030B4144D58
:102BE000D5F81044002154B1237A8B4213D02346E8
:102BF00002E01A7A8A420ED05B68002BF9D101728A
:102C0000D5F810347BB15B684360D5F81034586058
:102C1000084630BC704701310A29E4D14FF0FF313A
:102C2000084630BC7047C5F810044360F0E700BFA9
:102C3000E029002038B5084BD3F81044012583F86B
:102C40001C543CB12368657220465B6898476468F1
:102C5000002CF7D138BD00BFE02900202DE9F04756
:102C600084B01D460C9C002394F80C802373EB79F0
:102C700081460E4617460BB3062F0FD8DFE807F044
:102C8000363B414804515E00F168B06896E80C009C
:102C9000019100904946204600F0DAFFEB792BB90C
:102CA0002B7AEBB93349204600F0D2FF204600F0E2
:102CB000C3FF84F80C8004B0BDE8F0872B7A002BAA
:102CC0004BD1AA792C4BA88853F822A00021FFF7FA
:102CD000D9FB524603462949204600F0B9FFCBE70D
:102CE000274A2849204600F0B3FFDBE74946204643
:102CF00000F0AEFFD2E732684946204600F0A8FF58
:102D0000CCE7494696E80C00204600F0A1FFC5E755
:102D1000B16896E80C0020460091494600F098FF03
:102D2000BCE7B068F768316996E80C0002918DE85D
:102D300081004946204600F08BFFAFE7706931699A
:102D400096E80C000390B068F76802918DE8810066
:102D50004946204600F07CFFA0E7A979A888FFF744
:102D6000BDFB094B074953F82020204600F070FFB7
:102D7000A7E700BF247D0200287D0200107D02002D
:102D80001C7D02000C7D0200D47C020008295DD865
:102D90002DE9F04F1D46914600232A7B2B7383B00B
:102DA00099F80730019207460E46002B4FD0DFF806
:102DB0000CB1DFF80C810024A642414628463DD9DB
:102DC0003A5D013400F044FF082CF5D13449DFF8B6
:102DD000F480DFF8F4B0284600F03AFF002411E058
:102DE00017F804A004F07EFD50445946437813F0D0
:102DF000970F14BF52462E222846013400F028FFB8
:102E0000082C08D0A64241462846E9D8013400F0F3
:102E10001FFF082CF6D199F8073013B999F808303C
:102E20004BBB2049284600F013FF284600F004FF62
:102E30009DF804302B7303B0BDE8F08F0134594680
:102E4000284600F005FF082CB6D1BFE7704799F877
:102E50000830B3B999F80620134BB9F8040053F8B9
:102E600022400021FFF70EFB224603460F49284669
:102E700000F0EEFE9BE70E4A0E49284600F0E8FE01
:102E8000CFE799F80610B9F80400FFF727FB0A4BC3
:102E9000084953F82020284600F0DAFEDAE700BFA0
:102EA000047D0200247D0200287D0200107D0200C6
:102EB0001C7D02000C7D0200D47C0200007D02001B
:102EC000F87C0200187D0200087D02002DE9F84F11
:102ED000254B93F800E0BEF1000F31D0DFF88CB045
:102EE000DFF88CA0DFF88C900024012703E0013488
:102EF000E4B2744524D226B2DBF80050DAF8003090
:102F000015F8360007FA00F1194205EBC608EED0B5
:102F100023EA0103CAF8003001F008FE15F8366014
:102F2000D9F8003007FA06F52B4000FA06F18B427B
:102F300008D00D4B013493F800E0E4B27445DAD3C5
:102F4000BDE8F88FD8F80430002BF2D098F80110C3
:102F5000A1F10101B1FA81F14909091AB1FA81F12E
:102F6000490930469847E4E7D02E0020002F002082
:102F7000FC2E0020F82E002070B50646114800F007
:102F800081FD40B9104D01242B68B4401C4203D090
:102F900023EA04042C6070BD304601F0C7FD0B4EDF
:102FA000326860B122432B68094932601C432C60AF
:102FB000044809680022BDE8704000F00DBD22EA17
:102FC0000402F0E7D82E0020FC2E0020F82E00206E
:102FD000D42E0020042A01D8072070472DE9F041A3
:102FE00082B088460546174601F04AFC002836D0D4
:102FF0001D4C1E481E491F4A1F4B2560002608F124
:10300000FF3480F800800F6016601E60E4B2B8F1F3
:10301000000F1ED0DFF86C80032701E0FF2C18D0D2
:1030200023B205EBC30215F8330093788DF80470D2
:10303000424601A98DF806608DF807608DF80530CD
:1030400001F028FC013CE4B20028E7D002B0BDE862
:10305000F0810A4A0A48002100F0ACFCF6E701F0D2
:10306000C9FB0028C4D0F1E7002F0020D02E00209B
:10307000D42E0020F82E0020FC2E0020CD2E0200A1
:103080009C7D0200792F020070B5084D2B785BB152
:10309000074E00243368012113F8340001F0CAFC04
:1030A0002B780134A342F5D8002070BDD02E00202B
:1030B000002F002000B585B000230390194601AA17
:1030C00044F20100ADF80430029300F003F805B0BB
:1030D0005DF804FB10B5FFF7ADFDFFF715FA00280A
:1030E000FBD1104C10492088000440F00100FFF78C
:1030F00017FB0E4B1B68DB0700D5FFDE20880C4951
:10310000000440F00200FFF70BFBBFF34F8F0949AB
:10311000094BCA6802F4E0621343CB60BFF34F8FE0
:1031200000BFFDE70C290020A07D0200F0ED00E0CB
:10313000AC7D020000ED00E00400FA05F8B5204A7D
:10314000204B0025C2F84051C2F84451C2F8485102
:10315000C2F84C51C2F80051C2F804511B6813B3B5
:103160001949D2F804450A68A41A1A6824F07F4461
:10317000A2422F4609D8197CDE69A41A154499B9D0
:103180001EB133461A68A242F5D91049104A0B788D
:1031900012789A420DD00F490F4A41F823504FF44C
:1031A0008013C2F80031F8BD1F745A6998699047BE
:1031B000E6E7531CDBB2022B08BF00230B70EAE7E3
:1031C0000010014024300020203000201D3000205D
:1031D0001C3000201430002000E100E02DE9F04F09
:1031E0007D4A7E491378097899428BB03BD00133F0
:1031F000DBB27B490491022B0D687A49069108BF26
:1032000000231370784A084652F82310D0F8009033
:10321000049A6B18002423F07F434E46AC4613609B
:10322000204627462546AEB133688B4200F2ED8139
:10323000F4683760C91A1844F3693CB10CEB000E0E
:103240002EF07F42F561B460726035461E4601245F
:10325000002EE9D12A46B146002C40F0DB82012342
:103260000793069B07E05F4B5D4A0492D3F80090FA
:10327000069300220792D3F800A05C4BDFF874C1DC
:103280001B780593049B186800234946CE46089393
:10329000D146099303934FF0010B17469A46804697
:1032A00037B37C68BD683B46FF695148A4EB080210
:1032B00022F07F42824258D815441D60002283F8D4
:1032C00010B05A609A60DA6100296ED008688542B1
:1032D00063D90C4603E01068A8424FD21446E26955
:1032E0002D1A002AF7D11D60DA61E361002FD8D1D1
:1032F0000297CDF804E09CF801709CF800200025AE
:10330000974200F08680104600EB40000CEBC000B6
:10331000541C9CF80230E2B204798CF800209342ED
:1033200004BF8CF800500022022C83684ED0032C7E
:1033300040D0012CE4D11E7C002EE1D1C4685C6039
:1033400005699D604269DA6082699A61059A029F07
:10335000DDF804E0002AA8D03446A4EB0802244893
:103360005E6022F07F428242A6D9A8EB040424F0DA
:103370007F44AC4208D22D1B1D609FE7401B1060AC
:103380001D60DA61E361B1E7002583F810B01D60CC
:103390005D609D60DD6141B10868451B0D60994627
:1033A000D9614FF0010A19467AE7994619464FF05C
:1033B000010A75E70029A3D00022CB690A741946D7
:1033C000002BFAD199464FF0010A94E7D9B19942FE
:1033D000084615D110E100BF1C3000201D30002030
:1033E0002030002024300020143000201030002035
:1033F000FEFF7F00042F0020A34200F0E88020465B
:10340000C469002CF8D10E4697421D7431467FF4F2
:103410007AAF4046D046CA46DDF80490B8F1000FB6
:1034200040F0F481099B002B40F0ED81089B1BB11B
:103430007B4B9DF814201A70039B13B9494500F08B
:103440004C81002900F04E81764C049BD4F8040591
:103450001B68754D0F682978C21A22F07F4203322B
:10346000002951D17149DFF8C8C1DFF8C8E14FF434
:103470008036C4F84463C4F804634FF40036C1F8DE
:1034800080610E60012626602F21DCF8004000BF1D
:1034900000BF00BF00BF00BF00BF00BF00BF74453A
:1034A0002FD000BF00BF00BF00BF00BF00BF00BFE4
:1034B00000BF00BF00BF00BF00BF00BF00BF00BF14
:1034C00000BF00BF00BF00BF00BF00BF00BF00BF04
:1034D00000BF00BF00BF00BF00BF00BF00BF00BFF4
:1034E00000BF00BF00BF00BF00BF00BF00BF00BFE4
:1034F00000BF00BF00BF00BF00BF00BF00BF00BFD4
:1035000000BF0139C3D12E7097422CBFDB199B1825
:10351000444923F07F43C1F84035D1F80425121AFD
:103520001B1A22F07F4223F07F4303329A4248D98C
:10353000D1F804353E4AC1F8403512683D492F2381
:1035400000BF00BF00BF00BF00BF00BF00BF00BF83
:103550008A422FD000BF00BF00BF00BF00BF00BF26
:1035600000BF00BF00BF00BF00BF00BF00BF00BF63
:1035700000BF00BF00BF00BF00BF00BF00BF00BF53
:1035800000BF00BF00BF00BF00BF00BF00BF00BF43
:1035900000BF00BF00BF00BF00BF00BF00BF00BF33
:1035A00000BF00BF00BF00BF00BF00BF00BF00BF23
:1035B00000BF00BF013BC3D11C4B4FF40032C3F826
:1035C0000021174A002313700BB0BDE8F08F83422F
:1035D00012D00E46DC69D3F800E0C46134B1226831
:1035E000724422609CF800209CF801700398B1425C
:1035F00018BF0120039007E7D1F81C90B9F1000F24
:103600001AD04E464FF0010AE4E72A46B146002C94
:1036100060D15B1AC9F8003001230793069B2AE6A4
:1036200010300020001001401130002000E100E0C7
:103630002C2700200024F400784E794CC6F808B0FE
:10364000784E4FF02F0E366800BF00BF00BF00BF9E
:1036500000BF00BF00BF00BFA6422FD000BF00BF09
:1036600000BF00BF00BF00BF00BF00BF00BF00BF62
:1036700000BF00BF00BF00BF00BF00BF00BF00BF52
:1036800000BF00BF00BF00BF00BF00BF00BF00BF42
:1036900000BF00BF00BF00BF00BF00BF00BF00BF32
:1036A00000BF00BF00BF00BF00BF00BF00BF00BF22
:1036B00000BF00BF00BF00BF00BF00BFBEF1010ED2
:1036C000C2D1012634460896C8464E460594099450
:1036D000A2467FE7069806609BE7079B002B3FF416
:1036E00070AFAEE64D4A504B4E4E4D4C4FF48030CD
:1036F0004FF400370125C3F88070C2F848032F2328
:10370000C2F80803556030681E4600BF00BF00BF06
:1037100000BF00BF00BF00BF00BFA0422FD000BF4E
:1037200000BF00BF00BF00BF00BF00BF00BF00BFA1
:1037300000BF00BF00BF00BF00BF00BF00BF00BF91
:1037400000BF00BF00BF00BF00BF00BF00BF00BF81
:1037500000BF00BF00BF00BF00BF00BF00BF00BF71
:1037600000BF00BF00BF00BF00BF00BF00BF00BF61
:1037700000BF00BF00BF00BF00BF00BF00BF013ED1
:10378000C3D19560049A116000BF00BF00BF00BFA5
:1037900000BF00BF00BF00BFA0422FD000BF00BFCE
:1037A00000BF00BF00BF00BF00BF00BF00BF00BF21
:1037B00000BF00BF00BF00BF00BF00BF00BF00BF11
:1037C00000BF00BF00BF00BF00BF00BF00BF00BF01
:1037D00000BF00BF00BF00BF00BF00BF00BF00BFF1
:1037E00000BF00BF00BF00BF00BF00BF00BF00BFE1
:1037F00000BF00BF00BF00BF00BF00BF013BC3D17F
:103800000A4B1970DDE6049B18600FE6069BC3F8AF
:1038100000A007E6069B1E6021E500BF00100140E6
:103820000024F4002C27002000E100E011300020EB
:10383000F0B4564B564A574E574C4FF480304FF425
:1038400000310125C2F88010C3F848032F21C3F8C6
:1038500008035D6030680E4600BF00BF00BF00BFB8
:1038600000BF00BF00BF00BFA0422FD000BF00BFFD
:1038700000BF00BF00BF00BF00BF00BF00BF00BF50
:1038800000BF00BF00BF00BF00BF00BF00BF00BF40
:1038900000BF00BF00BF00BF00BF00BF00BF00BF30
:1038A00000BF00BF00BF00BF00BF00BF00BF00BF20
:1038B00000BF00BF00BF00BF00BF00BF00BF00BF10
:1038C00000BF00BF00BF00BF00BF00BF013EC3D1AB
:1038D0009D6000BF00BF00BF00BF00BF00BF00BFB2
:1038E00000BFA0422FD000BF00BF00BF00BF00BF7D
:1038F00000BF00BF00BF00BF00BF00BF00BF00BFD0
:1039000000BF00BF00BF00BF00BF00BF00BF00BFBF
:1039100000BF00BF00BF00BF00BF00BF00BF00BFAF
:1039200000BF00BF00BF00BF00BF00BF00BF00BF9F
:1039300000BF00BF00BF00BF00BF00BF00BF00BF8F
:1039400000BF00BF00BF0139C3D1144E144D154C48
:103950001549164F00203070286020704FF48015F4
:10396000E0240B26087048708E7038701049C2F839
:10397000805182F814431560C3F8080582F811439A
:10398000D3F804350B60F0BC704700BF0010014055
:1039900000E100E02C2700200024F400113000207A
:1039A000243000201C300020042F00201D30002077
:1039B00020300020074B9B780BB9082070473AB1A4
:1039C00030B10368187C0028F7D159745A617047E8
:1039D00007207047042F00202DE9F043264CA378E0
:1039E00083B01BB9082003B0BDE8F0830028F9D0EC
:1039F000042903D8072003B0BDE8F0834369002BF6
:103A0000F0D0064602A8737C0025012B00F8015D6A
:103A10000CBF8946A94690460F4600F06FF86378C0
:103A2000A07821785A1CD2B2904208BF2A4691420F
:103A30001BD003EB430304EBC30301200F491871B0
:103A40009E60D1F804159DF80700D9601F61C3F886
:103A50001490C3F81880627000F076F8084B4FF4A9
:103A600080122846C3F80021BDE79DF8070000F04A
:103A70006BF80420B7E700BF042F002000100140BE
:103A800000E100E070B51B4CA37882B013B90820A8
:103A900002B070BD0028FAD04369002BF7D006466B
:103AA00002A8002500F8015D357400F027F862785F
:103AB000A0782178531CDBB2984208BF2B4699426C
:103AC00012D002EB420204EBC20202219DF8070071
:103AD00096601171637000F037F8074B4FF4801255
:103AE0002846C3F80021D3E79DF8070000F02CF822
:103AF0000420CDE7042F002000E100E070B4EFF3D4
:103B0000108472B60D4B9A68AAB90D490D4E012565
:103B10009D60D1F8805035401D60C1F88060D1F8BB
:103B200084505D604FF0FF33C1F88430027004B9F7
:103B300062B670BC704701230370F8E7A43300201D
:103B400000E100E0FC06FFBD094B9A6872B168B95C
:103B500010B4EFF3108272B606491C680C605C6802
:103B60004C60986002B962B65DF8044B704700BFC4
:103B7000A433002000E100E0B8B130B441688268AD
:103B80000468521AD2B2531E2160DBB242B10168FE
:103B90000A685C1E551C0D601370E3B2FF2BF6D152
:103BA00003680020187130BC70470E20704700BFBA
:103BB000F0B583B002AB002503F8015D044618465A
:103BC000FFF79CFF236861681A688A4210D9511E6A
:103BD00019602168A3680E6812F8015C0A79278AC7
:103BE000E0689B1BDBB29A4207FB050538BF0B71EF
:103BF0009DF80700FFF7A8FF284603B0F0BD00BFFF
:103C000030B583B002AB002203F8012D05461846FB
:103C10000C46FFF773FF2A681368591C1160E968A6
:103C20002A8A641AB4FBF2F41C709DF80700FFF7AF
:103C30008BFF03B030BD00BF826802B9704710B57A
:103C4000044643690168006998470023A36010BDDA
:103C50000EB400B582B0039929B102AA04AB42F8B0
:103C6000043D00F095F802B05DF804EB03B0704736
:103C70002DE9F84F1746B942884606461D46DDF83D
:103C800028B00B9A7DD30B464FF00109B3FBF7F335
:103C90009F4209F10109F9D9A94538BFA94612F097
:103CA000010A02D1BBF1000F49D1B268012402E040
:103CB000013D07FB04F4012DFAD8B8FBF4F18F4263
:103CC000F7D9324D05E0B4FBF7F4A4B1B8FBF4F139
:103CD000B268685C531CB36033689854B268736808
:103CE0009A4204FB1188EED33046FFF7A5FFB4FBE0
:103CF000F7F4002CEAD1BAF1000F16D0BBF1000F97
:103D000033D0CB4588BF20243ED9B3683268591CD4
:103D1000B160D454B26873689A420BF1FF3B06D28B
:103D2000BBF1000F09D0D945EFD1BDE8F88F30467F
:103D3000FFF782FFBBF1000FF5D1BDE8F88F9307C5
:103D40001AD42024CB45B0D9B2683368511CB16075
:103D50009C54B26873689A420BF1FF3B07D2BBF1E7
:103D6000000FA3D0CB45F0D1A0E7BDE8F88F3046D7
:103D7000FFF762FFB268F2E7002D0CBF3024202469
:103D8000E0E74FF0010987E7BDE8F88FC47D020046
:103D9000002900F06F822DE9F04F064685B093466A
:103DA0000C460B780DE0B2683168501CB0608B5443
:103DB000B26873689A4280F0D3802378002B00F0B9
:103DC000BA800134002B00F0B680252BEBD14FF0E8
:103DD0000008234614F8012B2D2A00F0BB80302A5E
:103DE00000F0BB802B2A00F0AD802A2A00F0BC80B6
:103DF000A2F13005E9B2092998BF013302D9A9E13E
:103E0000A1F130051C4613F8012BA2F1300005EB9F
:103E10008501092802EB4101F2D92E2A00F0B08079
:103E2000002701E014F8012F02F0FB03682BF9D002
:103E3000253A532A7AD8DFE812F07A01790079001E
:103E400079007900790079007900790079007900AA
:103E5000790079007900790079007900790079009A
:103E6000790079007900790079007900790079008A
:103E7000790079007900790079007900790079007A
:103E8000790079007900790079007900790079006A
:103E9000790079007900790079007900790079005A
:103EA0006A01790079007900790079007900790058
:103EB0007900790079005501FC00790079007900DA
:103EC0007900FC00790079007900790079007900A7
:103ED000540079007900CA007900BA0079007900AD
:103EE0006A01DBF80020131DCBF80030B3681568B9
:103EF00031685A1CB2604FF03002CA54B36872681D
:103F0000934280F0A0813268581C7821B060D1546F
:103F1000B26873689A4280F092810022082301926D
:103F20002946009310223046FFF7A2FE0134237881
:103F3000002B7FF446AF337B002B40F0058105B0AA
:103F4000BDE8F08F234614F8012B2D2A48F0040811
:103F50007FF445AF48F001083BE748F0020838E736
:103F60003046FFF769FE28E7DBF80020111DCBF88B
:103F7000001015685A782E2A03F101047FF450AF1F
:103F80006278A2F13003092B04F101044FF000071D
:103F90003FF64AAF07EB870702EB470714F8012FFC
:103FA000A2F13003092BA7F13007F3D93CE7DBF886
:103FB00000301A1DCBF800201968CDF804803B466C
:103FC00000950A223046FFF753FE0134AFE7DBF8D5
:103FD00000301A1DCBF8002018F0010FD3F8009024
:103FE00040F0BB80B9F1000F00F04781484603F074
:103FF000B4FC0746BD4240F2F180002D00F0EE8097
:104000004FF0200805E0BD4200F0E880002D00F0F0
:10401000E580B3683268591CB16002F80380B26869
:1040200073689A4205F1FF35EDD33046FFF704FE81
:10403000E9E7DBF800301A1DCBF80020D3F8009038
:1040400089EAE973A3EBE973092B4FF0010A09DD53
:104050008F4A82FB0312DB17C3EBA203092B0AF181
:10406000010AF5DCBA4538BFBA462DB3B9F1000FE5
:1040700002DB18F0040F00D0013D18F0020F40F0F1
:10408000F58018F0010F17D1002D00F0FE80AA4531
:1040900038BF202110D2B2683368501CB0609954E8
:1040A000B26873689A4205F1FF3580F0E880002D10
:1040B00000F0EB80AA45EED1B9F1000FC0F2C88044
:1040C00018F0040F7BD108F00303022B00F09A8054
:1040D0008DE820013B4649460A223046FFF7C8FDDD
:1040E000013424E7DBF80020131DCBF80030B3685F
:1040F00031681278581CB060CA54B26873689A422A
:10410000FFF414AF3046FFF797FD01340FE7DBF8FB
:1041100000301A1DCBF800201968CDF804803B460A
:10412000009510223046FFF7A3FD0134FFE6B36887
:104130003268591CB1604FF02501D154B2687368E0
:104140009A42DFD20134F2E6304605B0BDE8F04FC6
:10415000FFF772BD1C4600255FE64F46A7EB090836
:1041600017F8013B8BB1B2683168501CB0608B54BA
:10417000B26873689A42F1D33046FFF75DFDA7EB52
:10418000090817F8013B002BEDD145457FF6CEAE6F
:10419000202705E045453FF4C9AE002D3FF4C6AEEB
:1041A000B3683268591CB160D754B26873689A42D8
:1041B00005F1FF35EED33046FFF73EFDEAE7B26882
:1041C0003368501C2B21B0609954B26873689A42CE
:1041D000FFF479AF3046FFF72FFD74E709F1FF399F
:1041E00019F8013F002B3FF4A1AEB2683168501CB2
:1041F000B0608B54B26873689A42F1D33046FFF7CF
:104200001BFDEDE7002F7FF463AF002D33D0AA45EF
:10421000BFF45EAFB2683368511CB1604FF030013B
:104220009954B26873689A4205F1FF3503D215B309
:10423000AA45EFD14CE73046FFF7FEFCF7E73046E2
:10424000FFF7FAFC69E63046FFF7F6FCB3685AE67A
:10425000B2683368501C2D21B0609954B2687368FD
:104260009A42C9F10009FFF42EAFB3E7002F3FF4E3
:1042700023AF06E7704700252AE74F46BAE63046E7
:104280000391FFF7D9FC039911E7002514E700BF5C
:1042900067666666FFF770BC2DE9F041B0F81080E4
:1042A000CF1CA8F1040847440646B7FBF8F7FFF710
:1042B0007FFC80B3FFB200250123013F0446A0F834
:1042C000068006600571437128D0804609E0637955
:1042D000AF4203F101036371C8F800000660804635
:1042E0001CD03046FFF764FC01350028EFD1667919
:1042F000721E16D02346013082421B68FBD81F680D
:104300004EB1214600250C6801353846FFF778FC90
:10431000AE422146F7D10020BDE8F0812046BDE83D
:10432000F0812768EDE700BF10B40430012350E8A6
:10433000002F02EB030140E8001494F0000FF6D1C7
:104340005DF8044B704700BFF8B5021D012152E82B
:10435000004FA4EB010342E8003595F0000FF6D1C1
:1043600013F0FF0300D0F8BD4579691E12D0024654
:10437000013399421268FBD81768002DF3D001462B
:1043800000240E6801343846FFF73AFCA542314656
:10439000F7D1F8BD0768F2E72DE9F843C688043382
:1043A0000F46B3FBF6F5904606FB1533044615B1F0
:1043B000013D2468FCD1F51A454528BF4546B8F1B2
:1043C000000F15D04FF000090433E018A8EB0508E2
:1043D0002A4607EB090103F0A5FA4645A9442468DB
:1043E00035464FF0000328BF4546B8F1000FEBD12A
:1043F000BDE8F8832DE9F843C68804330F46B3FBC4
:10440000F6F5904606FB1531044615B1013D2468CA
:10441000FCD1751A454528BF4546B8F1000F15D0A7
:104420004FF0000904312144A8EB05082A4607EBA8
:10443000090003F077FA4645A944246835464FF051
:10444000000128BF4546B8F1000FEBD1BDE8F88365
:1044500001600B6843604A68934204BF00234360D5
:10446000704700BF436843B1026891680B444360E2
:104470005268934204BF00234360704730B4184D24
:10448000A5F1F002AB1ADB1003EBD3735B1002EB68
:10449000C30152F83330984228BF0C4605D311E0CF
:1044A00052F8333098420CD221468B1ADB1003EBC2
:1044B000D3735B10914202EBC304F1D8094830BCBE
:1044C00070470D46984204D904F10802AA42D9D394
:1044D000F4E76068034B002808BF1846EFE700BF09
:1044E000E47E0200E07D0200074B1B5C1F2B8ABFAD
:1044F000064A4FF0A04203F01F03D2F80405D8404B
:10450000C04300F001007047EC810200000300503E
:10451000074B1B5C1F2B86BF03F01F0305494FF0A1
:10452000A041012202FA03F3C1F80C35704700BF25
:10453000EC81020000030050074B1B5C1F2B86BF61
:1045400003F01F0305494FF0A041012202FA03F3D3
:10455000C1F80835704700BFEC810200000300502D
:104560004FF0A04310B44FF480404FF400544FF488
:1045700000414FF48032C3F80845C3F80805C3F87A
:104580000815C3F808255DF8044B70474FF0A043A9
:1045900010B44FF480404FF400544FF400414FF4F6
:1045A0008032C3F80C45C3F80C05C3F80C15C3F8EA
:1045B0000C255DF8044B70470A4B195C1F298ABF14
:1045C00009484FF0A04001F01F01D0F80435012246
:1045D0008A4022EA03011340C0F80815C0F80C35E0
:1045E000704700BFEC8102000003005030B44FF070
:1045F000A04303224FF400554FF480444FF4004091
:104600004FF48031C3F83427C3F83827C3F83C2768
:10461000C3F84027C3F80855C3F80845C3F8080590
:10462000C3F8081530BC70470B2809D00C2809D0F6
:10463000182809D019280CBF03204FF0FF3070470D
:1046400000207047012070470220704758B910B50C
:10465000054CA36833B10CCB0020A2609847A36837
:10466000002BF8D110BD70472830002010B501286C
:1046700082B029D022D303281ED10721002000F0C8
:1046800091F802A80023264C00F8013DFFF736FA06
:10469000E368013BE360E36853B9224B01221A60EF
:1046A0004FF08042D2F8183413F48033FAD1A3705B
:1046B0009DF80700FFF748FA02B010BD1A4B01221F
:1046C000C3F8802002B010BD02A80023144C00F8EB
:1046D000013DFFF713FA237853B1E3689DF8070013
:1046E00001330122E360A270FFF72EFA02B010BD81
:1046F0000D4A6360A3602361E360106810F001005D
:104700000AD002F037FF20B94FF080430122C3F8EE
:10471000182501232370E0E7072100F043F8F0E7B4
:10472000283000200C00004000E100E010B51A4BDA
:104730001A6882B0A2B100221A601B6800934FF081
:1047400080430122154C0099C3F80823A3686270C6
:1047500033B10CCB0020A2609847A368002BF8D19E
:104760000F4B1A68AAB100221A601B6801934FF020
:1047700080430222094C0199C3F8082323690122CE
:10478000A27033B10CCB0120226198472369002B22
:10479000F8D102B010BD00BF000100402830002059
:1047A00004010040002810B418DB00F1604303F559
:1047B00061434901C9B283F80013C3B240098000C4
:1047C00000F1604000F5614003F01F0201239340B7
:1047D000C0F8803103605DF8044B7047C3B2044AEF
:1047E00003F00F0449012244C9B21176E6E700BF85
:1047F000FCEC00E030B51F4C94F8645083B015B168
:10480000082003B030BD4FF0FF33FF220721062000
:1048100023636363A363E36323646364A364E36464
:1048200023656365A365E36523606360A360E3605C
:1048300023616361A361E361236284F86030636292
:10484000A36284F86230E36284F8633084F8612004
:10485000FFF7A8FF084B094A1D601B6801930198E8
:104860004FF000430121284684F86410C2F8043355
:1048700003B030BD3C3000207C610040006000404F
:10488000034B93F86400003018BF0120704700BF4D
:104890003C300020F0B5654C251895F93030002BE0
:1048A00001DB0820F0BD91F803E0BEF1000F50D00D
:1048B0002368013300F0B4800826012554F8253020
:1048C00001334CD06B1C54F82370013748D0AB1C1B
:1048D000B3423CD254F82370013741D0EB1CB342B1
:1048E00035D254F8237001373AD02B1DB3422ED263
:1048F00054F82370013733D06B1DB34227D254F8DC
:10490000237001372CD0AB1DB34220D254F8237052
:10491000013725D0EB1DB34219D254F8237001376B
:104920001ED005F10803B34211D254F823700137A9
:1049300016D005F10903B34209D254F823700137A8
:104940000ED00A35B54202D2E36A013366D00420A4
:10495000F0BD236A01333BD00C260925AEE72B4678
:1049600026185DB244F8232086F830503246BEF156
:10497000000F33D08B78D3B91F284A7887BF2C4ECD
:1049800000F01F0303464FF0A04603F5E0739200CA
:1049900046F82320CB782BBB083D2C44097894F8AB
:1049A000602042EA811284F860201846F0BD1F287A
:1049B00087BF1F4B00F01F0202464FF0A04303EBDE
:1049C0008203D3F8002722F00202C3F80027E1E7B0
:1049D000082685F83060334622623546234483F842
:1049E0005800C7E7AB0003F1804303F5C0430978E3
:1049F000D3F8104524F44F3424F44074C3F8104520
:104A000002020904D3F8100501F4403102F47C528B
:104A10000A430243C3F810250020F0BD0B239FE793
:104A2000002385F8303022601D46A3E73C3000208B
:104A300000030050F0B43A4D2E1882B096F9303091
:104A4000072B20DD2B4493F858309B09032B45D0CE
:104A5000012B14BF4FF440314FF400311F284DD9C2
:104A600000F01F002F4B03EB8000D0F8002722F44A
:104A70004032C0F80027D0F800370B43C0F80037A9
:104A800002B0F0BC7047DAB2072AF9D8980000F1FA
:104A9000804000F5C04003F140029200D0F810457C
:104AA00092B202F18042002744F0010402F5C042B4
:104AB000C0F810450197019817600029E0D096F9D9
:104AC000302055F82220002ADAD00122164902FAB5
:104AD00003F3C1F8043302B0F0BC70471F2810D9AB
:104AE000104BD3F8103500F01F00C340DB0748BF60
:104AF0004FF44031B6D44FF40031B3E74FF0A04348
:104B0000B1E74FF0A0421346D2F81025C24012F090
:104B1000010F14BF4FF440314FF40031A3E700BF41
:104B20003C30002000030050006000401F288ABF76
:104B3000054B4FF0A04300F01F00D3F8103523FAC7
:104B400000F000F001007047000300502DE9F0472D
:104B500088B00023CB4A039302931168012900F027
:104B6000A8821E46C84B1A68012A00F09482C74BDF
:104B70001A68012A00F08182C54B1A68012A00F0E8
:104B80006E82C44B1A68012A00F05B82C24B1A681D
:104B9000012A00F04882C14B1A68012A00F03582D0
:104BA000BF4B1A68012A00F02282BE4B1A68012A04
:104BB00000F00C8216F0FF0F1AD0BB4F0125002425
:104BC000A30003F180432E4203F5C0434FEA45059D
:104BD0000BD0D3F8100557F82420D3F81015C0F3E4
:104BE0000520C1F3014102B190470134082CE7D1FF
:104BF000002E02DB08B0BDE8F0870DF1100800229E
:104C00004FF0FF33A84CA94FC8F804200492069334
:104C10000793012694F960305A1C21D05FFA83FE75
:104C20002EF0C00008AB4FEAD00903EB090C0EF0E0
:104C300007031CF8082C06FA03F31A4040F03881E9
:104C400094F96110481C00F06A8215460DE0022AB2
:104C500006D1032900F06082002D00F03682A847BB
:104C600094F961104A1C51D00025CBB223F0C0004A
:104C700008AA4FEAD00C02EB0C0E03F007011EF855
:104C8000082C06FA01F912EA090F4CD194F96210C6
:104C9000481C11D0CBB223F0C00008AA4FEAD00CB8
:104CA00002EB0C0E03F007011EF8082C06FA01F9BE
:104CB00012EA090F40F0AD8094F963305A1C0FD00E
:104CC000DBB223F0C00008AA4FEAD00C02EB0C0EB6
:104CD00003F007021EF8081C06FA02F211425AD12C
:104CE000002D87D04FF0A0430299D3F81035D7F8A4
:104CF0001025994203D1039991423FF47BAF049868
:104D00000599029303920690079183E794F9621044
:104D10004B1C01D00025BDE794F963305D1C3FF4C6
:104D200069AF0025CCE72218990992F9302054F890
:104D30002220002A00F02381032900F023811F286C
:104D400000F20C8184464FF0A04303EB8C031EF865
:104D500018CCD3F800E71CEA090FCEF3014E40F05F
:104D6000F380BEF1030F91D103290FD14FF4003E20
:104D7000D3F800C72CF4403CC3F800C7D3F800C7F1
:104D800001354EEA0C0EEDB2C3F800E7002A3FF4FD
:104D90007DAF90477AE704EB0009990999F93090C3
:104DA00054F82990B9F1000F00F0FD80032900F0BC
:104DB000FD801F288BBFBC464FF0A04C03F01F03A3
:104DC00003460CEB83031EF818CCD3F800E71CEA6B
:104DD000020FCEF3014E40F0A680BEF1030F7FF428
:104DE0007FAF032940F0A6804FF40032D3F800E7EC
:104DF0002EF4403EC3F800E7D3F800E7013542EA5D
:104E00000E02EDB2C3F80027B9F1000F40F0968012
:104E100068E72218990992F9302054F82220002AD4
:104E200000F0B780032900F0B7801F2800F2A380AC
:104E300084464FF0A04303EB8C031EF818CCD3F844
:104E400000E71CEA090FCEF3014E40F08B80BEF163
:104E5000030F7FF431AF03290FD14FF4003ED3F895
:104E600000C72CF4403CC3F800C7D3F800C7013595
:104E70004EEA0C0EEDB2C3F800E7002A3FF41CAF77
:104E8000904719E70061004004610040086100405C
:104E90000C61004010610040146100401861004046
:104EA0001C6100407C6100403C3000200003005049
:104EB00022184FEA9E1192F9302054F82250002D0A
:104EC0007BD003297CD01F283AD802464FF0A04E51
:104ED0000EEB820E1CF8189CDEF8002719EA030975
:104EE000C2F301427FF4B3AE032A7FF4B9AE0329C3
:104EF0007FF4B2AE4FF40032DEF8003723F44033D3
:104F0000CEF80037DEF800371343CEF80037002D17
:104F100000F0ED800321A84794F961104B1C00F0CC
:104F2000EB800125A1E6BEF1020F7FF4D9AE032983
:104F300000F0EF80B9F1000F3FF4D2AEC847CFE6E2
:104F40000EF01F02BE46C3E7BEF1020F7FF49EAE15
:104F500003297FF41BAF4FF4403E09E703F01F0C19
:104F60003B46F2E6BEF1020F7FF4A6AE032984D1E0
:104F70004FF4403E73E703F01F0C3B465BE7032909
:104F80007FF484AE18F80CA04AEA090A08F80CA0CD
:104F9000D5E603297FF490AE18F80CA04AEA090A76
:104FA00008F80CA041E703297FF49AAE18F80CA08A
:104FB0004AEA020A08F80CA0FBE6032940F08580C3
:104FC00018F809201A4308F809207CE700221A6023
:104FD0001B6801934FF0A042019BD2F81025564B5D
:104FE0000292D3F81035039346F00046E2E5534AA7
:104FF000D2F8042311067FF5D8AD00221A601B6891
:105000000093009B46F08006CFE54C4AD2F804237B
:1050100050067FF5C5AD00221A601B680093009B07
:1050200046F04006BCE5454AD2F8042394067FF5D5
:10503000B2AD00221A601B680093009B46F0200668
:10504000A9E53E4AD2F80423D5067FF59FAD00229C
:105050001A601B680093009B46F0100696E5374ADD
:10506000D2F8042317077FF58CAD00221A601B6865
:105070000093009B46F0080683E5304AD2F80423EB
:1050800052077FF579AD00221A601B680093009BE0
:1050900046F0040670E5294AD2F8042391077FF50B
:1050A00066AD00221A601B680093009B46F0020662
:1050B0005DE52249D1F8046316F001063FF452ADD4
:1050C000136013680093009B4CE594F961104B1C2E
:1050D0007FF4CBAD94F96210481C7FF4DBAD94F9FA
:1050E00063305A1C7FF4ECAD08B0BDE8F08794F94A
:1050F00061104D1C7FF415AF94F96210481C01D06B
:105100000125C7E594F96330591C3FF4EBAD012547
:10511000D6E54FF4403269E64FF44032ECE694F9BC
:1051200062104B1C01D01546B4E594F963305D1C48
:105130003FF460AD1546C3E5000300500060004039
:1051400070B5A54C237F8EB0002B73D1A34AD2F843
:105150000413890546D4A14BD3F80423520704D580
:10516000D3F80821002A40F0C9809C4BD3F81C21B9
:10517000BAB1A28AA17D92B28A424FF00002C3F86E
:105180001C2180F0A880D3F81C210692069AA18ADF
:10519000A28AA06889B20132415C92B2A282C3F8AD
:1051A0001C158E4BD3F84421D2B10022C3F8442100
:1051B000D3F84411A27E04910499002A40F088801B
:1051C000E37D6BB10023617EE268E37501238DF816
:1051D00030108DF828300B9294E80A000AA89847FE
:1051E0000EB070BDD2F824110029B4D0C2F8243119
:1051F000D2F82411A37E07914FF401710798C2F8E9
:1052000008130BB901235360744A02238DF8283028
:10521000D2F88034C2F88034E07DE2680D93002338
:105220008DF83000E375237621680B9263680AA835
:1052300098479AE7694BD3F82421002A40F09280DE
:10524000D3F8101161B1C3F81021D3F810110391F4
:105250000399D3F83C15E07DC9B2884200F0A480E0
:105260005E4BD3F84421B2B10022C3F84421D3F8F5
:105270004401E17D0190019869B1D3F83C35E168C2
:105280008DF8303001230B918DF82830E27594E8C9
:105290000A000AA89847514BD3F82021002A9FD032
:1052A0000022C3F82021D3F82001A17D00900098AE
:1052B000002995D0D3F84C15A3688DF830100B93C6
:1052C0008DF82820A27594E80A000AA8984787E775
:1052D00001221A6074E7D3F81C310593059B00295D
:1052E0003FF45FAFA3688DF830100B938DF8282042
:1052F000A27594E80A000AA8984752E7E27D002ABE
:105300006ED00022C3F80821D3F808210892089A29
:10531000E168627ED3F818358B54637EE27D0133F9
:10532000DBB26376637E93427FF41FAF237E002B54
:105330006CD1A37E13B9294B01225A60274AE06839
:1053400063684FF40171C2F80813627E8DF8302053
:10535000002501220B902168E5758DF828200AA808
:10536000984702E70022C3F82421D3F824110291C0
:1053700002218DF828100299D3F88014C3F8801404
:105380000D91D3F83C15E368E27522768DF8301064
:105390000B93216863680AA89847104BD3F84421FF
:1053A000002A3FF478AF5FE7217E11B3D3F80062A3
:1053B000E568E17526F02006C3F8006226698DF8DD
:1053C000300001238DF82830227621680B95E660A5
:1053D00063680AA8984743E7A430002000200040F3
:1053E000C3F80821D3F8081109910999D3F81835A1
:1053F00098E7E268E17501238DF830008DF82830D8
:105400000B9294E80A000AA8984729E7607EE568AD
:105410002169E375012200238DF83000E1602376D5
:1054200063760B958DF8282094E80A000AA898471F
:105430009BE600BF0220FFF7BFB800BF2DE9F04791
:105440000D460646FFF7F0F803281ED8012D044646
:105450001FD00ED3022D1AD11C4B00EB40041C446C
:10546000657895B11A4B1B687BB12846BDE8F047BB
:1054700018471848FEF706FB144B174A04EB440183
:105480000B44125D9D78AA42EBD0BDE8F087BDE8E1
:10549000F0870E4F4FEA400808EB0003FA18FD5C56
:1054A00053782BB9A04447440B4BBA781A55D8E728
:1054B000DFF8289007484A464FF40041FEF78CFA7F
:1054C0000028EFD189F80060ECE700BF0831002028
:1054D0003C310020E830002044310020C43000205E
:1054E00010B50078FFF7A0F803280BD8064B00EBA7
:1054F00040001844407828B1044B1B6813B1BDE844
:105500001040184710BD00BF083100203C3100207A
:10551000B34B1B68DB0700D4704770B5B14EB24D7A
:1055200033782C78FBB9172C1CD8DFE814F0F10085
:105530001401140163007600830096005D003900B9
:105540002C0039002C00A300A800A800A800A80087
:10555000A800CE00DE000101460018001800FFF789
:1055600015F82C7070BDA14B1B7800203070002BFB
:1055700000F00581FEF7E0FF0120FEF7DDFF0320CC
:10558000FEF7DAFFCFE7012318463370FFF714F870
:1055900000224FF480419648BDE87040FEF71CBAE7
:1055A000012318463370FFF707F8002240F6CD417B
:1055B0008F48BDE87040FEF70FBA8C4B1B78002B6C
:1055C00000F0FE800020FEF7B7FF0120FEF7B4FFD9
:1055D0000320FEF7B1FF0020FEF79AFF0120FEF73F
:1055E00097FF15232B7070BD0020FEF791FF072356
:1055F0002B7070BD0020FEF777FF002800F0D380ED
:105600000020FEF799FF46F2666103232B7000220B
:105610007748BDE87040FEF7DFB90020FEF764FF71
:10562000002800F0C5800020FEF786FF4FF400310F
:105630000423EBE70020FEF757FF002800F0BD80B1
:105640000020FEF779FF05232B70002241F69A1106
:105650006748BDE87040FEF7BFB90020FEF7ACFF19
:1056600006232B70002240F6CD416148BDE8704012
:10567000FEF7B2B9FEF78AFF0C232B7070BD5D48B0
:10568000FEF700FAD4F1110405467BD0002879D149
:10569000012C13D0C82303FB04F44FF4FA704FF429
:1056A00000430021C3FB04014FF47A72002302F08F
:1056B0006BF92A4601464F48FEF78EF90220FEF7A5
:1056C00027FF4A4B01221A7070BD484B1B78002BF4
:1056D00079D00020FEF730FF0120FEF72DFF0320D8
:1056E000FEF72AFF12232B7070BD404B1B78002B56
:1056F0006FD00020FEF720FF0120FEF71DFF0320E2
:10570000FEF71AFF0020FEF703FF13232B7070BD76
:10571000364B1B78002B59D00020FEF70DFF0120DF
:10572000FEF70AFF0320FEF707FF00232B7070BD72
:105730002E4B1B78002B4FD00020FEF7FDFE0120E2
:10574000FEF7FAFE0320FEF7F7FE0120FEF7E0FE6B
:1057500014232B7070BD0020FEF7C6FEC8B10020D8
:10576000FEF7EAFE022C4EF2666118BF4FF40031DC
:105770002C7000221E48BDE87040FEF72DB9FEF7E0
:10578000EFFED0E60220FEF7D7FE184B00221A707B
:1057900070BDFEF7BDFE43F2333141F69A13022C81
:1057A00008BF1946E4E7FEF7B3FE41F69A112CE76D
:1057B000FEF7AEFE43F233313AE7FEF7A9FE42E7C9
:1057C000FEF7CEFE07E7FEF7CBFE8BE7FEF7C8FE3F
:1057D000ABE7FEF7C5FE95E7FEF7C2FEB5E700BFF3
:1057E000143100201831002040310020C530002045
:1057F0001C310020C830002038B5C44B1C6814F0A0
:10580000010401D1204638BDC14C23780546E3B9D7
:10581000172D00F27881DFE815F00B01310131011D
:1058200069007D009100A5005B003500280035006F
:105830002800B300BA00BA00BA00BA00BA00E30008
:10584000F6001C01420063006300B24B1B7800208D
:105850002070002B00F02781FEF76EFE0120FEF77E
:105860006BFE0320FEF768FED2E701231846237083
:10587000FEF7A2FE00224FF48041A748BDE8384061
:10588000FEF7AAB8012318462370FEF795FE002202
:1058900040F6CD41A048BDE83840FEF79DB89D4B8D
:1058A0001B78002B00F020810020FEF745FE012030
:1058B000FEF742FE0320FEF73FFE0020FEF728FE23
:1058C0000120FEF725FE954B15221A70002499E75A
:1058D0000020FEF71DFE914B07221A70002491E76D
:1058E000FEF754FE8D4B00241D708BE70020FEF761
:1058F000FBFD002800F0E1800020FEF71DFE46F2CF
:105900006661864B844803241C700022BDE8384041
:10591000FEF762B80020FEF7E7FD002800F0DC800B
:105920000020FEF709FE4FF400317C4B7A48042436
:105930001C700022BDE83840FEF74EB80020FEF78C
:10594000D3FD002800F0CD800020FEF7F5FD734B5D
:10595000714805241C70002241F69A11BDE83840B8
:10596000FEF73AB80020FEF727FE6C4B6A48062483
:105970001C70002240F6CD41BDE83840FEF72CB83F
:10598000FEF704FE654B0C221A7000243AE76448C7
:10599000FEF778F80446D5F1110000F08780002C5E
:1059A00040F08480012814D0C82505FB00F54FF491
:1059B00000434FF4FA700021C3FB05014FF47A72E3
:1059C000002301F0E1FF224601465548FEF704F8A6
:1059D00004460220FEF79CFD4E4B01221A7011E78F
:1059E0004C4B1B78002B00F082800020FEF7A4FDBA
:1059F0000120FEF7A1FD0320FEF79EFD474B12227A
:105A00001A700024FEE6434B1B78002B75D0002053
:105A1000FEF792FD0120FEF78FFD0320FEF78CFDBF
:105A20000020FEF775FD3D4B13221A700024E9E6B5
:105A3000384B1B78002B5DD00020FEF77DFD012048
:105A4000FEF77AFD0320FEF777FD344B00241C702F
:105A5000D8E6304B1B78002B52D00020FEF76CFDAF
:105A60000120FEF769FD0320FEF766FD0120FEF729
:105A70004FFD2A4B14221A700024C3E60020FEF7C3
:105A800033FDF8B10020FEF757FD022D4EF266619E
:105A900018BF4FF40031214B1F481D700022BDE894
:105AA0003840FDF799BFFEF75BFDB1E60220FEF737
:105AB00043FD184B00221A70A4E6FEF729FD41F6BB
:105AC0009A111EE7FEF724FD43F2333141F69A1393
:105AD000022D08BF1946DEE7FEF71AFD43F2333107
:105AE00023E7FEF715FD32E7FEF73AFDE5E6FEF7A0
:105AF00037FD83E7FEF734FDA7E7FEF731FD8FE7BB
:105B0000FEF72EFDB2E700247CE600BF1431002032
:105B100018310020C53000201C3100204031002009
:105B2000C8300020F0B5204A204B1060044610F029
:105B3000020083B0196013D01D4B1E480E210F27A1
:105B400010261125197040F266620421DF709E71E3
:105B50005D72FDF73FFAA0B1E3071DD403B0F0BDBD
:105B6000E20719D4144A15480021FDF723FF002845
:105B7000F4D1134A1348012103B0BDE8F040FDF70A
:105B800019BFFDF781FA0028E6D101460E4A0F48F9
:105B9000FDF710FFE10703D50190FEF727FD0198FF
:105BA0000028DFD003B0F0BD143100203C310020CC
:105BB00008310020088202001155020030820200E4
:105BC0003554020028820200E15402002C820200B7
:105BD0003EDF704773DF704700B5002093B0FCF7DD
:105BE00027FC08B1FDF766FAFCF714FCFDF720FE70
:105BF00008B1FDF75FFA00210120FFF793FF08B11C
:105C0000FDF758FA01F03AFC08B1FDF753FA12AC6F
:105C1000002344F83C3D0120214601F0F5FC08B189
:105C2000FDF748FA204601F0C3FD08B1FDF742FA3E
:105C30005923ADF800303C2217230021274DADF841
:105C400004302046029501F078FE0023042220460D
:105C500019468DF80C308DF80F20CDF830D000F0BB
:105C6000BBFF08B1FDF726FA1D4C1022002120468B
:105C700001F063FEA0220023032520460121C4F881
:105C80000A20257063602372FFF7A4FF08B1FDF7B7
:105C900011FA0220FFF7B0FD08B1FDF70BFA114B26
:105CA00011491888000440F00300FCF739FD042373
:105CB00003220E49002000F007FD022301220C49B7
:105CC000002000F001FDFCF71FFC0028FBD1FFF7CE
:105CD0007FFF0028F7D0FDF7EDF9F4E71427002047
:105CE000483100200C29002034820200508202003A
:105CF000688202002DE9F84F4400DFF87CA12618E5
:105D00000AEBC6068146D6F82C80B8F1010F8B4607
:105D1000174661D038D3B8F1020F30D100F1010934
:105D200009EB4909756A4FEAC9094FF000081CE000
:105D3000326A641BBC420AEB09012346A2EB05044C
:105D400028BF3B469C42486828BF1C462844594609
:105D5000224601F0E7FD336A25449D4208BF002535
:105D60003F1BA044A34475620BD0B36AAB4203F15E
:105D7000FF34DDD8326A1344013B5C1BDAE74FF095
:105D800000084046BDE8F88FB36A756AAB429CBF15
:105D9000326A9B18013B5B1B9F42F2D804440AEB1A
:105DA000C40400F10109266A761B09EB4909B742D0
:105DB0000AEBC90A56D3DAF8040032462844BD1B60
:105DC00001F0B0FDDAF804000BEB06012A4601F001
:105DD000A9FDB8466562D4E7B36A756AAB4226D9B5
:105DE00003F1FF38366AA8EB0508B84528BFB84666
:105DF000761BB04523D309F1010707EB47070AEBF0
:105E0000C707A14478683246594628440AEBC90AB4
:105E1000A8EB060501F086FD78680BEB06012A4623
:105E200001F080FDCAF824504046BDE8F88F366A7C
:105E300003EB060808F1FF38A8EB0508D5E709F1E0
:105E4000010303EB43030AEBC303A14458680AEBC5
:105E5000C90A284459464246454401F063FDCAF840
:105E600024508EE7DAF804003A4628443D4401F015
:105E700059FDB846656284E7B03300202DE9F04F44
:105E8000754F3B7883B082468B469046F3B9734A90
:105E9000BB6202217B62FB62BB657B65FB654FF4E5
:105EA000007010236E4D6F4C3B6539617961BA61AA
:105EB000BA646D493862FD61F81DFC6401F045FD6E
:105EC0006A49384601F041FD2023BB714FEA4A057B
:105ED00002A805EB0A06002407EBC60600F8014DF0
:105EE000FDF70CFED6F82C90B9F1010F65D03CD32C
:105EF000B9F1020F30D10AF1010A0AEB4A0A756AB8
:105F00004FEACA0AA1461DE0326A641B444507EB0A
:105F10000A012346A2EB050428BF43469C42486879
:105F200028BF1C4628445946224601F0FBFC336A30
:105F300025449D4208BF0025B8EB0408A144A344B2
:105F400075620AD0B36AAB4203F1FF34DCD8326A1F
:105F50001344013B5C1BD9E7A1469DF80700FDF700
:105F6000F3FD484603B0BDE8F08FB36A746AA342FC
:105F70009CBF326A9B18013B1B1B9845EDD85544CA
:105F800007EBC5050AF1010A2E6A361B0AEB4A0A1D
:105F9000B04507EBCA0754D37868324620445946C7
:105FA000A8EB060401F0BEFC78680BEB0601224664
:105FB00001F0B8FCC1466C62CFE7B36A746AA342D1
:105FC00025D903F1FF39366AA9EB0409C14528BF79
:105FD000C146361BB14522D30AF1010808EB480837
:105FE00007EBC808AA44D8F80400324620445946B2
:105FF000A9EB060407EBCA0701F094FCD8F80400EB
:106000000BEB0601224601F08DFC7C62A5E7366AA7
:1060100003EB060909F1FF39A9EB0409D6E70AF1F8
:10602000010303EB430307EBC303AA44586807EBE0
:10603000CA07204459464A464C4401F073FC7C622E
:106040008BE77868594620444246444401F06AFC94
:10605000C1466C6281E700BFB0330020808202003D
:1060600068310020583100208C82020090820200AA
:10607000F8B5114C114B124AE3614FF4007500233F
:10608000104FA36210266362E362A3656365E36554
:106090000D492562A2610225A264E01DE764266520
:1060A0002561656101F051FC2046084901F04DFC75
:1060B0002023A371F8BD00BFB03300206831002059
:1060C00080820200583100208C82020090820200FF
:1060D0002DE9F84F1746B942884606461D46DDF8B9
:1060E00028A00B9AC0F0B4800B464FF00109B3FB17
:1060F000F7F39F4209F10109F9D9A94538BFA9462B
:1061000012F0010B02D1BAF1000F6BD1F068002838
:1061100061DBB268012402E0013D07FB04F4012DBC
:10612000FAD8B8FBF4F18F42F7D94D4D06E00028BC
:1061300021DBB4FBF7F4F4B1B8FBF4F1736802F1BE
:10614000010E9E4504FB118809D83068695C8154B2
:10615000F0687368C6F808E001307246F060934258
:10616000E5D131683069FFF789FEB268904234D0DA
:106170004FF0FF33F360BBF1000F2CD0BAF1000FEA
:1061800062D0D14567D22025002407E0F368002BB8
:1061900021DBBAF1000F59D0CA451CD07368511CDD
:1061A00099420AF1FF3A07D833689D54F268736840
:1061B000B160501CF0600A469342E7D11A4631683C
:1061C0003069FFF75BFEB368984235D04FF0FF337C
:1061D000F360BDE8F88FBDE8F88F0023F068B36086
:1061E0001A46A4E793072AD42024CA458ED9B26858
:1061F00007E0F068002830DBBAF1000F8AD0CA450A
:1062000088D07168501C88420AF1FF3A07D831687B
:106210008C54F2687168B060531CF36002468A4285
:10622000E7D131683069FFF729FEB2689042CDD1DD
:106230000023B3601A46DCE7B4600022A6E7002D15
:106240000CBF30242024D0E7BDE8F88FBDE8F88FDC
:106250004FF0010951E7BDE8F88FBDE8F88F00BFA6
:10626000988202002DE9F04F9DB004460390402330
:1062700000209146DFF84CB40B940CAA0C46079210
:10628000089309900A9014F8013B002B5AD0252B53
:1062900062D10027254614F8011BA1F123030D2B21
:1062A00014D8DFE803F00713131313131313101399
:1062B0000D13130A47F00807ECE747F00207E9E778
:1062C00047F00107E6E747F00407E3E7A1F13003F1
:1062D000092B4FF000040BD804EB840401EB4404B9
:1062E00015F8011FA1F13003092BA4F13004F3D9F3
:1062F0002E2972D0002601E015F8011F01F0FB03E2
:10630000682BF9D0642900F0CC8045D9732900F0BE
:106310008C8078D9752940F0B280D9F800301A1DE8
:10632000C9F800201968019707A8334600940A228B
:10633000FFF7CEFE0A986C1C002825DB14F8013B01
:10634000002BA4D100281FDD099A002A40F03E81CD
:1063500010441DB0BDE8F08F0999089D4A1CAA425F
:1063600015D8079843540A98089B099201309A421D
:106370000A90E1D107990B98FFF780FD099B98429D
:1063800000F020814FF0FF301DB0BDE8F08FA94232
:106390007FF479AF0A46EDE7582973D0632900F0FE
:1063A000EF802529C7D1099A089B541C9C4207D825
:1063B000079B99540A98089B0994013022460A9039
:1063C0009A42B8D107990B98FFF758FD099B98425C
:1063D000D8D100230A980993ADE76978A1F1300379
:1063E000092B05F101054FF0000687D806EB86065C
:1063F00001EB460615F8011FA1F13003092BA6F1A8
:106400003006F3D97AE7702995D1D9F800301A1DF2
:10641000C9F80020196800220823019207A80093F8
:106420001022FFF755FE0A9885E7D9F800301A1DAB
:10643000C9F800201E68002416F8011B00293FF44B
:106440007AAF099B089F5A1CBA420BD80798C154CF
:106450000A98089B099201309A420A9005D00028B8
:10646000EADA68E7BB42E7D11A4607990B98FFF7CB
:1064700005FD099B984285D10A980994EFE7782990
:106480007FF459AFD9F800301A1DC9F800201968F7
:10649000019707A8334600941022FFF719FE0A98C7
:1064A00049E7D9F800301A1DC9F80020D3F800A038
:1064B0008AEAEA73A3EBEA73092B4FF0010808DDBF
:1064C0008BFB0312DB17C3EBA203092B08F10108B6
:1064D000F6DCB04538BFB046002C3ED0BAF1000F14
:1064E00001DB790700D5013CBA0701D5002E34D075
:1064F00017F0010331D184B344452ED90593099A8D
:106500002023864606E0BEF1000FC0F2D9801CB3FE
:10651000444521D00899501C884204F1FF3409D821
:1065200007998B540A9A0899099002F1010ECDF847
:1065300028E002468A42E6D107990B980493FFF7B8
:106540009DFC099A049B90427FF41CAF059A099226
:10655000DDF828E00022D6E77046BAF1000F3DDBF7
:106560007B0750D407F00303022B5FD007A88DE808
:106570009000334651460A22FFF7AAFD0A98DAE650
:10658000099AD9F80040089B511C261D9942C9F868
:10659000006008D8079B206898540A98089B0991C6
:1065A00001300A460A909A427FF4C5AE07990B98CB
:1065B000FFF764FC099B98427FF4E4AE0023099343
:1065C0000A98B8E600230A980993B5E60CA903983F
:1065D000FFF754FC0A98099A1044BAE6099B089AF6
:1065E000591C9142CAF1000A5DD99342BAD1079968
:1065F0000B98FFF743FC099B98427FF4C3AE00233E
:1066000009930A980EE0099B089A591C91423BD8BD
:10661000079A2B20D0540A98089A09910130914288
:106620000A9034D00028FFF686AE9BE7002E9DD15D
:10663000002C43D0444599D9099A06E00028FFF67A
:106640007AAE002C3AD0444590D0089B511C994218
:1066500004F1FF3409D8079B4FF0300098540A9892
:10666000089B099101300A460A909A42E6D107999F
:106670000B98FFF703FC099B98427FF483AE00233D
:106680000A9809931A46D9E793427FF46BAF0799AA
:106690000B98FFF7F3FB099B98427FF473AE00233E
:1066A0000A980993BEE7079A2D20D0540A98089AB1
:1066B0000991013091420A90B4D198E7002455E73E
:1066C000704638E6676666660EB400B582B003AB06
:1066D00002AA53F8041B42F8043DFFF7C3FD02B0C1
:1066E0005DF804EB03B070476DDF704772DF7047F1
:1066F00079DF70477DDF704764DF70472DE9F04F29
:1067000085B00488DDF83880BDF83CA0B8F80050AA
:106710000195002C57D09946002317468B46054615
:106720001C4603E02A880134A24228DD6A6852F838
:106730002400039000220DF10B0103A8FFF7DCFFFA
:10674000064630BB9DF80B20BA42EBD12BB3B8F80C
:106750000020D31953451BDC4A440DF10B0103A85B
:106760000123FFF7C9FF98BBB8F800109DF80B2074
:106770000A44A8F800202A880134A242D6DC13B3C8
:10678000B8F80030019A013B9B1A9BB2FF2B17D936
:106790000C26304605B0BDE8F08FB8F800305A1C22
:1067A0003B440233534592B2F2DCA8F8002009F8CA
:1067B00002B0B8F80020013292B2A8F80020CBE76E
:1067C00009F80230E5E70026304605B0BDE8F08F55
:1067D0000646304605B0BDE8F08F00BF2DE9F04712
:1067E00000231788138090F82D3084B01446054696
:1067F0000E46002B49D1AA78002A70D1EA78002AE7
:106800002ED16A68A2B1D91CB94225D8022192F9C9
:106810000020F154238801339BB20A212380F154D4
:10682000238801339BB22380F254238801332380D1
:106830002B89002B40F02A812B8A002B40F03F81CE
:106840002B8B002B40F054812A6A002A00F0A7808D
:1068500021888B1DBB4262D90C2004B0BDE8F087B3
:10686000D91CB942F8D80221F154238801339BB2D4
:1068700001212380F15423880B449BB22380F254DE
:1068800023880B449BB22380BBE7082FE4D902A8DE
:10689000FFF72AFF0028E0D113880822CA54238872
:1068A00001339BB21B222380CA542088013080B25E
:1068B0002080062208440DF1090101F033F82388F5
:1068C0009DF8082006339BB212F0FE0218BF012289
:1068D0002380F254238801339BB223808BE7043357
:1068E000BB42B9D802A8FFF703FF0028B5D123881F
:1068F000BDF808200321F154238801339BB21921EC
:106900002380F154238801339BB2F1182380F25481
:10691000120A4A70238802339BB223806EE71388E1
:10692000052B40F2AF806FF4486803EB080080B29B
:106930004FF27D3E704540F2A5805088052840F218
:10694000A1806FF4486C84441FFA8CFCF44540F23B
:1069500099804FF6FF7E734504D0704502D0834284
:1069600000F2908005237354238801339BB21221D7
:106970002380F154238801339BB223801188F15482
:106980003344090A5970238802339BB2238052880A
:10699000F2543344120A5A70238802332380D5F804
:1069A0002480B8F1000F30D0B8F8041020888A1C79
:1069B000831C1344BB423FF64FAFFE2A3FF64CAF59
:1069C00003313154238801339BB2FF222380F254D8
:1069D000238801339BB22380B8F80020F25433445B
:1069E000120A5A702088023080B22080B8F8042041
:1069F0005AB1D8F80810002944D0304400F092FF72
:106A0000B8F8042023881344238095F82C30002BF9
:106A100040F08780287800283FF41FAF2B88012B97
:106A200030D023889A1CBA423FF616AF012805D110
:106A30006978023119448F42FFF40EAF023FFB1A0E
:106A400004A99BB221F8083DB018FFF753FE0028B7
:106A50007FF403AF2A78022A00F0AF80012A00F009
:106A6000B4800821FE2B3FF6F7AE22885D1CB5549A
:106A70002288013292B22280B1542288013213441A
:106A80002380EAE6072004B0BDE8F08705F1080896
:106A900002228DE89000404611463346FFF72EFE55
:106AA00000287FF4DAAE8DE890004046334610228D
:106AB0000621FFF723FE00283FF4BEAECDE605F128
:106AC00010088DE890004046334602220321FFF76C
:106AD00015FE00287FF4C1AE8DE890004046334695
:106AE00010220721FFF70AFE00283FF4A9AEB4E602
:106AF00005F118088DE89000404633460222142123
:106B0000FFF7FCFD00287FF4A8AE8DE8900040461A
:106B1000334610221521FFF7F1FD00283FF494AE13
:106B20009BE6D5F82880B8F1000FABD0B8F8042068
:106B30000232FE2A3FF690AE23884FF000094FF054
:106B4000160A0132F254238801339BB2238006F8DF
:106B500003A0238801339BB22380B8F80020F254AD
:106B60003344120A5A70238802339BB22380B8F848
:106B70000410F0180A4661B1D8F808301946002B05
:106B800080D000F0CFFEB8F80420238813449BB2D5
:106B9000238009F1010995F82C205FFA89F94A450B
:106BA00009EB49087FF636AFAA6A02EB8808B8F805
:106BB00004200232FE2AC4D94EE6BDF808209342D2
:106BC000FFF44FAF134609214CE76A789342FFF474
:106BD00048AF1346082145E72DE9F04395B01F2340
:106BE0000D46ADF80E300446002800F08480C278CF
:106BF00053077CD590F82D300021ADF80C10002BF8
:106C000040F0DB8183780CAF002B40F017821946EF
:106C1000032014AE31445F1C023316FA87F74FF09D
:106C2000020E16FA83F601F840EC83B2012107F850
:106C3000401CADF80C3006F8402C6668002E00F0C1
:106C40008C80D81C1F2874D90C2015B0BDE8F083A7
:106C5000A76A002F4BD0BA880232FE2AF4D8BDF8BA
:106C60000C304FF0000804AE4FF016091AE000F0A7
:106C700059FEBDF80C30BA8894F82C1013449BB21E
:106C8000ADF80C3008F101085FFA88F8884508EB88
:106C9000480280F0F080A76A07EB8207BA880232C8
:106CA000FE2AD1D80DF1500E9E44581C01320DF130
:106CB000500C0EF8402C1CFA80F09A1C92B200F88E
:106CC000409CADF80C203888B0543244000A507013
:106CD0000433B7F804E09BB27246F018ADF80C30FC
:106CE000BEF1000FCED0BB681946002BBFD10720E4
:106CF00015B0BDE8F083ADF80C00ADB1EB78002B1A
:106D0000F5D128460CA90DF10E02FFF767FD00280A
:106D1000EED19DF80E300CAA20469DF80C10FFF71E
:106D2000E5FC15B0BDE8F0832B46ADF80E502A46C1
:106D3000F2E714AF591C9A1C17FA81F13B4417FA79
:106D400082F296F90060ADF80C0002270A2003F8E1
:106D5000407C01F8400C02F8406C2389002B40F085
:106D60008F80238A002B40F0AB80238B002B40F0D8
:106D7000C780226A002A42D0BDF80C30991D1F2915
:106D80003FF662AF10880528B1D96FF4486C00EB6C
:106D90000C06B6B24FF27D37BE42A8D95688052EF2
:106DA000A5D96FF4486EB6441FFA8EFEBE459ED933
:106DB0004FF6FF77B84203D0BE4201D0B04296D81A
:106DC00014A8C7185E1C10FA86F64FF0050E981C22
:106DD00007F840EC80B2122706F8407CADF80C00B2
:106DE0001788ADF80C1004AE3118375404333F0A3D
:106DF0004F709BB25288F2541E44120A7270676A36
:106E0000A7B3B888BDF80C30811C9A1C56181F2EE9
:106E10003FF61AAFFE293FF617AF14AE1E44591CB9
:106E20000DF1500E1EFA81F1033006F8400C92B2BB
:106E3000FF2001F8400CADF80C20398804AEB018E2
:106E4000B154090A41700433BA8898B2ADF80C0005
:106E500062B1B96800293FF44AAF304400F062FDE6
:106E6000BDF80C30BA881344ADF80C3094F82C10EF
:106E700000297FF4EDAE2378002B61D104AC3CE710
:106E800003A904F1080704AE4FF01F080222009185
:106E900038463346CDF804801146FFF72FFC002812
:106EA0007FF426AF03AB0093CDF804803346384619
:106EB00010220621FFF722FC00283FF452AF17E70B
:106EC00003AA04F1100704AE4FF01F0800923846E1
:106ED0003346CDF8048002220321FFF70FFC00287F
:106EE0007FF406AF03AB0093CDF8048033463846F9
:106EF00010220721FFF702FC00283FF436AFF7E627
:106F000003AA04F1180704AE4FF01F080092384698
:106F10003346CDF8048002221421FFF7EFFB00284E
:106F20007FF4E6AE03AB0093CDF8048033463846D9
:106F300010221521FFF7E2FB00283FF41AAFD7E635
:106F40002288012A3FF4D3AEBDF80C20901C1F28E4
:106F50003FF67AAE012B04D1637803441F2B3FF632
:106F600073AEC2F11D0314A99BB204AE21F8203DFB
:106F70003044FFF7BFFB00287FF4BAAE2278022A24
:106F800000F08680012A00F08B80ADF830300820B8
:106F9000FE2B3FF659AEBDF80C2014AC511CA718BF
:106FA00014FA81F102321A44013307F8403C3446A6
:106FB000ADF80C2001F8400C9FE60CAF3846FFF707
:106FC00093FB00287FF494AEBDF80C3014A903F1B4
:106FD000010E9A1C11FA8EFE0B4492B204AEB01848
:106FE00008211B2603F8401CADF80C200DF13101DF
:106FF00006220EF8406C00F095FCBDF80C209DF8C0
:107000003010931D11F0FE019BB23BD114A8034434
:1070100003F8401CD31DA2789BB2ADF80C304AB9DE
:10702000E278002A3FF409AED81C1F2819463FF623
:107030000BAEEEE504331F2B3FF606AE3846FFF7E6
:1070400057FB00287FF454AEBDF80C30BDF830106B
:10705000E278581C14AE16FA80F01E449F1C4FF0C4
:10706000030E06F840ECBFB204AE4FF0190E00F864
:1070700040EC0433F019F1559BB2090AADF80C301D
:107080004170CEE714A90B44012103F8401CC1E76D
:10709000BDF830209342FFF478AF1346092077E71C
:1070A00062789342FFF471AFADF8302013460820A8
:1070B0006EE700BFF0B50288112A83B003463ED0C8
:1070C0002BD9122A08D0502A04D1684DC188EA89E8
:1070D000914246D003B0F0BD654C82882188914230
:1070E000F8D1E189B1F5FA7F61D200265889658926
:1070F000854248D8A589854245D39B899E4242D87E
:1071000001F2F31199423ED3584B5B6901210020F3
:1071100061722072002B78D1DCE7102ADAD1C27BB1
:10712000012AD7D1524C21884FF6FF72914242D0AA
:107130004E4B9B69002BCDD004209847CAE74C4C9E
:10714000828823889A42C5D16068FCF79BFC18B1FD
:10715000464B9B6903B198474FF6FF73238003B0FA
:10716000F0BD028A022AB5D1414C86882788BE42EA
:10717000B0D1123000F080F800285AD16068FCF7D6
:1071800081FC70B9A6E7394D267A6B68A9686068FA
:10719000002E08BF194600236372FCF71DFC00286F
:1071A00098D0AB69002B95D0984703B0F0BD6FF431
:1071B000F9700E189AE72F4D8288228003CDC4F80B
:1071C0000E10E589C4F80A000021B5F5FA7F217296
:1071D00002D36FF4F976A919588A668986421AD8BB
:1071E000A689864217D39B8A8B4214D305F2F315E6
:1071F0009D4210D31D4BD8890121617200287FF474
:1072000069AF5B69002B3FF465AF8DF80410ADF8F2
:10721000062001A8C8E7154DEB8900216172002BFB
:107220007FF458AF60686968FCF7D6FB0028B8D1D6
:1072300050E7637A63B96B68A968277A6068324659
:10724000002F08BF1946FCF7C7FB0028A9D141E76A
:107250006B6900222272002B3FF43CAF0122ADF893
:1072600006708DF8042001A8984733E768330020A2
:107270008433002098330020007800F0010070472C
:107280000649074A074B9B1A03DD043BC858D050F8
:10729000FBDC00F013F8FAF7E9FF0000EC860200CF
:1072A0000827002084290020FEE7FEE7FEE7FEE72E
:1072B000FEE7FEE7FEE7FEE7FEE7FEE7F0B4604B21
:1072C0001B68082B19D05F4AD2F8883043F470034A
:1072D000C2F88830BFF34F8FBFF36F8F4FF010238A
:1072E000D3F80022002A7ADBD3F80432002B76DBB5
:1072F000554B564A1A60F0BC7047554B1868002829
:10730000E1D14FF080414FF08052C1F80C01514B58
:10731000C1F81001C1F83805D2F80404C3F82005FB
:10732000D2F80804C3F82405D2F80C04C3F82805E1
:10733000D2F81004C3F82C05D2F81404C3F83005B1
:10734000D2F81804C3F83405D2F81C04C3F8400579
:10735000D2F82004C3F84405D2F82404C3F8480541
:10736000D2F82804C3F84C05D2F82C04C3F8500511
:10737000D2F83004C3F85405D2F83404C3F86005D9
:10738000D2F83804C3F86405D2F83C04C3F86805A1
:10739000D2F84004C3F86C05D2F844742E4E2F4D39
:1073A000C3F870752E4A2F482F4C3260FB23C5F866
:1073B0001835026823682D4C22F00F0203F00F03EA
:1073C00013434FF4007203602260D1F80034DB07EE
:1073D0007FF579AF6FF00103C1F8003473E7244BF8
:1073E0000122C3F80425D3F80024002AFBD04FF073
:1073F000102312221E49C3F80022D1F80034002BBA
:10740000FBD04FF010221221194BC2F80412D3F80E
:107410000024002AFBD000221549C3F80425D1F826
:107420000034002BFBD0BFF34F8F0649114BCA68C5
:1074300002F4E0621343CB60BFF34F8F00BFFDE760
:107440003001001000ED00E02C2700200090D00358
:107450003401001000C000408C56004000F0004095
:1074600048810300E40E004058020010409602409C
:1074700000E001400400FA0510DF704770B5344D9C
:107480002B7884B01BB10824204604B070BD314E67
:107490003149012302A83370FCF7DAFF039B2BB9B3
:1074A0000CE002A8FCF7DEFF039B3BB11A685968A9
:1074B000002090470028F4D10446E5E7274902A8B8
:1074C000FCF7C6FF039B4BB11A6859680020904730
:1074D00002A8FCF7C7FF039B002BF5D1204B2149E5
:1074E0001B6804A840F80C3DFFF7C6FF04460028BF
:1074F000CAD11D491D4A3070012308702B7092F8C3
:107500001633C3F34113012B17D9194B9968C9B925
:107510004FF480031360114902A8FCF799FF039B05
:10752000002BB1D01A6859680120904702A8FCF7D7
:1075300099FF039B002BF5D1A6E742F20200FBF76F
:10754000B9FDE8E71A6842F480021A60E3E700BF79
:10755000A1330020A0330020B8820200D0820200B4
:10756000B4820200D5300200A233002000E100E026
:10757000A4330020014B1878704700BFA1330020CE
:1075800000B583B068460849FCF762FF019B43B130
:1075900058681A6890476846FCF764FF019B002B07
:1075A000F6D103B05DF804FBC482020060DF7047CF
:1075B00069DF704761DF704730B5124DEBB04FF4B3
:1075C000CE740DF1020103A8ADF80240FFF7F2FFFF
:1075D00088B9294601A8FCF73BFF029B002BF0D09D
:1075E0001A68596803A8904701A8FCF73BFF029B63
:1075F000002BF5D1E5E7052801D0FBF75BFD6BB06B
:1076000030BD00BF28850200002900F08B8070B5D6
:107610005F4B0B6084B00C4605460C22002101A88C
:1076200000F08BF90126032301A922688DF804508C
:1076300020208DF80660ADF80830FFF7B9FF00286C
:107640007FD10C22002101A800F077F9012100234D
:107650008DF8041022688DF8053001A940208DF8BE
:107660000630FFF7A5FF002840D10C22002101A819
:1076700000F063F9F72322688DF8045001A9232054
:10768000ADF80630FFF794FF002874D10C220021DA
:1076900001A800F052F90123184622688DF8043041
:1076A00001A9FFF785FF002858D10C22002101A86D
:1076B00000F043F94FF4B0632268019301A9A120BF
:1076C000FFF776FF80BB0C22002101A800F035F9FE
:1076D0009DF8043022686FF3000301A9A0208DF803
:1076E0000430FFF765FF70B904B070BD294B1E88E8
:1076F000FCF7C4FE360446F0010602462649304631
:10770000FBF7CEF8B1E7234B1C88FCF7B7FE240447
:1077100044F00104024621492046FBF7C1F800204D
:1077200004B070BD0E2070471A4B1D88FCF7A6FEF2
:107730002D0445F00105024619492846FBF7B0F82B
:10774000C1E7144B1E88FCF799FE360446F001068B
:10775000024614493046FBF7A3F872E70D4B1D882B
:10776000FCF78CFE2D0445F0010502460E49284623
:10777000FBF796F899E7074B1D88FCF77FFE2D0471
:1077800045F00105024609492846FBF789F87DE7DF
:1077900008270020542900202C8302006084020066
:1077A0000C840200E4820200C0830200788302009D
:1077B00070B504460268FFF7F9FE23689A42054651
:1077C00017D0144E14493088000440F00200FBF733
:1077D00031F94FF080533088D3F80C3122680F49CB
:1077E0009B02000403F1005340F002009A1AFBF7D9
:1077F00057F865B1074B28461C88FCF73FFE240468
:1078000044F00104024606492046FBF749F82846A1
:1078100070BD00BF54290020B4840200E48402003B
:107820000885020048DF704710B5114C84B001A8EC
:10783000FFF7F8FFA8B9214602A8FCF709FE039B51
:10784000002BF4D01A6859680198904702A8FCF7F9
:1078500009FE039B002BF5D101A8FFF7E3FF0028E9
:10786000E9D0052801D0FBF725FC04B010BD00BF0E
:107870004085020008B5074B044613B10021AFF361
:107880000080054B1868836A03B19847204600F0D2
:1078900079F800BF000000005885020070B50D4E59
:1078A0000D4CA41BA4100025A54209D10B4E0C4C75
:1078B00000F0F2F9A41BA4100025A54205D170BD6B
:1078C00056F8253098470135EEE756F825309847A9
:1078D0000135F2E7002900200029002000290020BE
:1078E00004290020044B054A1B681B6A002B08BFB3
:1078F0001346D3F8EC00704730270020942700206F
:1079000082B001B901A942B14BB113780B60127872
:10791000101C18BF012002B070471046FBE76FF043
:107920000100F8E710B5431E0A44914200D110BD92
:1079300011F8014B03F8014FF7E702440346934265
:1079400000D1704703F8011BF9E7034611F8012B3A
:1079500003F8012B002AF9D17047034613F8012BD5
:10796000002AFBD1181A0138704749B1FF2A85BF98
:107970008A2303600A704FF0FF3098BF01207047E0
:1079800008467047FEE700BF53B94AB9002908BF4F
:1079900000281CBF4FF0FF314FF0FF3000F07AB9E4
:1079A000ADF1080C6DE904CE00F006F8DDF804E056
:1079B000DDE9022304B070472DE9F0478C460D46FF
:1079C0000446089E002B51D18A4217466DD9B2FA5F
:1079D00082FEBEF1000F0BD0CEF1200C01FA0EF5A5
:1079E00020FA0CFC02FA0EF74CEA050C00FA0EF431
:1079F0004FEA174A250CBCFBFAF81FFA87F90AFB75
:107A000018CC45EA0C4508FB09F3AB420AD9ED193D
:107A100008F1FF3280F02381AB4240F22081A8F1CF
:107A200002083D44ED1AA4B2B5FBFAF00AFB10556A
:107A300044EA054400FB09F9A14509D9E41900F11C
:107A4000FF3380F00A81A14540F2078102383C44AF
:107A5000A4EB090440EA08400021002E61D024FA7A
:107A60000EF4002334607360BDE8F0878B4207D9C1
:107A7000002E54D0002186E821000846BDE8F0879A
:107A8000B3FA83F1002940F08E80AB4202D38242E8
:107A900000F2FA80841A65EB03050120AC46002E43
:107AA0003FD086E81010BDE8F08712B90127B7FB78
:107AB000F2F7B7FA87FEBEF1000F34D1EB1B3A0C98
:107AC0001FFA87FC0121B3FBF2F8250C02FB1833E7
:107AD00045EA03450CFB08F3AB4207D9ED1908F161
