:020000040000FA
:10000000502800204D030000550300005703000056
:10001000590300005B0300005D03000000000000C6
:100020000000000000000000000000005F0300006E
:10003000610300000000000063030000650300008E
:100040006703000067030000ED080000670300007D
:1000500067030000670300009504000067030000C9
:1000600067030000670300006703000067030000E8
:1000700067030000670300006703000067030000D8
:1000800067030000BD06000067030000670300006F
:10009000E10600006703000067030000670300003B
:1000A00067030000670300006703000067030000A8
:1000B000670300006703000000000000000000006C
:1000C0006703000067030000670300006703000088
:1000D0006703000067030000670300006703000078
:1000E00067030000670300006703000000000000D2
:1000F000000000006703000000000000670300002C
:1001000000000000000000000000000000000000EF
:1001100000000000000000000000000000000000DF
:1001200000000000000000000000000000000000CF
:1001300000000000000000000000000000000000BF
:1001400000000000000000000000000000000000AF
:10015000000000000000000000000000000000009F
:10016000000000000000000000000000000000008F
:10017000000000000000000000000000000000007F
:10018000000000000000000000000000000000006F
:10019000000000000000000000000000000000005F
:1001A000000000000000000000000000000000004F
:1001B000000000000000000000000000000000003F
:1001C000000000000000000000000000000000002F
:1001D000000000000000000000000000000000001F
:1001E000000000000000000000000000000000000F
:1001F00000000000000000000000000000000000FF
:10020000DFF80CD000F034F900480047E916000090
:100210005028002030B4044654E8000F0D4644E84E
:100220000053002BF8D1156030BC704730B4044641
:1002300054E8000F40EA010544E80053002BF7D1D1
:10024000156030BC704730B4044654E8000F00EA33
:10025000010544E80053002BF7D1156030BC70470E
:1002600030B4044654E8000F80EA010544E8005326
:10027000002BF7D1156030BC704730B4044654E809
:10028000000F00EB010544E80053002BF7D1156087
:1002900030BC704730B4044654E8000FA0EB0105B1
:1002A00044E80053002BF7D1156030BC70470000C4
:1002B00030B4044654E8000F0D4644E80053002BC8
:1002C000F8D1156030BC704730B4044654E8000FD4
:1002D00040EA010544E80053002BF7D1156030BC1B
:1002E000704730B4044654E8000F00EA010544E8C2
:1002F0000053002BF7D1156030BC704730B4044672
:1003000054E8000F80EA010544E80053002BF7D1C0
:10031000156030BC704730B4044654E8000F00EB61
:10032000010544E80053002BF7D1156030BC70473D
:1003300030B4044654E8000FA0EB010544E8005334
:10034000002BF7D1156030BC70470000064880478D
:1003500006480047FEE7FEE7FEE7FEE7FEE7FEE7AA
:10036000FEE7FEE7FEE7FEE7E5060000010200000B
:100370002DE9F05F0546002092469B4688460646DA
:10038000814640241BE0284641464746224600F06D
:100390005FF853465A46C01A914110D31146184689
:1003A000224600F046F82D1A67EB01084F46224618
:1003B0000120002100F03DF817EB00094E41201EFE
:1003C000A4F10104DFDC484631462A464346BDE835
:1003D000F09F0000004870471831000040EA010318
:1003E0009B0703D009E008C9121F08C0042AFAD2EB
:1003F00003E011F8013B00F8013B521EF9D27047AF
:10040000D2B201E000F8012B491EFBD27047002256
:10041000F6E710B513460A4604461946FFF7F0FF03
:10042000204610BD421C10F8011B0029FBD1801A88
:100430007047202A04DB203A00FA02F100207047BE
:100440009140C2F1200320FA03F319439040704712
:10045000202A04DB203A21FA02F00021704721FA19
:1004600002F3D040C2F12002914008431946704780
:10047000064C074D06E0E06840F0010394E80700F1
:1004800098471034AC42F6D3FFF7BEFE543200005A
:10049000743200002DE9F04F00268FB0DFF8B081F4
:1004A000B14602964FF480750124374603962846DC
:1004B00001F048FE38B1D8F80403204203D02846A2
:1004C00001F036FE26432D1D64007F1CADB2082FBF
:1004D000EDD34FF4BE74204601F034FE48B12046FF
:1004E00001F026FE46F0004602AA0221002001F09B
:1004F00009FE584C16F0FF0F15D001270025374292
:100500000DD008EB8501D1F81005D1F81015C0F316
:10051000052054F82520C1F3014102B190477F0026
:100520006D1C082DEBD3002E7DDA0020CDF828902D
:10053000411E0DF1080B08AACDF82C9042F82010AE
:10054000401C91460228F9D300252E46A01910F828
:10055000607F90F9000027F0C008401C49D008A92E
:10056000404601F09AF988B34FEA971A404600F0E6
:1005700059FE54F820701FB1BAF1030F03D00FE0F9
:10058000BAF1030F35D10AA84FEAD80208F00703E1
:10059000815C4FF0010C0CFA03FC41EA0C01815420
:1005A00006A8CDF8188001F069FD069900EB8100DE
:1005B000D0F8000702A9C0F301400690404601F0C0
:1005C0006CF90028069802D0022802D011E0032816
:1005D0000FD1BAF1030F08D10698022832D00221B8
:1005E000404601F024FD6D1CEDB217B15146404666
:1005F000B847761C042EA9D3002D20D004AA0221CE
:10060000002001F07FFD00205A4604A952F8206026
:1006100051F82030B34217D000200AAE4FEA090348
:1006200051F8207000E00AE042F8207056F820707F
:1006300043F82070401C0228F2D3002D84D10FB063
:10064000BDE8F08F0321CBE7401C0228DED3F6E79C
:10065000006000407801002000F01F02012191405D
:100660004009800000F1E020C0F88012704700F0DF
:100670001F02012191404009800000F1E020C0F8F4
:100680000011704700F01F020121914040098000D5
:1006900000F1E020C0F8001270474907090E002859
:1006A00006DA00F00F0000F1E02080F8141D70471A
:1006B00000F1E02080F80014704700000748002196
:1006C000C0F84011C0F84411C0F84811C0F84C11EE
:1006D000C0F80011C0F8041102F092BA00100140F5
:1006E00002F0E0B930B54FF080500022D0F8301160
:1006F0000123082902D1D0F8344114B1082909D0C6
:100700000BE04FF08041C1F80C21C1F8102168497D
:100710000A6005E0D0F8344114B1082957D059E0F7
:1007200064490968644C21606249091D0968241DF7
:100730002160604908310968241D21605D490C3140
:100740000968241D21605B4910310968241D21605E
:10075000584914310968241D216056491831096827
:10076000554C2034216053491C310968241D2160F7
:10077000504920310968241D21604E4924310968FF
:10078000241D21604B4928310968241D21604949F5
:100790002C310968241D2160464930310968464CD6
:1007A00040342160434934310968241D21604149A6
:1007B00038310968241D21603E493C310968241DF7
:1007C00021603C4940310968241D216005E0D0F8D2
:1007D000344114B1082904D006E0394C374921606E
:1007E00005E0D0F8344114B1082904D006E0354CB6
:1007F000FB21216005E0D0F8344114B1082908D06C
:100800000AE090F858423048016864F3030101603F
:1008100005E0D0F8344114B1082905D00EE02B4989
:100820004FF40070086002E0D0F8340130B9284875
:100830000168C90702D06FF0010101602548016815
:1008400041F470010160BFF34F8FBFF36F8F4FF022
:100850001021D1F80002002803DBD1F8040200289F
:1008600022DA1D4C23601D480368002BFCD01223A4
:10087000C1F800320568002DFCD0C1F804320168CF
:100880000029FCD0226001680029FCD0BFF34F8F03
:1008900010487C380168124A01F4E061114301609C
:1008A000BFF34F8F00BFFDE70F490E48086030BD12
:1008B000380500400404001020C5004048810300B2
:1008C0008C56004018F50040E40E0040409602406F
:1008D0000004004088ED00E004E5014000E4014030
:1008E0000400FA050090D003D80000200448017FDE
:1008F00004480029024901D002F097BA02F006BA72
:10090000E00100200020004002E008C8121F08C1DA
:10091000002AFAD170477047002001E001C1121F80
:10092000002AFBD17047022000F088B970B500247E
:10093000064D06E06868012110F8340001F026F841
:10094000641C28788442F5D3002070BD4C00002040
:10095000F8B515460C460646052A01D20720F8BD13
:1009600001F0F6F818B901F0C5F80028F7D11049E0
:1009700000204E600C70C1E902500E4D08610DE080
:1009800006EBC4006968009181788DF80110007849
:10099000094A694601F046F80028E0D1641EE4B235
:1009A000EED2BDE8F840054A0021024800F050B8F8
:1009B0004C0000203C300000A11300000113000097
:1009C00001F036FE01F09AFC0028FBD1104C012109
:1009D000208801EB00400FA101F082FD1048006863
:1009E000C00700D000BE2088022101EB00400DA10D
:1009F00001F076FDBFF34F8F0948E43801680D4AD6
:100A000001F4E06111430160BFF34F8F00BFFDE7C8
:100A100000010020466174616C206572726F720083
:100A2000F0ED00E053797374656D20726573657441
:100A3000000000000400FA050EB500210091CDE988
:100A400001106A4644F20100FFF7BAFF0EBD000034
:100A5000074B9B7823B12AB120B10068037C1BB1FE
:100A6000082070470720704741744261002070479A
:100A70002002002070B501F075FF104800240B2102
:100A8000047044700E4D817014206C602C706C707A
:100A9000FFF7E2FD07211420FFF7FFFD1420FFF709
:100AA000E6FD0848046007211120FFF7F6FD054820
:100AB000001F0068A860002070BD00002002002018
:100AC00060000020081501402DE9F843DFF8709020
:100AD00099F802305BB350B3052902D20720BDE874
:100AE000F88343691BB3437C012B22D000270446C3
:100AF000002588461646284600F036F8684602F07B
:100B000067FAC0B1012101700E4944600968C0E96B
:100B10000218C0E904769DF8000089F80100002061
:100B200000F024F81420FFF7ADFD2846D7E7082091
:100B3000D5E70F46DBE70425002000F017F8F4E7BF
:100B400020020020041501400649897839B130B1EE
:100B5000416921B100210174022102F031B808205D
:100B6000704700002002002000F002B800F008B832
:100B700072B602480168491C016070477400002089
:100B800003490868401E086000D162B67047000043
:100B90007400002070B5054608680C46411C04D05E
:100BA00001F093FA206801F038FA6068411C02D025
:100BB000002101F029FA28791F4901EB401029682A
:100BC000007F0028A069C1F8240523D0607D227D24
:100BD00029681043C1F86C05D4E900122868C0F8F0
:100BE0000C15C0F8142522E0A068411C02D0002199
:100BF00001F00AFAE068411C04D001F066FAE068EE
:100C000001F00BFAD4E902122868C0F80825C0F8F0
:100C1000101570BD607D217D2A680843C2F86C05FF
:100C2000D4E900122868C0F81425C0F80C15207DFE
:100C30000128D9D070BD0000E0010020094908B5A5
:100C4000085C0090684601F00BFAD0F80425009B80
:100C50000121994021EA0203C0F808351140C0F88B
:100C60000C1508BD003000000249085C012101F0AC
:100C700036BA0000003000000249085C002101F093
:100C80002EBA000000300000084908B5085C00904A
:100C9000684601F0E5F9D0F804050099C84010F065
:100CA000010000D0012080F0010008BD00300000EC
:100CB0007CB50024084E25460122305D00950023B6
:100CC0001146019501F04CF9641C042CF4D3BDE8E5
:100CD0007C4000F003B800000030000010B5002494
:100CE0002046FFF7C1FF641C042CF9D310BD10B5DA
:100CF00000242046FFF7C0FF641C042CF9D310BD6C
:100D000010B50246064B4FF0FF3000215C5C944268
:100D100001D1084610BD491C0429F7D310BD0000BD
:100D2000043000002DE9F0470D468146FFF7E8FF4B
:100D30000446042836D2DFF874801B481C4EA8F104
:100D40000C0725B3012D0ED0022D2BD104EB44004E
:100D500030444578002D25D0B968002922D0284696
:100D6000BDE8F047084704EB4401755C0E44717818
:100D700049B10E4A4FF40041093A8068FFF7A4FEDA
:100D800008B987F80390B17808F80410E2E78068A2
:100D9000FFF7DAFE04EB4401314418F804008D78C3
:100DA000A842D7D0BDE8F0870830000048000020F6
:100DB0004C01002010B50549032000F08DF80028F3
:100DC00003D0BDE81040FFF737BE10BD150E000080
:100DD00070B50023042810D20D4D00EB4004012A09
:100DE00002D101290CD00022094E00EB4000304412
:100DF00061B1012906D0022906D00723184670BD2B
:100E00000E30C2B22A55F9E74270F7E78270F5E773
:100E10004C01002070B52C4903250A1D131D2B4CD5
:100E20000E280FD00F2821D0102829D0112849D101
:100E300008684FF480318143116000F480301860FD
:100E400004200EE0A67801206EB1761EA67005265D
:100E5000667009684FF400568E43166001F4005125
:100E60001960207015E0A0706070F2E708684FF418
:100E700080418143116000F4804018600220F0E757
:100E800008684FF400418143116000F4004018608D
:100E900025700E482178001D0D4E50F821200DA11F
:100EA000308805EB004001F01FFB084861781830DE
:100EB00050F82120308807A105EB0040BDE87040C4
:100EC00001F012BB70BD00000405005000000020BE
:100ED000000100202573000070B506461E4800245E
:100EE000C0E90161B00720D500250122114628463E
:100EF000FFF76EFF6D1C0446042D02D2002CF4D0C7
:100F000013E094B940F2666204211448FFF720FD13
:100F100004000AD1FFF70AFD040006D10F48104A69
:100F20000021001FFFF794FD0446F00701D0FFF7F2
:100F3000BFFE74B909480B4A00210C38FFF788FD41
:100F4000040006D10548084A01210838FFF780FD52
:100F50000446204670BD00003C0000201430000014
:100F6000B911000049150000270900002DE9F05FC4
:100F70006A4C054600266078B34618B184F801B083
:100F800000F0CAFA664F4FF47A694FF4C87A4FF00E
:100F90000108182D62D2DFE805F0AC0C0C31404D91
:100FA00062676B746B74BE7D7D7D7D7DACAFB2B5C9
:100FB000BEBE0020FFF768FE00284FF0000008D0FA
:100FC000FFF752FE022D02D14FF4E16008E04846DF
:100FD00006E0FFF751FE022D01D1C82000E0504687
:100FE000410CC0034FF4FA72801841F100012570E2
:100FF00052000023FFF7BCF901462AE00020FFF76A
:1010000043FE00284FF0000004D0FFF72DFE4FF400
:101010004870E5E7FFF730FEDFE70020FFF734FE1A
:1010200000284FF0000002D0FFF71EFECFE7FFF7C9
:1010300023FED4E70020FFF727FE00284FF0000032
:1010400002D0FFF711FE01E0FFF716FE257041F612
:101050009A1100223868FFF737FD064646E0002067
:10106000FFF7ECFD257008E0002051E025703DE021
:1010700084F801800120FFF7E1FD002240F6CD4118
:10108000E8E784F801800120FFF7D8FD00224FF443
:101090008041DFE77868FFF757FD0646D5F111007C
:1010A00000D02EB10220FFF7DFFD84F802B01DE072
:1010B000012816D980B2C8214843C117C90341EAA3
:1010C0005041C0034FF4FA72801841F10001520000
:1010D0000023FFF74DF9014600227868FFF7F4FC82
:1010E00006460220FFF7C8FD84F802803046BDE8BE
:1010F000F09F00F011FAB9E700F00EFAB4E700F043
:101100000BFA04E000F008FA0020FFF7B5FD01201B
:10111000FFF7B2FDAAE7FFF7EAFDA7E73C000020D2
:10112000083000002DE9F041871C0E460125002003
:10113000FFF71AFD124C20683060D4E90001401A14
:10114000A168091ABE1C06E000F084FAD4E9000187
:10115000401AA168091A491C8E42F5D8A168206876
:10116000084004EB8000C16841F00301C1602068C1
:10117000384420600020FFF7F9FC2846BDE8F081E4
:101180002C04002030B482680468531C8360A1548E
:10119000D0E901128A4202D330BC00F0E8BD30BC75
:1011A00070470000034803C8814201D10120704705
:1011B000002070472C04002000780221FFF7B2BD08
:1011C00005494FF0FF32082841F8202002D3084497
:1011D00080F858207047000078010020F0B54FF0EB
:1011E000FF3512B10023082601E008230C260C4C21
:1011F00005E000BF54F823707F1C04D05B1CB34291
:10120000F8D32846F0BD26185DB286F8305044F871
:101210002310002AF5D1E11881F85800F1E7000009
:10122000780100200249084490F93000704700001E
:101230007801002006480121016000228807C0F8DB
:1012400004218160D0F804110029FBD07047000010
:10125000180500402DE9F05F26484168F1B3DFF83A
:1012600098B00E688146DBF8004087688078E11B03
:1012700021F07F45ED1CB0B9DFF880804FF480305D
:10128000C8F84403C8F804031120FFF7E5F911205A
:10129000FFF7EDF94FF0010AC8F800A02F2000F089
:1012A00005FB89F802A0B54200D23546124BE81979
:1012B0003C3320F07F401860DBF800105A46091BD1
:1012C00021F07F41001B20F07F40C91C81420FD9D3
:1012D000106818602F2000F0E9FA00E004E0BDE893
:1012E000F05F1120FFF7CEB9BDE8F05F01F03ABB27
:1012F000BDE8F09F6000002004150140001001408F
:101300002DE9F04100260125144C22E06068226995
:1013100000EBC607387805FA00F1114217D08A436E
:10132000226100F0DFFB02463878E36805FA00F13D
:10133000194002FA00F3994209D17978012901D0C4
:10134000012100E0002151407A6802B19047761CEB
:10135000F6B220788642D9D3BDE8F0814C00002057
:101360000E4910B50A784C780023A24212D0521CC4
:10137000D2B20A70022A00D10B70084A0B780C32E4
:1013800052F8232002608868104420F07F40886073
:10139000012010BD0360002010BD0000600000208F
:1013A0002DE9F041124E07460125BD403068FFF798
:1013B000CBFB00280DD10F4C2069284207D13846BD
:1013C00000F090FB0028E06805D0284304E0A84323
:1013D0002061BDE8F081A843E060206928432061D6
:1013E000A1683068BDE8F0410022FFF76DBB000046
:1013F0003C3000004C0000202DE9FC5F0E008346CD
:10140000DDE90C47C6F1000098469246814600D4BB
:101410000846012503E000BF90FBFAF06D1C504523
:10142000FADAA84500D9454624B1002E01DB780739
:1014300000D5641EB80702D5B8F1000F0AD0F8072E
:1014400008D13CB1A54205D220215846641EFFF7C1
:1014500099FEF6E7002E02DA4E462D2102E07807CB
:1014600003D52B215846FFF78DFE07F00300022815
:101470000BD1B8F1000F08D13CB1A54205D2302103
:101480005846641EFFF77EFEF6E7CDE90047434667
:1014900052463146584601F041FDBDE8FC9F000030
:1014A00070B50E460446007918494FF4A27501EB59
:1014B0004010017F2068A1B14FF4887101F0ACF9B0
:1014C0004FF49071206801F0A7F94FF492712068F1
:1014D00001F0A2F92946206801F09EF90C49206824
:1014E00009E04FF48E7101F086F92946206801F079
:1014F00082F908492068C0F80413206800F043FA14
:101500003146BDE8704000F022BA0000E001002042
:1015100010030200800002000A4810B5807860B114
:10152000002401E0022C06D02046FFF79DFB641C3E
:10153000042CF7D310BD0324F6E7BDE81040FFF7F5
:10154000CDBB00003C00002003480179C90702D050
:101550000078FFF70BBD70473C0000202DE9F047F5
:10156000394E002780463D46DFF8E090D6F804A0CB
:1015700057E003D00446D0F81C8035E099F80020ED
:1015800002EB4201521CD2B289F8002009EBC101E2
:1015900099F80230091D9A4201D189F80050486833
:1015A0000A780446012A12D0022A02D0032A3BD12B
:1015B00008E001F0D5FA00B10127257434E0057484
:1015C000C06900E070680028F9D170602CE0207CD0
:1015D00050BB88686060C868A0600869E0604869BE
:1015E000A061F07800B165606268B168184B501A6C
:1015F00020F07F40984202D2A168084406E0881A91
:10160000A16820F07F40814202D9081A206000E0E2
:10161000256065600120A56020742046E56101F029
:1016200081FAB8F10000A4D199F8001099F80100EE
:101630008142A3D117B97168514502D00120BDE89C
:10164000F0870020FBE7000060000020200200205F
:10165000FFFF7F0070B588B0214800F0CBF820482C
:10166000001F064600F0C6F81E4DD5E9014105E011
:10167000C0F3891202EB9050641C044404EA010098
:1016800005EB8000C0688207F2D000200DF108024F
:1016900004EA010305EB8303641CDB6842F8203095
:1016A000401C0228F4D3029800F00300012808D05F
:1016B00002280AD10298032101EB905004EB900418
:1016C00003E00298C0F3831004443046002101AACD
:1016D000FEF707FE002800D06C6008B070BD000067
:1016E000440800202C040020FFF7A4FDFFF7C2F9F6
:1016F00008B1FFF7A1F9002000F054FF08B1FFF78F
:101700009BF900F0EDFD09480321008801EB004042
:1017100007A100F0E5FEFFF74DFB00BF00F0EEFD76
:101720000028FBD140BF20BF20BFF7E70001002009
:10173000425350206578616D706C652073746172DE
:101740007465642E000000002DE9F047C788044648
:10175000181D16468946B0FBF7F1B0FBF7F207FB00
:1017600012009A193A44D21CB2FBF7F2DDF820A01D
:1017700001E02468491E0029FBD13D1A8846B54284
:1017800016D818E0BAF1000F05D0211809EB0800AF
:101790002A46091D04E0204409EB08012A46001DE1
:1017A000FEF71CFE00202468761BA844B74201D92E
:1017B000354600E03D46002EE4D1BDE8F08700004C
:1017C00030B5024669B100F01BFF0021084C0BE068
:1017D00001EB410304EB830315685B88AB4202D144
:1017E0001160002030BD491C8142F1D3052030BD7D
:1017F000DC00002008B501216A46FEF765FD00986F
:1018000008BD70B5044600252846FFF7ADF92168EC
:101810006268086890420ED9401E08600178238AE9
:10182000E26801FB0325227A2168101AC0B20A7906
:10183000824200D208710020FFF798F9284670BD57
:1018400070B505460C460020FFF78EF9E868298A36
:10185000201AB0FBF1F12A681068431C1360017074
:10186000BDE870400020FFF781B910B530B1017AB2
:1018700042680368891AC9B21A6006E00E2010BDDA
:1018800003681A68541C1C601170491EC9B2F7D253
:10189000006800210171084610BDC20800F007036E
:1018A0000120895C984008407047000000283ED025
:1018B0001F49204A096800BF00BF00BF00BF00BF2A
:1018C00000BF00BF00BF91422FD000BF00BF00BFCC
:1018D00000BF00BF00BF00BF00BF00BF00BF00BF10
:1018E00000BF00BF00BF00BF00BF00BF00BF00BF00
:1018F00000BF00BF00BF00BF00BF00BF00BF00BFF0
:1019000000BF00BF00BF00BF00BF00BF00BF00BFDF
:1019100000BF00BF00BF00BF00BF00BF00BF00BFCF
:1019200000BF00BF00BF00BF00BF0138C3D1704778
:10193000D80000200024F40000F01F020121914093
:101940004009800000F1E020C0F88011704749078D
:10195000090E002806DA00F00F0202F1E02282F8F8
:10196000141D03E000F1E02282F8001400F01F02D1
:10197000012191404009800000F1E020C0F8801270
:10198000C0F800117047000B40B270472DE9F041DC
:101990000E46804600F046FF204D0028404616D0F7
:1019A000FFF740FC284490F858008009032802D033
:1019B00001280AD003E0404600F07CFB28B1032157
:1019C0004046BDE8F04100F032BB0221F8E700F0EC
:1019D00035FF002820D04046FFF724FC0446104F76
:1019E0004FF4807007EB840100EB8400D1F81025E0
:1019F00080B242F00102C1F8102500F099FB002EE0
:101A00000AD04046FFF70EFC55F82000002803D00E
:101A10000120A040C7F80403BDE8F0817801002050
:101A2000006000402DE9FC41DFF8AC80044608EB83
:101A30000400002790F930001346C0170E46401CE2
:101A400001D0082744E0F27819462046FFF7C6FB8C
:101A50000546401C3BD0B07868B16846009400F061
:101A60000DFB009900EB8100D0F8001721F0020176
:101A7000C0F8001707E000217378204600910A465D
:101A8000019100F086FAF078C0B11448317800EB8B
:101A90008500D0F81025124B1A40C0F810254FF4DD
:101AA0007C524FF4403302EA042203EA01410A4324
:101AB000D0F810150A43C0F8102509E008EB05001E
:101AC000327810F8581F41EA8211017000E00427B3
:101AD0003846BDE8FC81000078010020006000402D
:101AE000FFC0FCFF10B500F0E5FA002800D001208F
:101AF00010BD000070B5144D95F8640008B10820C1
:101B000070BD0020411E2A18401CC0B282F830105F
:101B10003028F8D300242046FFF752FB641CE4B2BF
:101B20000C2CF8D307210620FFF711FF4FF4BE70ED
:101B300000F0FEFA05494FF00040C1F8040301200F
:101B400085F86400002070BD78010020006000402E
:101B5000034890F86400002800D00120704700007E
:101B6000780100200121B1EB507F01D101207047A5
:101B7000002070472DE9F04105460079164F904648
:101B800007EB40140E46E07E10B10820BDE8F0815E
:101B9000707F20772846FEF7FDFF5FEA080060604F
:101BA0003169216003D0317F2846FFF779FC28791D
:101BB00007EB4010007F0028286801D0082100E0D2
:101BC0000421C0F800150020E0752076A0750121E1
:101BD000E176A076DAE70000E00100202DE9F04789
:101BE000054600793F4E904606EB40140F46207F95
:101BF00018B10846FFF7B6FF30B1284600F074F878
:101C000020B11120BDE8F0871020FBE784F8168092
:101C1000A7600027A78228794FF0010806EB40143F
:101C20003E46207F0028286825D04FF49079494609
:101C300000F0F2FD4FF4AC7A5146286800F0ECFD5C
:101C40002868A17DA268C0F84425C0F84815286816
:101C5000C0F808806068F0B94946286800F0D7FDF0
:101C600080465146286800F0D2FD58EA0001F3D0C2
:101C700058BBA7750FE04FF48E7A514600F0BBFDBC
:101C80002868C0F808802146286800F0F3FF6168E2
:101C90004FF4807089B13046B4E75146286800F0AF
:101CA000A5FD10B9A08A4845F7D1A08A484505D0BE
:101CB0002146286800F0DEFF00E08146A08AA17D71
:101CC0008842EAD3A08A484501D10F26D1E7514680
:101CD000286800F08BFD0028F9D02868C0F80C8037
:101CE000C7E70000E00100200079044901EB401043
:101CF000807D002800D0012070470000E001002016
:101D000070B5044600791149002601EB40152068A2
:101D10002A7FC0F80065686888B1207901EB40101F
:101D2000007F0028206801D0094901E008498C396A
:101D3000C0F808132068FFF726FEFFF7FDFD2046D8
:101D400000F088FDEE766E6070BD0000E0010020BE
:101D5000100302000FB408B50399002904D004AAA7
:101D600000926A4600F00FF801B05DF814FB10B560
:101D700082680446002A05D0D4E904032168984704
:101D80000020A06010BD2DE9FC4791460C00804664
:101D900076D014F8011B39B125290ED04046FFF743
:101DA000F1F920780028F4D198F80C00002867D0C9
:101DB0004046BDE8FC47FFF7DABF0020012221784A
:101DC0002B291BD02D2902D0302908D102E040F068
:101DD000010001E040F00200641C002AEFD1002560
:101DE0002A290ED02178A1F130020A2A11D205EB5E
:101DF000850201EB4205641C303DF1E740F0040030
:101E0000EAE7D9F800100B1DC9F800300968641C16
:101E10000D44217800232E290BD114F8011FA1F1C4
:101E200030020A2A05D203EB830201EB4203303B66
:101E3000F3E76C290DD068290BD0692921D00BDC80
:101E4000252918D0582931D063290ED0642915D1FD
:101E500017E014F8011FECE7702969D0732932D01C
:101E600075291BD0782909D120E0D9F80000011D7F
:101E7000C9F8001001784046FFF784F9641C90E728
:101E80006CE0D9F800100A1DC9F800200968CDE9F6
:101E900000500A224046FFF7AFFAEFE7D9F80010EA
:101EA0000A1DC9F8002009680A2206E0D9F80010C6
:101EB0000A1DC9F8002009681022CDE900504046EB
:101EC00001F02CF8DAE7D9F8001000270A1DC9F84C
:101ED00000200E68C00705D112E04046761C7F1C2A
:101EE000FFF750F931780029F7D104E0202140466E
:101EF0006D1EFFF747F9BD42C0D9002DF6D1BDE7F1
:101F00004EB13046FEF78EFA074604E020214046E7
:101F10006D1EFFF737F9BD4206D9002DF6D103E05B
:101F20004046761CFFF72EF931780029F8D1A5E755
:101F3000D9F80000011DC9F800100568302140469D
:101F4000FFF720F978214046FFF71CF9082000210F
:101F5000CDE90001034610222946B0E7BDE8FC8721
:101F60002DE9FF411C46DDE90A7815460E46684614
:101F700000F076F846EA450141EA840141EA072289
:101F800042EA0841009A00EB8200C0F80017BDE861
:101F9000FF812DE9FF411C46DDE90A7815460E4612
:101FA000684600F06BF846EA450141EA840141EADF
:101FB000072242EA0841009A00EB8200C0F80017AD
:101FC000BDE8FF812DE9FF411C46DDE90A78154691
:101FD0000E46684600F060F846EA450141EA840191
:101FE00041EA072242EA0841009A00EB8200C0F869
:101FF0000017BDE8FF811CB5002100910B460122AE
:102000000191FFF7DFFF1CBD1CB500220B460092BB
:1020100011460192FFF7D6FF1CBD1CB500210091AF
:102020000B46012201911146FFF7CCFF1CBD13B5F1
:102030000C46684600F022F8009900EB8101D1F8C7
:10204000002722F44032C1F80027009900EB8100FC
:10205000D0F8001741EA0441C0F800171CBD000089
:102060000168202902D24FF0A040704701F01F0103
:1020700001600148704700000003005001682029FA
:1020800002D24FF0A040704701F01F0101600148EB
:1020900070470000000300500168202902D24FF071
:1020A000A040704701F01F01016001487047000027
:1020B0000003005001B56846FFF7E0FFD0F81005B7
:1020C0000099C84000F0010008BD01B56846FFF75F
:1020D000E3FF009A01219140C0F8081508BD38B50A
:1020E00001240090684631B1FFF7BAFF00998C4097
:1020F000C0F8084538BDFFF7B3FF00998C40C0F821
:102100000C4538BD1CB5094C0144D4E90034CDE977
:1021100000346C4606E000BF54F82030D3F8103588
:10212000401C08C28142F7D81CBD000034300000BA
:10213000034908B50844002101600068009008BD0B
:102140000060004002494058012800D0002070473C
:102150000060004030B5124B01460020D3F8104417
:10216000224609E0157A854205D1401C0A28F7DB92
:102170004FF0FF3030BD5268002AF3D1421CF9D035
:102180000872D3F810242AB152684A60D3F8102498
:10219000516030BD0022C3F810144A6030BD000009
:1021A0002C040020F0B595B01C4615460F46084695
:1021B0001A9E00F0F5FA182109A8FEF728F90E96E4
:1021C000CDE909540023082203A9384600F002FB98
:1021D000059806900498ADF81C0000208DF82000AA
:1021E0000398082600F00300012802D002281DD021
:1021F0003CE003983346850AC0F3C2008DF81E0008
:1022000003980FA9C0F380008DF81F000398C0F356
:102210008314A200384600F0DDFA09A8009006AB4E
:1022200022460FA9284600F017FA1FE00398840DF4
:10223000C0F3C2008DF81E000398C0F380008DF833
:102240001F00082C01D2254600E0082533462A4607
:102250000FA9384600F0BEFA2E44641B09AB06AA4B
:1022600029460FA800F048F9002CEAD1384600F0C2
:10227000A0FA15B0F0BD7047012000F01FBD0000AE
:1022800010B50448FFF73CFDBDE81040002000F009
:1022900015BD00007C00002008B5034A00924023D1
:1022A000024AFFF77FFF08BDED2900002C03002044
:1022B0000A4A012902EBC00007D0022907D00329EE
:1022C00007D0042907D0002070470220704704205F
:1022D0007047007970474079704700007432000001
:1022E00010B5FFF7C9FF04210348FFF733FF024988
:1022F0000120487210BD0000840000202DE9FE4F2F
:10230000FEF750FF10B10020BDE8FE8F724800219B
:10231000C0F81814BFF34F8FD0E9014604EA060154
:1023200000EB81014FF000090AE000BFC1F3891200
:1023300002EB9151641C0C4404EA060100EB81019C
:10234000C9688A07F2D000216A46804604EA06007E
:1023500008EB8000641CC06842F82100491C434619
:102360000229F3D3009800F00300022806D00128C8
:1023700000984FD0C04380077ED0A8E0009850223C
:10238000810D8A46B2EB905F00D850210D4665F36F
:102390009F5000900831514800F0B9F907006CD007
:1023A00000F0FEF94B4608226946384600F018FA5C
:1023B00004EA0600311A8900091D09F1080B8D4253
:1023C00021D9454E0C3631B1CAB208EB8000691AEA
:1023D00091460C3004E03046EAB200269146314680
:1023E000CDB201465B46384600F0FAF90BEB090323
:1023F00026B12A463146384600F0F2F90AF10300C8
:1024000004EB90043BE008EB80015B462A4638462B
:102410000C31F1E7C0F38310062800D306200099A1
:1024200060F38911C1F38310801C009181002B4857
:1024300000F06DF907004AD000F0B2F94B460822CF
:102440006946384600F0CCF909F1080900250DE08D
:1024500004EA060008EB80014B46042238460C31A2
:10246000641C00F0BDF909F104096D1C0098C0F36B
:102470008310A842ECD801E00BE028E03FB3D8F885
:102480001054D8F81804464690B1384600F091F937
:102490001DE0D3F8180400283FF436AF17E0687A3F
:1024A000012804D12A6828463946126890476D6889
:1024B000002DF4D1384600F07CF90020FEF754FBE3
:1024C000D6F8180400B974600020FEF74FFBFEF741
:1024D00069FE80F0010017E72C0400208030000026
:1024E00000231A4600F096BA08B5012300926A4606
:1024F00000F090FA08BD00002DE9F0470E46804636
:102500001C46924608293ED894F80C90002020736F
:102510001946104600F0F8F90025B54206D218F821
:1025200005201AA12046FFF715FC03E019A120465B
:10253000FFF710FC6D1C082DEFD317A12046FFF705
:1025400009FC0025B54210D218F80570FDF742FFCE
:102550000068C05D10F03E0F01D03A4600E02E2228
:102560000EA12046FFF7F6FB03E00DA12046FFF782
:10257000F1FB6D1C082DE5D301222146504600F0E9
:10258000A5F984F80C90BDE8F087000020253032D2
:1025900078000000202020007C000000256300005F
:1025A00020000000114810B5FF218160002101606A
:1025B0004160C0F81814C0F8141480F81C140C48BA
:1025C00000F0F5F800280FD10A480B490B4B401AD0
:1025D000C108002005E000BF00EB400223F8220004
:1025E000401C8842F8D3002010BD00002C040020BD
:1025F000803000009432000074320000DC000020C3
:1026000002480349401AC008704700009432000095
:102610007432000013B56846FFF7D2F808B1002005
:102620001CBD0248009950F831001CBD74320000F6
:1026300070B508480125D0F8104480F81C5405E016
:10264000657221682046496888476468002CF7D184
:1026500070BD00002C0400202DE9FF4781460C9D31
:1026600000200C462F7B28739846164629461846AC
:1026700000F04AF9072E42D2DFE806F004090F16EF
:102680001F2A360049462846FFF764FB37E04946D3
:1026900028462268FFF75EFB31E0D4E90023494673
:1026A0002846FFF757FB2AE0A0680090D4E90023F2
:1026B00049462846FFF74EFB21E0D4E90201CDE967
:1026C0000001D4E9002349462846FFF743FB16E002
:1026D00004F1080007C88DE80700D4E90023494643
:1026E0002846FFF737FB0AE004F108000FC88DE821
:1026F0000F00D4E9002349462846FFF72BFB0022B0
:102700002946404600F0E2F82F73BDE8FF872DE927
:10271000F041058A80462D1F4819C01CB0FBF5F01A
:10272000C6B24046FFF76DF8041E19D00020207194
:1027300001206071E58000272546761EC4F80080E0
:102740000BE04046FFF75DF860B16179491C6171AB
:10275000286005467F1CC0F80080B742F1D32046B0
:10276000BDE8F081204600F002F80020F8E72DE9EE
:10277000F041457901466B1E002201E00968521CB8
:102780009A42FBD30F680146002605E038460C68E4
:10279000FFF756F82146761CAE42F7D3BDE8F0812C
:1027A00008B501216A46001DFDF767FD08BDFFF76A
:1027B0005CB838B50446001D01216A46FDF76AFD84
:1027C000009810F0FF0F04D12046BDE83840FFF715
:1027D000CEBF38BD38B501240094FEF7B5FF38BD33
:1027E00038B500240094FEF7AFFF38BD40580028EC
:1027F00000D00120704708B5002242504058009098
:1028000008BDD0F80403084000D0012070474058AC
:10281000002800D00120704708B5002242504058DF
:10282000009008BD0449084490F93000082801DBF5
:1028300001207047002070477801002004490844B7
:1028400090F93000082801D201207047002070471D
:102850007801002070B5034600791B4901EB401058
:102860001968027F4FF0FF30002AD1F80C25D1F80B
:102870001465D1F80855D1F8104504D0C1F80C05FD
:10288000C1F8140503E0C1F81405C1F80C05196876
:10289000C1F80805C1F81005501C02D01046FFF71A
:1028A000AAFB701C02D03046FFF7A5FB601C02D0CB
:1028B0002046FFF7A0FB681C04D02846BDE8704006
:1028C000FFF799BB70BD0000E001002010B50C4679
:1028D000C17949B11AB109A12046FFF73BFA204658
:1028E000BDE81040FFF743BA007A0028F3D004484F
:1028F00004A102682046FFF72DFAECE70D0A00005C
:10290000B40000202573000070B50446C0790D4660
:1029100000281CD1207A50B1A179A088FFF7C8FC0B
:102920000B4951F820200BA12846FFF713FAA08885
:102930000021FFF76FFE03460549A079143951F8CD
:1029400020202846BDE8704003A1FFF703BA70BD00
:10295000B4000020257300003C25733E2025733A07
:102960002000000070B5012670044FF0E021002522
:10297000C1F88001084C4010C4F84803C4F80803AB
:1029800066602F20FEF792FFA660044C2F20A56002
:10299000FEF78CFFA57070BD0010014060000020A4
:1029A00070B50546C87D0C4600284FF48471284652
:1029B0000AD0FFF720FFD5F81805627EE168885439
:1029C000607E401C607670BDFFF715FFD5F81805D6
:1029D00070BD1FB501238DF800308DF808100192ED
:1029E000D0E90012684690471FBD000010B5084CA2
:1029F0000020D2B22070201DFFF7F0F808B1FEF7DA
:102A00001BF86078002802D021780029FAD010BD88
:102A1000780000202DE9F843214C88460546914670
:102A20001F4669461846A668FEF77CFB70B30098FF
:102A3000811C00220AE000BF01EA060C59F822308E
:102A400004EB8C0C491C521CCCF80C30BA42F3D36A
:102A50000246401C304004EB80002B0CC36002EAAD
:102A6000060004EB8002E80652F80C0F02D540F095
:102A7000040001E020F0040065F3C50067F389104D
:102A800068F39F2020F00300401C106094F81C04A1
:102A900002E000BFFFF732FC0028FBD1BDE8F8835D
:102AA0002C0400202DE9F84F1D4C00256846D4E980
:102AB00001A6FEF755FC002738B30023009A616891
:102AC0001CE0D1F800C00846944503D9ACEB0202E3
:102AD0000A6015E0A2EB0C0263440760D0F80CC05A
:102AE000C1698146BCF1000F08D006EB030828F04D
:102AF0007F48C0E9018CC9F81C5005460029E0D187
:102B000028466160FEF72AFD03E02846FEF726FD11
:102B100010B15046FEF79EFBE770BDE8F88F00004D
:102B2000600000200D4B10B5596831B102680C6887
:102B3000A24204D8A21A0A60C161586010BD0B46B7
:102B400003E00B46C969121B21B10C689442F8D30B
:102B5000A41A0C600260C161D86110BD6000002041
:102B60002DE9F041144E77683D462C4603E084423F
:102B700004D02546E469002CF9D11BE0D4B1A5426C
:102B80000BD1F869706040B90C49012088600021C0
:102B9000B160F0702F20FEF789FE2168E069E861DE
:102BA00010B10268114401607068874202D00120B0
:102BB000BDE8F0810020FBE760000020001001402C
:102BC000F8B5064600240D462046FDF7CDFF6846C1
:102BD00000F0FEF968B10570084946609DF80000F4
:102BE00048700020FDF7C2FF1420FDF74BFD204682
:102BF000F8BD04240020FDF7B9FFF8E7200200200B
:102C00002DE9F041194D6C68002C2CD01848002794
:102C10000068A968B846401A20F07F462068B04294
:102C20000CD82146361A0744E469087C20B181F8A3
:102C30001080886949698847002CEFD12978687825
:102C4000814206D1401CC0B26870022801D185F8CB
:102C50000180064869780C3040F82170BDE8F041E9
:102C60001420FDF70FBDBDE8F081000060000020DA
:102C70000415014070B50C4605464FF48E71FFF700
:102C8000BAFDA18AA068415CA08A401CA082C5F858
:102C90001C1570BD1FB500228DF800208DF808109E
:102CA000816801918275D0E90012684690471FBD86
:102CB00001490120087070477800002010B588B0E5
:102CC000044620220E496846FDF788FB0620009046
:102CD000C01F0190029003904FF0EB7006900CB172
:102CE000084A00E0002269460748FEF743FF08B1A2
:102CF000FDF7A2FE0448001F447008B010BD00009C
:102D000060300000B12C00007C0000202DE9FF475E
:102D10000C4605464FF40071FFF773FD01274FF491
:102D20000178002618B34FF4927949462846FFF7F8
:102D30005DFDE0B149462846FFF75DFDC5F8088313
:102D4000A07E00B96F6002208DF80000D5F88004E5
:102D5000C5F880040390E07D8DF80800E0680190DC
:102D6000E6752676D4E900126846904727E00421EC
:102D70002846FFF746FD10B34FF484712846FFF74D
:102D800035FDE0B121462846FFF70AFEE07D617E71
:102D9000884214D1207E38B1617EE268E0752069F6
:102DA000E0602676667607E0A07E00B96F60C5F821
:102DB0000883E675617EE2682046FFF70AFE4FF45D
:102DC0008E7841462846FFF711FD88B1A08AA17D83
:102DD000884204D221462846FFF74CFF08E04146CE
:102DE0002846FFF708FDA17D11B12046FFF752FFED
:102DF0004FF4A27841462846FFF7F8FC002812D08D
:102E000041462846FFF7F7FCA07E00B12F60E07D29
:102E1000002808D0E675617EE26804B02046BDE86F
:102E2000F047FFF7D6BDBDE8FF872DE9FF410C460F
:102E30004FF4927705463946FFF7E9FC0026C0B10A
:102E400039462846FFF7E8FC02208DF80000D5F847
:102E50008004C5F880040390D5F83C058DF808007F
:102E6000E0680190E6752676D4E90012684690473E
:102E700024E04FF4887739462846FFF7C8FCE8B1CC
:102E800039462846FFF7C8FCD5F83C05C1B2E07DBD
:102E9000884213D1207E60B1E268D5F8000220F0AC
:102EA0002000C5F80002207EE0752069E0602676EB
:102EB00001E0E675E2682046FFF78BFD4FF4A2774C
:102EC00039462846FFF7A3FC68B139462846FFF784
:102ED000A3FCE07D38B1E675D5F83C05E268C1B2E7
:102EE0002046FFF776FD4FF4907631462846FFF7EF
:102EF0008EFC00280FD031462846FFF78DFCA07DC0
:102F0000002808D0D5F84C0504B0C1B22046BDE871
:102F1000F041FFF7BFBEBDE8FF8100002DE9F05F83
:102F20008346DDE90A4A994690460D460846012740
:102F300003E000BFB0FBF8F07F1C4045FAD2B94572
:102F400000D94F465FEACA7012D18CB15FEA8A702D
:102F500002D5B9F1000F01D0202607E0302605E0A8
:102F600031465846641EFEF70DF90CB1A742F7D35F
:102F70005FF00106B9F1010F02D9A9F1010903E0DF
:102F8000B5FBF6F0404502D306FB08F6F2E7DFF8A2
:102F90003C9000BFB5FBF6F000FB165519F8001089
:102FA0005846FEF7EFF8B6FBF8F6002EF2D15FEACE
:102FB000CA7009D0002C07D0A74205D2202158465C
:102FC000641EFEF7DFF8F5E7BDE8F09F443000002F
:102FD0000A494A788B78521CD2B2934200D100221F
:102FE0000B78934201D1002070470270487800EBC3
:102FF000400001EBC000001D7047000020020020CF
:103000000D0E0F100B0C18190C0100202C010020C4
:10301000580100200B000300250D00000C000300E8
:10302000250D000018000300250D00001900030005
:10303000250D000000000050000300500002002099
:1030400003000000303132333435363738394142ED
:103050004344454699220000812200007722000067
:10306000FFFFFFFFFFFFFFFFFFFFFFFFFFFFFFFF70
:1030700000000000000000000000D6010701000071
:103080009800002090000020980000206C03002091
:103090001800000000404040404040404040414156
:1030A000414141404040404040404040404040401D
:1030B00040404040400502020202020202020202B7
:1030C00002020202022020202020202020202002B4
:1030D0000202020202029090909090901010101044
:1030E00010101010101010101010101010101010E0
:1030F0000202020202028888888888880808080874
:10310000080808080808080808080808080808083F
:103110000202020240000000953000004C45445F6E
:1031200031204F46462000004C45445F32204F4638
:10313000462000004C45445F33204F4646200000A7
:103140004C45445F31204F4E200000004C45445F09
:1031500032204F4E200000004C45445F33204F4E3C
:10316000200000004C45445F34204F4E20000000FA
:103170004253505F494E4449434154455F49444C92
:10318000450000004C45445F34204F464600000097
:1031900042544E5F312050726573736564000000C5
:1031A00042544E5F322050726573736564000000B4
:1031B00042544E5F332050726573736564000000A3
:1031C00042544E5F34205072657373656400000092
:1031D0007761726E696E67006465627567000000F2
:1031E0001B5B313B33306D001B5B306D000000001A
:1031F0001B5B313B33316D001B5B313B33326D0068
:103200001B5B313B33336D001B5B313B33346D0053
:103210001B5B313B33356D001B5B313B33366D003F
:103220001B5B313B33376D00696E666F0000000039
:103230006572726F720000006770696F74650000DC
:10324000756172740000000062616C6C6F63000055
:103250006170700094320000000000200C0100003A
:1032600008090000A03300000C01002044270000E2
:10327000180900003832000001010000403200004F
:10328000010100004832000001010000503200003E
:1032900001010300000000007031000090310000C7
:1032A000A0310000B0310000C031000070310000DA
:1032B000403100004C310000583100006431000002
:1032C0001C3100002831000034310000843100003E
:1032D00000000000000000000000000000000000EE
:1032E00000000000000000000000000000000000DE
:1032F00000000000000000000000000000000000CE
:1033000000000000000000000000000000000000BD
:1033100000200040000000005430000000000000C9
:10332000000000000000000000000000000000009D
:10333000000000000000000030320000D03100002A
:1033400028320000D8310000E8310000E0310000F0
:10335000F0310000F83100000032000008320000B7
:103360001032000018320000203200000090D0031C
:10337000000000000000000000000000000000004D
:10338000000000000000000000000000000000003D
:10339000000000000000000000000000000000002D
:0400000500000201F4
:00000001FF
